{
  "_format": "hh-sol-artifact-1",
  "contractName": "LPManagerV1",
  "sourceName": "contracts/LPManagerV1.sol",
  "abi": [
    {
      "inputs": [],
      "stateMutability": "nonpayable",
      "type": "constructor"
    },
    {
      "inputs": [],
      "name": "AdapterNotFound",
      "type": "error"
    },
    {
      "inputs": [
        {
          "internalType": "address",
          "name": "target",
          "type": "address"
        }
      ],
      "name": "AddressEmptyCode",
      "type": "error"
    },
    {
      "inputs": [
        {
          "internalType": "address",
          "name": "implementation",
          "type": "address"
        }
      ],
      "name": "ERC1967InvalidImplementation",
      "type": "error"
    },
    {
      "inputs": [],
      "name": "ERC1967NonPayable",
      "type": "error"
    },
    {
      "inputs": [],
      "name": "FailedCall",
      "type": "error"
    },
    {
      "inputs": [],
      "name": "InsufficientFees",
      "type": "error"
    },
    {
      "inputs": [],
      "name": "InvalidAdapter",
      "type": "error"
    },
    {
      "inputs": [],
      "name": "InvalidFeeCollector",
      "type": "error"
    },
    {
      "inputs": [],
      "name": "InvalidInitialization",
      "type": "error"
    },
    {
      "inputs": [],
      "name": "InvalidProtocolFee",
      "type": "error"
    },
    {
      "inputs": [],
      "name": "NotInitializing",
      "type": "error"
    },
    {
      "inputs": [
        {
          "internalType": "address",
          "name": "owner",
          "type": "address"
        }
      ],
      "name": "OwnableInvalidOwner",
      "type": "error"
    },
    {
      "inputs": [
        {
          "internalType": "address",
          "name": "account",
          "type": "address"
        }
      ],
      "name": "OwnableUnauthorizedAccount",
      "type": "error"
    },
    {
      "inputs": [],
      "name": "PositionNotFound",
      "type": "error"
    },
    {
      "inputs": [],
      "name": "ReentrancyGuardReentrantCall",
      "type": "error"
    },
    {
      "inputs": [
        {
          "internalType": "address",
          "name": "token",
          "type": "address"
        }
      ],
      "name": "SafeERC20FailedOperation",
      "type": "error"
    },
    {
      "inputs": [],
      "name": "UUPSUnauthorizedCallContext",
      "type": "error"
    },
    {
      "inputs": [
        {
          "internalType": "bytes32",
          "name": "slot",
          "type": "bytes32"
        }
      ],
      "name": "UUPSUnsupportedProxiableUUID",
      "type": "error"
    },
    {
      "inputs": [],
      "name": "Unauthorized",
      "type": "error"
    },
    {
      "anonymous": false,
      "inputs": [
        {
          "indexed": false,
          "internalType": "string",
          "name": "protocol",
          "type": "string"
        },
        {
          "indexed": false,
          "internalType": "address",
          "name": "adapter",
          "type": "address"
        }
      ],
      "name": "AdapterRegistered",
      "type": "event"
    },
    {
      "anonymous": false,
      "inputs": [
        {
          "indexed": true,
          "internalType": "uint256",
          "name": "positionId",
          "type": "uint256"
        },
        {
          "indexed": false,
          "internalType": "uint128",
          "name": "addedLiquidity",
          "type": "uint128"
        }
      ],
      "name": "Compounded",
      "type": "event"
    },
    {
      "anonymous": false,
      "inputs": [
        {
          "indexed": false,
          "internalType": "address",
          "name": "newFeeCollector",
          "type": "address"
        }
      ],
      "name": "FeeCollectorUpdated",
      "type": "event"
    },
    {
      "anonymous": false,
      "inputs": [
        {
          "indexed": true,
          "internalType": "uint256",
          "name": "positionId",
          "type": "uint256"
        },
        {
          "indexed": false,
          "internalType": "uint256",
          "name": "amount0",
          "type": "uint256"
        },
        {
          "indexed": false,
          "internalType": "uint256",
          "name": "amount1",
          "type": "uint256"
        },
        {
          "indexed": false,
          "internalType": "uint256",
          "name": "protocolFee0",
          "type": "uint256"
        },
        {
          "indexed": false,
          "internalType": "uint256",
          "name": "protocolFee1",
          "type": "uint256"
        }
      ],
      "name": "FeesCollected",
      "type": "event"
    },
    {
      "anonymous": false,
      "inputs": [
        {
          "indexed": false,
          "internalType": "uint64",
          "name": "version",
          "type": "uint64"
        }
      ],
      "name": "Initialized",
      "type": "event"
    },
    {
      "anonymous": false,
      "inputs": [
        {
          "indexed": true,
          "internalType": "uint256",
          "name": "positionId",
          "type": "uint256"
        },
        {
          "indexed": false,
          "internalType": "uint128",
          "name": "liquidity",
          "type": "uint128"
        }
      ],
      "name": "LiquidityIncreased",
      "type": "event"
    },
    {
      "anonymous": false,
      "inputs": [
        {
          "indexed": true,
          "internalType": "address",
          "name": "previousOwner",
          "type": "address"
        },
        {
          "indexed": true,
          "internalType": "address",
          "name": "newOwner",
          "type": "address"
        }
      ],
      "name": "OwnershipTransferred",
      "type": "event"
    },
    {
      "anonymous": false,
      "inputs": [
        {
          "indexed": true,
          "internalType": "uint256",
          "name": "positionId",
          "type": "uint256"
        },
        {
          "indexed": false,
          "internalType": "uint256",
          "name": "amount0",
          "type": "uint256"
        },
        {
          "indexed": false,
          "internalType": "uint256",
          "name": "amount1",
          "type": "uint256"
        }
      ],
      "name": "PositionClosed",
      "type": "event"
    },
    {
      "anonymous": false,
      "inputs": [
        {
          "indexed": true,
          "internalType": "uint256",
          "name": "positionId",
          "type": "uint256"
        },
        {
          "indexed": true,
          "internalType": "address",
          "name": "owner",
          "type": "address"
        },
        {
          "indexed": false,
          "internalType": "string",
          "name": "protocol",
          "type": "string"
        },
        {
          "indexed": false,
          "internalType": "uint256",
          "name": "dexTokenId",
          "type": "uint256"
        }
      ],
      "name": "PositionOpened",
      "type": "event"
    },
    {
      "anonymous": false,
      "inputs": [
        {
          "indexed": false,
          "internalType": "uint256",
          "name": "newFeeBps",
          "type": "uint256"
        }
      ],
      "name": "ProtocolFeeUpdated",
      "type": "event"
    },
    {
      "anonymous": false,
      "inputs": [
        {
          "indexed": true,
          "internalType": "uint256",
          "name": "oldPositionId",
          "type": "uint256"
        },
        {
          "indexed": true,
          "internalType": "uint256",
          "name": "newPositionId",
          "type": "uint256"
        },
        {
          "indexed": false,
          "internalType": "int24",
          "name": "newTickLower",
          "type": "int24"
        },
        {
          "indexed": false,
          "internalType": "int24",
          "name": "newTickUpper",
          "type": "int24"
        }
      ],
      "name": "RangeMoved",
      "type": "event"
    },
    {
      "anonymous": false,
      "inputs": [
        {
          "indexed": true,
          "internalType": "address",
          "name": "implementation",
          "type": "address"
        }
      ],
      "name": "Upgraded",
      "type": "event"
    },
    {
      "inputs": [],
      "name": "UPGRADE_INTERFACE_VERSION",
      "outputs": [
        {
          "internalType": "string",
          "name": "",
          "type": "string"
        }
      ],
      "stateMutability": "view",
      "type": "function"
    },
    {
      "inputs": [
        {
          "internalType": "bytes32",
          "name": "",
          "type": "bytes32"
        }
      ],
      "name": "adapters",
      "outputs": [
        {
          "internalType": "address",
          "name": "",
          "type": "address"
        }
      ],
      "stateMutability": "view",
      "type": "function"
    },
    {
      "inputs": [
        {
          "internalType": "string",
          "name": "protocol",
          "type": "string"
        },
        {
          "components": [
            {
              "components": [
                {
                  "internalType": "address",
                  "name": "token0",
                  "type": "address"
                },
                {
                  "internalType": "address",
                  "name": "token1",
                  "type": "address"
                },
                {
                  "internalType": "uint24",
                  "name": "fee",
                  "type": "uint24"
                },
                {
                  "internalType": "int24",
                  "name": "tickLower",
                  "type": "int24"
                },
                {
                  "internalType": "int24",
                  "name": "tickUpper",
                  "type": "int24"
                },
                {
                  "internalType": "bytes",
                  "name": "extraData",
                  "type": "bytes"
                }
              ],
              "internalType": "struct IAdapter.PoolData",
              "name": "pool",
              "type": "tuple"
            },
            {
              "internalType": "uint256",
              "name": "amount0Desired",
              "type": "uint256"
            },
            {
              "internalType": "uint256",
              "name": "amount1Desired",
              "type": "uint256"
            },
            {
              "internalType": "uint256",
              "name": "amount0Min",
              "type": "uint256"
            },
            {
              "internalType": "uint256",
              "name": "amount1Min",
              "type": "uint256"
            },
            {
              "internalType": "address",
              "name": "recipient",
              "type": "address"
            }
          ],
          "internalType": "struct IAdapter.LiquidityParams",
          "name": "params",
          "type": "tuple"
        }
      ],
      "name": "addLiquidity",
      "outputs": [
        {
          "internalType": "uint256",
          "name": "positionId",
          "type": "uint256"
        }
      ],
      "stateMutability": "nonpayable",
      "type": "function"
    },
    {
      "inputs": [
        {
          "internalType": "uint256",
          "name": "positionId",
          "type": "uint256"
        },
        {
          "internalType": "uint128",
          "name": "liquidity",
          "type": "uint128"
        }
      ],
      "name": "closePosition",
      "outputs": [],
      "stateMutability": "nonpayable",
      "type": "function"
    },
    {
      "inputs": [
        {
          "internalType": "uint256",
          "name": "positionId",
          "type": "uint256"
        },
        {
          "internalType": "bool",
          "name": "doSwap",
          "type": "bool"
        },
        {
          "internalType": "bytes",
          "name": "swapData",
          "type": "bytes"
        }
      ],
      "name": "compound",
      "outputs": [
        {
          "internalType": "uint128",
          "name": "addedLiquidity",
          "type": "uint128"
        }
      ],
      "stateMutability": "nonpayable",
      "type": "function"
    },
    {
      "inputs": [],
      "name": "feeCollector",
      "outputs": [
        {
          "internalType": "address",
          "name": "",
          "type": "address"
        }
      ],
      "stateMutability": "view",
      "type": "function"
    },
    {
      "inputs": [
        {
          "internalType": "string",
          "name": "protocol",
          "type": "string"
        }
      ],
      "name": "getAdapter",
      "outputs": [
        {
          "internalType": "address",
          "name": "",
          "type": "address"
        }
      ],
      "stateMutability": "view",
      "type": "function"
    },
    {
      "inputs": [
        {
          "internalType": "address",
          "name": "_feeCollector",
          "type": "address"
        }
      ],
      "name": "initialize",
      "outputs": [],
      "stateMutability": "nonpayable",
      "type": "function"
    },
    {
      "inputs": [
        {
          "internalType": "uint256",
          "name": "oldPositionId",
          "type": "uint256"
        },
        {
          "internalType": "int24",
          "name": "newTickLower",
          "type": "int24"
        },
        {
          "internalType": "int24",
          "name": "newTickUpper",
          "type": "int24"
        },
        {
          "internalType": "bool",
          "name": "doSwap",
          "type": "bool"
        },
        {
          "internalType": "bytes",
          "name": "swapData",
          "type": "bytes"
        }
      ],
      "name": "moveRange",
      "outputs": [
        {
          "internalType": "uint256",
          "name": "newPositionId",
          "type": "uint256"
        }
      ],
      "stateMutability": "nonpayable",
      "type": "function"
    },
    {
      "inputs": [],
      "name": "owner",
      "outputs": [
        {
          "internalType": "address",
          "name": "",
          "type": "address"
        }
      ],
      "stateMutability": "view",
      "type": "function"
    },
    {
      "inputs": [
        {
          "internalType": "uint256",
          "name": "",
          "type": "uint256"
        }
      ],
      "name": "positions",
      "outputs": [
        {
          "internalType": "string",
          "name": "protocol",
          "type": "string"
        },
        {
          "internalType": "uint256",
          "name": "dexTokenId",
          "type": "uint256"
        },
        {
          "internalType": "address",
          "name": "owner",
          "type": "address"
        },
        {
          "internalType": "address",
          "name": "token0",
          "type": "address"
        },
        {
          "internalType": "address",
          "name": "token1",
          "type": "address"
        },
        {
          "internalType": "bool",
          "name": "active",
          "type": "bool"
        }
      ],
      "stateMutability": "view",
      "type": "function"
    },
    {
      "inputs": [],
      "name": "protocolFeeBps",
      "outputs": [
        {
          "internalType": "uint256",
          "name": "",
          "type": "uint256"
        }
      ],
      "stateMutability": "view",
      "type": "function"
    },
    {
      "inputs": [],
      "name": "proxiableUUID",
      "outputs": [
        {
          "internalType": "bytes32",
          "name": "",
          "type": "bytes32"
        }
      ],
      "stateMutability": "view",
      "type": "function"
    },
    {
      "inputs": [
        {
          "internalType": "string",
          "name": "protocol",
          "type": "string"
        },
        {
          "internalType": "address",
          "name": "adapter",
          "type": "address"
        }
      ],
      "name": "registerAdapter",
      "outputs": [],
      "stateMutability": "nonpayable",
      "type": "function"
    },
    {
      "inputs": [],
      "name": "renounceOwnership",
      "outputs": [],
      "stateMutability": "nonpayable",
      "type": "function"
    },
    {
      "inputs": [
        {
          "internalType": "address",
          "name": "newFeeCollector",
          "type": "address"
        }
      ],
      "name": "setFeeCollector",
      "outputs": [],
      "stateMutability": "nonpayable",
      "type": "function"
    },
    {
      "inputs": [
        {
          "internalType": "uint256",
          "name": "newFeeBps",
          "type": "uint256"
        }
      ],
      "name": "setProtocolFee",
      "outputs": [],
      "stateMutability": "nonpayable",
      "type": "function"
    },
    {
      "inputs": [
        {
          "internalType": "address",
          "name": "newOwner",
          "type": "address"
        }
      ],
      "name": "transferOwnership",
      "outputs": [],
      "stateMutability": "nonpayable",
      "type": "function"
    },
    {
      "inputs": [
        {
          "internalType": "address",
          "name": "newImplementation",
          "type": "address"
        },
        {
          "internalType": "bytes",
          "name": "data",
          "type": "bytes"
        }
      ],
      "name": "upgradeToAndCall",
      "outputs": [],
      "stateMutability": "payable",
      "type": "function"
    }
  ],
  "bytecode": "0x60a080604052346100ea57306080527ff0c57e16840df040f15088dc2f81fe391c3923bec73e23a9662efc9c229c6a005460ff8160401c166100d9576002600160401b03196001600160401b03821601610073575b6040516126ce90816100f082396080518181816117b7015261184b0152f35b6001600160401b0319166001600160401b039081177ff0c57e16840df040f15088dc2f81fe391c3923bec73e23a9662efc9c229c6a005581527fc7f505b2f371ae2175ee4913f4499e1f2633a7b5936321eed1cdaeb6115181d290602090a13880610054565b63f92ee8a960e01b60005260046000fd5b600080fdfe608080604052600436101561001357600080fd5b60003560e01c90816335659fb814611a11575080634f1ef2861461180e57806352d1902d146117a457806356811d84146113ca578063715018a61461136057806372c6838f1461132c578063787dce3d146112c557806379be938d146111ea5780638da5cb5b146111b457806399fbab881461111c578063a42dce80146110ab578063a467fa3814610bce578063ad3cb1cc14610b83578063bc4c221214610b22578063c415b95c14610af9578063c4d66de8146108ea578063c8a2050414610311578063d224f6fe146101205763f2fde38b146100f057600080fd5b3461011b57602036600319011261011b5761011961010c611a2c565b6101146124b4565b611f11565b005b600080fd5b3461011b57604036600319011261011b576024356001600160801b03811680910361011b5761014d611f87565b60043560005260036020526040600020600481019060ff825460a01c16156103005760028101546001600160a01b031633036102f05760405161019b816101948185611c72565b0382611a87565b60208151910120600052600460205260018060a01b036040600020541692600182015490610e104201948542116102da57604092600060a492855198899586946303a3f2ab60e01b86526004860152602485015282604485015282606485015260848401525af180156102ce5761024b9360009060009261029c575b508061027c575b508061025f575b50815460ff60a01b1981169092556003015433916001600160a01b0390811691166123a8565b600160008051602061265983398151915255005b8254610276919033906001600160a01b0316611fc3565b83610225565b6003830154610296919033906001600160a01b0316611fc3565b8461021e565b90506102c0915060403d6040116102c7575b6102b88183611a87565b810190611d02565b9085610217565b503d6102ae565b6040513d6000823e3d90fd5b634e487b7160e01b600052601160045260246000fd5b6282b42960e81b60005260046000fd5b636ec9be1160e01b60005260046000fd5b3461011b5760a036600319011261011b576024358060020b810361011b576044358060020b810361011b5760643590811515820361011b576084356001600160401b03811161011b57610368903690600401611b18565b929093610373611f87565b600435600052600360205260406000209060ff600483015460a01c16156103005760028201546001600160a01b031633036102f0576040516103b9816101948186611c72565b60208151910120600052600460205260018060a01b0360406000205416600183015495610e104201978842116102da5760405197631f5c7a8360e31b8952600489015260006024890152600060448901528860648901526040886084816000875af180156102ce576000986000916108c5575b508881976040518281528360208201527f74c8f0c73d3900d6e7ac43e66f3bc9ff789fb82245f839c795d0e3163ac6e308604060043592a260048801805460ff60a01b19811690915590806108bc575b610883575b505050506003840154600485015460405196849350916001600160a01b0390811691166104ad88611a56565b818852602088015260408701610bb890528460020b60608801528760020b60808801526020986040516104e08b82611a87565b6000815260a0890152604051976104f689611a56565b8852808a89015282604089015260608801600090526080880160009052833060a08a0152610523926122e0565b600485015461053b92906001600160a01b03166122e0565b6000966040518095819263e864f64d60e01b8352600483019161055d92611ea3565b0381895a94604095f1928315610878578693610846575b506002549361058285611f02565b6002556003830154600484015460405195916001600160a01b0391821691166105aa87611a56565b6105b386611b7f565b8752828988015233604088015260608701526080860152600160a0860152858852600387526040882085518051906001600160401b038211610832576105f98354611b45565b601f81116107f3575b509988999a8199979899508b91601f841160011461077e5793836107599b9460a0946004946106c19892610773575b50508160011b916000199060031b1c19161781555b8c840151600182810191909155604085015160028301805492861b600019019182166001600160601b03871b93841617905560608601516003840180549183169184169190911790556080860151939092018054949095015160ff60a01b90151560a01b169290911692169190911760ff60a01b1916179055565b837fb0568630ef9047504236077be85a49ad7508c66ac77cad42be2472735cc9fc9e604051604081526106f76040820189611c72565b938b8201528033940390a36040519160020b825260020b868201527f6dd613c08a18f17f8f023fcf28c1b608fdf2f9f3a9b0768d9293b36246969ae6604060043592a3600381015460049091015433916001600160a01b0391821691166123a8565b600160008051602061265983398151915255604051908152f35b015190508f80610631565b91908483528c8320925b8d601f19861682106107da5750509360018460a0946004946106c1986107599f98601f198116106107c1575b505050811b018155610646565b015160001960f88460031b161c191690558f80806107b4565b8383015185558d9a506001909401939283019201610788565b838c528a8c20601f840160051c81018c851061082b575b601f830160051c82018110610820575050610602565b8d815560010161080a565b508061080a565b634e487b7160e01b8b52604160045260248bfd5b61086991935060403d604011610871575b6108618183611a87565b810190611e2b565b509186610574565b503d610857565b6040513d88823e3d90fd5b6003880154959a509597506108af9593949293919290916001600160a01b039081169116600435612015565b9290948780808080610481565b5084151561047c565b90506108e191985060403d6040116102c7576102b88183611a87565b9790978a61042c565b3461011b57602036600319011261011b57610903611a2c565b600080516020612679833981519152549060ff8260401c1615916001600160401b03811680159081610af1575b6001149081610ae7575b159081610ade575b50610acd5767ffffffffffffffff1981166001176000805160206126798339815191525582610aa0575b50610975612589565b61097d612589565b610985612589565b61098e33611f11565b610996612589565b61099e612589565b6001600080516020612659833981519152556001600160a01b03168015610a8f57600180546001600160a01b0319168217815560c86000556002556040519081527fe5693914d19c789bdee50a362998c0bc8d035a835f9871da5d51152f0582c34f90602090a17fd10d75876659a287a59a6ccfa2e3fff42f84d94b542837acd30bc184d562de40602060405160c88152a1610a3657005b68ff0000000000000000196000805160206126798339815191525416600080516020612679833981519152557fc7f505b2f371ae2175ee4913f4499e1f2633a7b5936321eed1cdaeb6115181d2602060405160018152a1005b63bb0bac9960e01b60005260046000fd5b68ffffffffffffffffff19166801000000000000000117600080516020612679833981519152558261096c565b63f92ee8a960e01b60005260046000fd5b90501584610942565b303b15915061093a565b849150610930565b3461011b57600036600319011261011b576001546040516001600160a01b039091168152602090f35b3461011b57602036600319011261011b576004356001600160401b03811161011b57610b55610b5c913690600401611b18565b3691611ac3565b602081519101206000526004602052602060018060a01b0360406000205416604051908152f35b3461011b57600036600319011261011b57610bca6040805190610ba68183611a87565b60058252640352e302e360dc1b602083015251918291602083526020830190611c23565b0390f35b3461011b57604036600319011261011b576004356001600160401b03811161011b57610bfe903690600401611b18565b90602435916001600160401b03831161011b578260040160c0600319853603011261011b57610c2b611f87565b610c36368385611ac3565b60208151910120600052600460205260018060a01b036040600020541693841561109a576001600160a01b03610c74610c6f8480611d6d565b611d82565b1694610c8960248301358097309033906124ea565b6001600160a01b03610ca66020610ca08680611d6d565b01611d82565b1695610cbb60448401358098309033906124ea565b610cdb81836001600160a01b03610cd5610c6f8980611d6d565b166122e0565b610cf787836001600160a01b03610cd56020610ca08a80611d6d565b60009660405193610d0785611a56565b8535916001600160401b03831161109657610d5493610d2e60a49460043691860101611d96565b875260208701526040860152606481013560608601526084810135608086015201611a42565b503060a0830152610e104201918242116110825791604091610d8c9388845180968195829463e864f64d60e01b845260048401611ea3565b03925af1908115611077578591611057575b5060025492610dac84611f02565b600255610dbc610c6f8480611d6d565b94610dcc6020610ca08680611d6d565b95604051610dd981611a56565b610de4368585611ac3565b8152602081019185835260408201338152606083019160018060a01b03168252608083019960018060a01b03168a5260a083019360018552898c52600360205260408c2093518051906001600160401b03821161104357610e458654611b45565b601f8111610ffe575b509c60209d8e91601f8411600114610f645795610f1a958e9f956107599f9c9a9580600496610f2c9c967fb0568630ef9047504236077be85a49ad7508c66ac77cad42be2472735cc9fc9e9f9c92610f59575b50508160011b916000199060031b1c19161784555b516001840155516002830180546001600160a01b03199081166001600160a01b039384161790915591516003840180549093169082161790915593519101805492516001600160a81b0319909316919093161790151560a01b60ff60a01b16179055565b60405192604084526040840191611d4c565b93888201528033940390a3610f44610c6f8280611d6d565b610f5385610ca0339480611d6d565b906123a8565b015190503880610ea1565b9190601f198416888452828420935b818110610fe65750958e9f956107599f9c9a9580600496610f2c9c967fb0568630ef9047504236077be85a49ad7508c66ac77cad42be2472735cc9fc9e9f9c96600194610f1a9d10610fcd575b505050811b018455610eb6565b015160001960f88460031b161c19169055388080610fc0565b92936020600181928786015181550195019301610f73565b60208f88815220601f840160051c81019160208510611039575b601f0160051c01905b81811061102e5750610e4e565b8f8155600101611021565b9091508190611018565b634e487b7160e01b8e52604160045260248efd5b611070915060403d604011610871576108618183611a87565b5085610d9e565b6040513d87823e3d90fd5b634e487b7160e01b87526011600452602487fd5b8980fd5b637bd8dfc760e11b60005260046000fd5b3461011b57602036600319011261011b576110c4611a2c565b6110cc6124b4565b6001600160a01b03168015610a8f576020817fe5693914d19c789bdee50a362998c0bc8d035a835f9871da5d51152f0582c34f926001600160601b0360a01b6001541617600155604051908152a1005b3461011b57602036600319011261011b576004356000526003602052611187604060002061114981611b7f565b60018201546002830154600384015460049094015460405160c080825290968796949560ff9593946001600160a01b03948516941692880190611c23565b9460208701526040860152606085015260018060a01b038116608085015260a01c16151560a08301520390f35b3461011b57600036600319011261011b57600080516020612619833981519152546040516001600160a01b039091168152602090f35b3461011b57604036600319011261011b576004356001600160401b03811161011b5761121a903690600401611b18565b6024356001600160a01b03811692919083900361011b576112396124b4565b82156112b4577fb40573981f6088c2c6d55252227055ccde57ef96fdc623d5665bee381adf6c099261126c368385611ac3565b6020815191012060005260046020526040600020816001600160601b0360a01b8254161790556112a9604051938493604085526040850191611d4c565b9060208301520390a1005b63fbf66df160e01b60005260046000fd5b3461011b57602036600319011261011b576004356112e16124b4565b6103e8811161131b576020817fd10d75876659a287a59a6ccfa2e3fff42f84d94b542837acd30bc184d562de4092600055604051908152a1005b631752ff0760e31b60005260046000fd5b3461011b57602036600319011261011b576004356000526004602052602060018060a01b0360406000205416604051908152f35b3461011b57600036600319011261011b576113796124b4565b60008051602061261983398151915280546001600160a01b031981169091556000906001600160a01b03167f8be0079c531659141344cd1fd0a4f28419497f9722a3daafe3b4186f6b6457e08280a3005b3461011b57606036600319011261011b57602435600435811515820361011b576044356001600160401b03811161011b57611409903690600401611b18565b9290611413611f87565b600092806000526003602052604060002092600484019560ff875460a01c16156103005760028501546001600160a01b031633036102f05760405161145c816101948189611c72565b60208151910120600052600460205260018060a01b03604060002054169360018601805492610e104201928342116102da5760405194636cae7bf760e01b8652600486015283602486015260408560448160008c5af19485156102ce576000908196611780575b50801580611778575b611767578961154c8d61155293600054916127106114f6816114ee8686611d18565b04948d611d18565b04948380611740575b5050848061171d575b50508b7f60335fc6da5dde7dc66197a635e02eb0dafc452a299f77200b64358c94cdb61660806040518481528d6020820152856040820152876060820152a2611d2b565b96611d2b565b9580611714575b6116e2575b505082158015906116d9575b6115b6575b600387015489546020918a916115939133916001600160a01b0390811691166123a8565b6001600080516020612659833981519152556001600160801b0360405191168152f35b8597509060c4916115d884602096979860018060a01b0360038c0154166122e0565b89546115f09087908b906001600160a01b03166122e0565b5490600098899160405197889687956304b5ecb160e21b875260048701526024860152604485015282606485015282608485015260a48401525af19384156116cd578094611681575b505092611593916020947f69ec1e1b1dc6faec077521a67e0f7845b3aae41cdc21616a9794d842541b2df786866001600160801b0360405191168152a291819486808061156f565b909193506020823d6020116116c5575b8161169e60209383611a87565b810103126116c2575092611593916116b7602095611d38565b939194819350611639565b80fd5b3d9150611691565b604051903d90823e3d90fd5b5083151561156a565b60038901548b549496939561170a959394929390916001600160a01b03918216911689612015565b929091898061155e565b50811515611559565b905460015461173992916001600160a01b039182169116611fc3565b8f84611508565b60039091015460015461176092916001600160a01b039182169116611fc3565b8e836114ff565b638d53e55360e01b60005260046000fd5b5085156114cc565b905061179c91955060403d6040116102c7576102b88183611a87565b94908c6114c3565b3461011b57600036600319011261011b577f00000000000000000000000000000000000000000000000000000000000000006001600160a01b031630036117fd5760206040516000805160206126398339815191528152f35b63703e46dd60e11b60005260046000fd5b604036600319011261011b57611822611a2c565b6024356001600160401b03811161011b57611841903690600401611afa565b6001600160a01b037f0000000000000000000000000000000000000000000000000000000000000000163081149081156119ee575b506117fd576118836124b4565b6040516352d1902d60e01b81526001600160a01b0383169290602081600481875afa600091816119ba575b506118c85783634c9c8ce360e01b60005260045260246000fd5b806000805160206126398339815191528592036119a65750813b156119925760008051602061263983398151915280546001600160a01b031916821790557fbc7cd75a20ee27fd9adebab32041f755214dbc6bffa90cc0225b39da2e5c2d3b600080a28151156119785760008083602061011995519101845af43d15611970573d9161195383611aa8565b926119616040519485611a87565b83523d6000602085013e6125b7565b6060916125b7565b50503461198157005b63b398979f60e01b60005260046000fd5b634c9c8ce360e01b60005260045260246000fd5b632a87526960e21b60005260045260246000fd5b9091506020813d6020116119e6575b816119d660209383611a87565b8101031261011b575190856118ae565b3d91506119c9565b600080516020612639833981519152546001600160a01b03161415905083611876565b3461011b57600036600319011261011b576020906000548152f35b600435906001600160a01b038216820361011b57565b35906001600160a01b038216820361011b57565b60c081019081106001600160401b03821117611a7157604052565b634e487b7160e01b600052604160045260246000fd5b90601f801991011681019081106001600160401b03821117611a7157604052565b6001600160401b038111611a7157601f01601f191660200190565b929192611acf82611aa8565b91611add6040519384611a87565b82948184528183011161011b578281602093846000960137010152565b9080601f8301121561011b57816020611b1593359101611ac3565b90565b9181601f8401121561011b578235916001600160401b03831161011b576020838186019501011161011b57565b90600182811c92168015611b75575b6020831014611b5f57565b634e487b7160e01b600052602260045260246000fd5b91607f1691611b54565b9060405191826000825492611b9384611b45565b8084529360018116908115611c015750600114611bba575b50611bb892500383611a87565b565b90506000929192526020600020906000915b818310611be5575050906020611bb89282010138611bab565b6020919350806001915483858901015201910190918492611bcc565b905060209250611bb894915060ff191682840152151560051b82010138611bab565b919082519283825260005b848110611c4f575050826000602080949584010152601f8019910116010190565b80602080928401015182828601015201611c2e565b35908160020b820361011b57565b60009291815491611c8283611b45565b8083529260018116908115611cd85750600114611c9e57505050565b60009081526020812093945091925b838310611cbe575060209250010190565b600181602092949394548385870101520191019190611cad565b915050602093945060ff929192191683830152151560051b010190565b919082018092116102da57565b919082604091031261011b576020825192015190565b818102929181159184041417156102da57565b919082039182116102da57565b51906001600160801b038216820361011b57565b908060209392818452848401376000828201840152601f01601f1916010190565b90359060be198136030182121561011b570190565b356001600160a01b038116810361011b5790565b919060c08382031261011b5760405190611daf82611a56565b8193611dba81611a42565b8352611dc860208201611a42565b6020840152604081013562ffffff8116810361011b576040840152611def60608201611c64565b6060840152611e0060808201611c64565b608084015260a0810135916001600160401b03831161011b5760a092611e269201611afa565b910152565b919082604091031261011b57611b15602083519301611d38565b9060c060a0611b1593600180831b038151168452600180831b03602082015116602085015262ffffff6040820151166040850152606081015160020b6060850152608081015160020b60808501520151918160a08201520190611c23565b92919060209060408552611ec4815160c06040880152610100870190611e45565b9082810151606087015260408101516080870152606081015160a0870152608081015160c087015260a0600180821b039101511660e0860152930152565b60001981146102da5760010190565b6001600160a01b03168015611f715760008051602061261983398151915280546001600160a01b0319811683179091556001600160a01b03167f8be0079c531659141344cd1fd0a4f28419497f9722a3daafe3b4186f6b6457e0600080a3565b631e4fbdf760e01b600052600060045260246000fd5b60026000805160206126598339815191525414611fb257600260008051602061265983398151915255565b633ee5aeb560e01b60005260046000fd5b60405163a9059cbb60e01b60208201526001600160a01b03929092166024830152604480830193909352918152611bb891611fff606483611a87565b61252e565b600160ff1b81146102da5760000390565b93969594909194810160608282031261011b578135906001600160401b03821161011b57612044918301611d96565b916020820135958615159283880361011b5760400135956000526003602052604060002060ff600482015460a01c16156103005761208b6101949160405192838092611c72565b60208151910120600052600460205260018060a01b036040600020541691821580156122d8575b6122cc5787156122b957858711612274578287916120e1935b8a1561226d57505b6001600160a01b03166122e0565b6120ea85612004565b90610e104201938442116102da57600061212591604095865197889687958694630ba73fcf60e31b865260a0600487015260a4860190611e45565b9260248501526044840152836064840152608483015203925af19384156102ce576000918295612231575b50156121e657600090818112156121df5761216b9150612004565b925b60008113156121d657915b831161219157611b159261218b91611d2b565b93611cf5565b60405162461bcd60e51b815260206004820181905260248201527f5377617020636f6e73756d6564206d6f7265207468616e2065787065637465646044820152606490fd5b50600091612178565b509261216d565b600081131561222857925b60009081811215612221576122069150612004565b915b821161219157611b159261221b91611cf5565b93611d2b565b5091612208565b506000926121f1565b919094506040823d604011612265575b8161224e60409383611a87565b810103126116c25750602081519101519338612150565b3d9150612241565b90506120d3565b60405162461bcd60e51b815260206004820152601b60248201527f5377617020616d6f756e7420657863656564732062616c616e636500000000006044820152606490fd5b898711612274578287916120e1936120cb565b50505050509150509190565b5086156120b2565b60405163095ea7b360e01b60208083019182526001600160a01b038516602484015260448084019690965294825292939092600090612320606486611a87565b84519082855af16000513d82612383575b50501561233d57505050565b60405163095ea7b360e01b60208201526001600160a01b03909316602484015260006044808501919091528352611bb892611fff9061237d606482611a87565b8261252e565b9091506123a057506001600160a01b0381163b15155b3880612331565b600114612399565b6040516370a0823160e01b81523060048201526001600160a01b0391909116929091602083602481875afa9283156102ce57600093612480575b506040516370a0823160e01b81523060048201526001600160a01b0391909116939092602084602481885afa9384156102ce5760009461244c575b50828161243b575b5050508161243257505050565b611bb892611fc3565b61244492611fc3565b388082612425565b90936020823d602011612478575b8161246760209383611a87565b810103126116c2575051923861241d565b3d915061245a565b90926020823d6020116124ac575b8161249b60209383611a87565b810103126116c257505191386123e2565b3d915061248e565b600080516020612619833981519152546001600160a01b031633036124d557565b63118cdaa760e01b6000523360045260246000fd5b6040516323b872dd60e01b60208201526001600160a01b039283166024820152929091166044830152606480830193909352918152611bb891611fff608483611a87565b906000602091828151910182855af1156102ce576000513d61258057506001600160a01b0381163b155b61255f5750565b635274afe760e01b60009081526001600160a01b0391909116600452602490fd5b60011415612558565b60ff6000805160206126798339815191525460401c16156125a657565b631afcd79f60e31b60005260046000fd5b906125dd57508051156125cc57602081519101fd5b63d6bda27560e01b60005260046000fd5b8151158061260f575b6125ee575090565b639996b31560e01b60009081526001600160a01b0391909116600452602490fd5b50803b156125e656fe9016d09d72d40fdae2fd8ceac6b6234c7706214fd39c1cd1e609a0528c199300360894a13ba1a3210667c828492db98dca3e2076cc3735a920a3ca505d382bbc9b779b17422d0df92223018b32b4d1fa46e071723d6817e2486d003becc55f00f0c57e16840df040f15088dc2f81fe391c3923bec73e23a9662efc9c229c6a00a264697066735822122025bfe4acba61d1443146793c9878bf71282dfbb19e7c33695977bc82fa2a07ef64736f6c634300081a0033",
  "linkReferences": {},
  "deployedLinkReferences": {}
}