{
  "_format": "hh-sol-artifact-1",
  "contractName": "UniswapV4AdapterProduction",
  "sourceName": "contracts/UniswapV4AdapterProduction.sol",
  "abi": [
    {
      "inputs": [
        {
          "internalType": "address",
          "name": "_poolManager",
          "type": "address"
        }
      ],
      "stateMutability": "nonpayable",
      "type": "constructor"
    },
    {
      "inputs": [],
      "name": "DeadlineExpired",
      "type": "error"
    },
    {
      "inputs": [],
      "name": "InsufficientETH",
      "type": "error"
    },
    {
      "inputs": [],
      "name": "InvalidPoolManager",
      "type": "error"
    },
    {
      "inputs": [],
      "name": "InvalidPosition",
      "type": "error"
    },
    {
      "inputs": [
        {
          "internalType": "address",
          "name": "owner",
          "type": "address"
        }
      ],
      "name": "OwnableInvalidOwner",
      "type": "error"
    },
    {
      "inputs": [
        {
          "internalType": "address",
          "name": "account",
          "type": "address"
        }
      ],
      "name": "OwnableUnauthorizedAccount",
      "type": "error"
    },
    {
      "inputs": [
        {
          "internalType": "uint256",
          "name": "spotPrice",
          "type": "uint256"
        },
        {
          "internalType": "uint256",
          "name": "twapPrice",
          "type": "uint256"
        },
        {
          "internalType": "uint256",
          "name": "deviationBps",
          "type": "uint256"
        }
      ],
      "name": "PriceDeviationTooHigh",
      "type": "error"
    },
    {
      "inputs": [
        {
          "internalType": "address",
          "name": "token",
          "type": "address"
        }
      ],
      "name": "SafeERC20FailedOperation",
      "type": "error"
    },
    {
      "inputs": [],
      "name": "SettleFailed",
      "type": "error"
    },
    {
      "inputs": [
        {
          "internalType": "uint256",
          "name": "amount",
          "type": "uint256"
        },
        {
          "internalType": "uint256",
          "name": "minAmount",
          "type": "uint256"
        }
      ],
      "name": "SlippageCheckFailed",
      "type": "error"
    },
    {
      "inputs": [],
      "name": "TakeFailed",
      "type": "error"
    },
    {
      "inputs": [],
      "name": "Unauthorized",
      "type": "error"
    },
    {
      "anonymous": false,
      "inputs": [
        {
          "indexed": true,
          "internalType": "uint256",
          "name": "id",
          "type": "uint256"
        },
        {
          "indexed": false,
          "internalType": "uint256",
          "name": "fee0",
          "type": "uint256"
        },
        {
          "indexed": false,
          "internalType": "uint256",
          "name": "fee1",
          "type": "uint256"
        },
        {
          "indexed": false,
          "internalType": "uint128",
          "name": "liquidityAdded",
          "type": "uint128"
        }
      ],
      "name": "AutoCompounded",
      "type": "event"
    },
    {
      "anonymous": false,
      "inputs": [
        {
          "indexed": true,
          "internalType": "uint256",
          "name": "id",
          "type": "uint256"
        },
        {
          "indexed": false,
          "internalType": "uint256",
          "name": "amount0",
          "type": "uint256"
        },
        {
          "indexed": false,
          "internalType": "uint256",
          "name": "amount1",
          "type": "uint256"
        }
      ],
      "name": "FeesCollected",
      "type": "event"
    },
    {
      "anonymous": false,
      "inputs": [
        {
          "indexed": true,
          "internalType": "uint256",
          "name": "id",
          "type": "uint256"
        },
        {
          "indexed": false,
          "internalType": "int256",
          "name": "delta",
          "type": "int256"
        }
      ],
      "name": "LiquidityChanged",
      "type": "event"
    },
    {
      "anonymous": false,
      "inputs": [
        {
          "indexed": true,
          "internalType": "uint256",
          "name": "positionId",
          "type": "uint256"
        },
        {
          "indexed": true,
          "internalType": "address",
          "name": "operator",
          "type": "address"
        },
        {
          "indexed": false,
          "internalType": "bool",
          "name": "approved",
          "type": "bool"
        }
      ],
      "name": "OperatorApproved",
      "type": "event"
    },
    {
      "anonymous": false,
      "inputs": [
        {
          "indexed": true,
          "internalType": "address",
          "name": "previousOwner",
          "type": "address"
        },
        {
          "indexed": true,
          "internalType": "address",
          "name": "newOwner",
          "type": "address"
        }
      ],
      "name": "OwnershipTransferred",
      "type": "event"
    },
    {
      "anonymous": false,
      "inputs": [
        {
          "indexed": true,
          "internalType": "uint256",
          "name": "id",
          "type": "uint256"
        },
        {
          "indexed": false,
          "internalType": "uint256",
          "name": "amount0",
          "type": "uint256"
        },
        {
          "indexed": false,
          "internalType": "uint256",
          "name": "amount1",
          "type": "uint256"
        }
      ],
      "name": "PositionBurned",
      "type": "event"
    },
    {
      "anonymous": false,
      "inputs": [
        {
          "indexed": true,
          "internalType": "uint256",
          "name": "id",
          "type": "uint256"
        },
        {
          "indexed": true,
          "internalType": "address",
          "name": "owner",
          "type": "address"
        },
        {
          "indexed": false,
          "internalType": "uint128",
          "name": "liquidity",
          "type": "uint128"
        }
      ],
      "name": "PositionCreated",
      "type": "event"
    },
    {
      "anonymous": false,
      "inputs": [
        {
          "indexed": true,
          "internalType": "bytes32",
          "name": "poolId",
          "type": "bytes32"
        },
        {
          "indexed": false,
          "internalType": "uint160",
          "name": "sqrtPriceX96",
          "type": "uint160"
        },
        {
          "indexed": false,
          "internalType": "uint32",
          "name": "timestamp",
          "type": "uint32"
        }
      ],
      "name": "PriceObservationRecorded",
      "type": "event"
    },
    {
      "anonymous": false,
      "inputs": [
        {
          "indexed": true,
          "internalType": "uint256",
          "name": "oldPositionId",
          "type": "uint256"
        },
        {
          "indexed": true,
          "internalType": "uint256",
          "name": "newPositionId",
          "type": "uint256"
        },
        {
          "indexed": false,
          "internalType": "int24",
          "name": "newTickLower",
          "type": "int24"
        },
        {
          "indexed": false,
          "internalType": "int24",
          "name": "newTickUpper",
          "type": "int24"
        },
        {
          "indexed": false,
          "internalType": "uint128",
          "name": "newLiquidity",
          "type": "uint128"
        }
      ],
      "name": "RangeMoved",
      "type": "event"
    },
    {
      "anonymous": false,
      "inputs": [
        {
          "indexed": true,
          "internalType": "address",
          "name": "pool",
          "type": "address"
        },
        {
          "indexed": false,
          "internalType": "bool",
          "name": "zeroForOne",
          "type": "bool"
        },
        {
          "indexed": false,
          "internalType": "int256",
          "name": "amount0",
          "type": "int256"
        },
        {
          "indexed": false,
          "internalType": "int256",
          "name": "amount1",
          "type": "int256"
        }
      ],
      "name": "SwapExecuted",
      "type": "event"
    },
    {
      "anonymous": false,
      "inputs": [
        {
          "indexed": false,
          "internalType": "uint16",
          "name": "maxDeviationBps",
          "type": "uint16"
        },
        {
          "indexed": false,
          "internalType": "uint32",
          "name": "minWindow",
          "type": "uint32"
        },
        {
          "indexed": false,
          "internalType": "bool",
          "name": "enabled",
          "type": "bool"
        }
      ],
      "name": "TWAPConfigUpdated",
      "type": "event"
    },
    {
      "inputs": [],
      "name": "MAX_OBSERVATIONS",
      "outputs": [
        {
          "internalType": "uint8",
          "name": "",
          "type": "uint8"
        }
      ],
      "stateMutability": "view",
      "type": "function"
    },
    {
      "inputs": [
        {
          "internalType": "uint256",
          "name": "",
          "type": "uint256"
        },
        {
          "internalType": "address",
          "name": "",
          "type": "address"
        }
      ],
      "name": "approvedOperators",
      "outputs": [
        {
          "internalType": "bool",
          "name": "",
          "type": "bool"
        }
      ],
      "stateMutability": "view",
      "type": "function"
    },
    {
      "inputs": [
        {
          "internalType": "uint256",
          "name": "tokenId",
          "type": "uint256"
        },
        {
          "internalType": "uint256",
          "name": "deadline",
          "type": "uint256"
        }
      ],
      "name": "autoCompound",
      "outputs": [
        {
          "internalType": "uint256",
          "name": "fee0",
          "type": "uint256"
        },
        {
          "internalType": "uint256",
          "name": "fee1",
          "type": "uint256"
        },
        {
          "internalType": "uint128",
          "name": "liquidityAdded",
          "type": "uint128"
        }
      ],
      "stateMutability": "nonpayable",
      "type": "function"
    },
    {
      "inputs": [
        {
          "internalType": "uint256",
          "name": "tokenId",
          "type": "uint256"
        },
        {
          "internalType": "uint256",
          "name": "amount0Min",
          "type": "uint256"
        },
        {
          "internalType": "uint256",
          "name": "amount1Min",
          "type": "uint256"
        },
        {
          "internalType": "uint256",
          "name": "deadline",
          "type": "uint256"
        }
      ],
      "name": "burnPosition",
      "outputs": [
        {
          "internalType": "uint256",
          "name": "amount0",
          "type": "uint256"
        },
        {
          "internalType": "uint256",
          "name": "amount1",
          "type": "uint256"
        }
      ],
      "stateMutability": "nonpayable",
      "type": "function"
    },
    {
      "inputs": [
        {
          "internalType": "uint256",
          "name": "tokenId",
          "type": "uint256"
        },
        {
          "internalType": "uint256",
          "name": "deadline",
          "type": "uint256"
        }
      ],
      "name": "collectFees",
      "outputs": [
        {
          "internalType": "uint256",
          "name": "amount0",
          "type": "uint256"
        },
        {
          "internalType": "uint256",
          "name": "amount1",
          "type": "uint256"
        }
      ],
      "stateMutability": "nonpayable",
      "type": "function"
    },
    {
      "inputs": [
        {
          "internalType": "uint256",
          "name": "tokenId",
          "type": "uint256"
        },
        {
          "internalType": "uint128",
          "name": "liq",
          "type": "uint128"
        },
        {
          "internalType": "uint256",
          "name": "amount0Min",
          "type": "uint256"
        },
        {
          "internalType": "uint256",
          "name": "amount1Min",
          "type": "uint256"
        },
        {
          "internalType": "uint256",
          "name": "deadline",
          "type": "uint256"
        }
      ],
      "name": "decreaseLiquidity",
      "outputs": [
        {
          "internalType": "uint256",
          "name": "amount0",
          "type": "uint256"
        },
        {
          "internalType": "uint256",
          "name": "amount1",
          "type": "uint256"
        }
      ],
      "stateMutability": "nonpayable",
      "type": "function"
    },
    {
      "inputs": [
        {
          "components": [
            {
              "internalType": "address",
              "name": "token0",
              "type": "address"
            },
            {
              "internalType": "address",
              "name": "token1",
              "type": "address"
            },
            {
              "internalType": "uint24",
              "name": "fee",
              "type": "uint24"
            },
            {
              "internalType": "int24",
              "name": "tickLower",
              "type": "int24"
            },
            {
              "internalType": "int24",
              "name": "tickUpper",
              "type": "int24"
            },
            {
              "internalType": "bytes",
              "name": "extraData",
              "type": "bytes"
            }
          ],
          "internalType": "struct IAdapter.PoolData",
          "name": "poolData",
          "type": "tuple"
        }
      ],
      "name": "getPoolInfo",
      "outputs": [
        {
          "internalType": "uint160",
          "name": "sqrtPriceX96",
          "type": "uint160"
        },
        {
          "internalType": "int24",
          "name": "tick",
          "type": "int24"
        },
        {
          "internalType": "uint24",
          "name": "protocolFee",
          "type": "uint24"
        },
        {
          "internalType": "uint24",
          "name": "lpFee",
          "type": "uint24"
        }
      ],
      "stateMutability": "view",
      "type": "function"
    },
    {
      "inputs": [
        {
          "components": [
            {
              "internalType": "address",
              "name": "token0",
              "type": "address"
            },
            {
              "internalType": "address",
              "name": "token1",
              "type": "address"
            },
            {
              "internalType": "uint24",
              "name": "fee",
              "type": "uint24"
            },
            {
              "internalType": "int24",
              "name": "tickLower",
              "type": "int24"
            },
            {
              "internalType": "int24",
              "name": "tickUpper",
              "type": "int24"
            },
            {
              "internalType": "bytes",
              "name": "extraData",
              "type": "bytes"
            }
          ],
          "internalType": "struct IAdapter.PoolData",
          "name": "poolData",
          "type": "tuple"
        }
      ],
      "name": "getPoolLiquidity",
      "outputs": [
        {
          "internalType": "uint128",
          "name": "liquidity",
          "type": "uint128"
        }
      ],
      "stateMutability": "view",
      "type": "function"
    },
    {
      "inputs": [
        {
          "internalType": "uint256",
          "name": "tokenId",
          "type": "uint256"
        }
      ],
      "name": "getPositionHealth",
      "outputs": [
        {
          "internalType": "uint256",
          "name": "health",
          "type": "uint256"
        }
      ],
      "stateMutability": "view",
      "type": "function"
    },
    {
      "inputs": [
        {
          "internalType": "uint256",
          "name": "tokenId",
          "type": "uint256"
        }
      ],
      "name": "getPositionInfo",
      "outputs": [
        {
          "internalType": "address",
          "name": "owner",
          "type": "address"
        },
        {
          "internalType": "address",
          "name": "token0",
          "type": "address"
        },
        {
          "internalType": "address",
          "name": "token1",
          "type": "address"
        },
        {
          "internalType": "int24",
          "name": "tickLower",
          "type": "int24"
        },
        {
          "internalType": "int24",
          "name": "tickUpper",
          "type": "int24"
        },
        {
          "internalType": "uint128",
          "name": "liquidity",
          "type": "uint128"
        }
      ],
      "stateMutability": "view",
      "type": "function"
    },
    {
      "inputs": [
        {
          "internalType": "uint256",
          "name": "tokenId",
          "type": "uint256"
        }
      ],
      "name": "getPositionTokens",
      "outputs": [
        {
          "internalType": "address",
          "name": "token0",
          "type": "address"
        },
        {
          "internalType": "address",
          "name": "token1",
          "type": "address"
        }
      ],
      "stateMutability": "view",
      "type": "function"
    },
    {
      "inputs": [
        {
          "internalType": "uint256",
          "name": "tokenId",
          "type": "uint256"
        }
      ],
      "name": "getPositionValue",
      "outputs": [
        {
          "internalType": "uint256",
          "name": "amount0",
          "type": "uint256"
        },
        {
          "internalType": "uint256",
          "name": "amount1",
          "type": "uint256"
        }
      ],
      "stateMutability": "view",
      "type": "function"
    },
    {
      "inputs": [
        {
          "internalType": "bytes32",
          "name": "poolId",
          "type": "bytes32"
        }
      ],
      "name": "getTWAP",
      "outputs": [
        {
          "internalType": "uint160",
          "name": "sqrtPriceX96",
          "type": "uint160"
        },
        {
          "internalType": "bool",
          "name": "isValid",
          "type": "bool"
        }
      ],
      "stateMutability": "view",
      "type": "function"
    },
    {
      "inputs": [
        {
          "internalType": "uint256",
          "name": "tokenId",
          "type": "uint256"
        },
        {
          "internalType": "uint256",
          "name": "amount0",
          "type": "uint256"
        },
        {
          "internalType": "uint256",
          "name": "amount1",
          "type": "uint256"
        },
        {
          "internalType": "uint256",
          "name": "amount0Min",
          "type": "uint256"
        },
        {
          "internalType": "uint256",
          "name": "amount1Min",
          "type": "uint256"
        },
        {
          "internalType": "uint256",
          "name": "deadline",
          "type": "uint256"
        }
      ],
      "name": "increaseLiquidity",
      "outputs": [
        {
          "internalType": "uint128",
          "name": "liquidity",
          "type": "uint128"
        }
      ],
      "stateMutability": "payable",
      "type": "function"
    },
    {
      "inputs": [
        {
          "internalType": "uint256",
          "name": "tokenId",
          "type": "uint256"
        },
        {
          "internalType": "address",
          "name": "caller",
          "type": "address"
        }
      ],
      "name": "isAuthorized",
      "outputs": [
        {
          "internalType": "bool",
          "name": "",
          "type": "bool"
        }
      ],
      "stateMutability": "view",
      "type": "function"
    },
    {
      "inputs": [
        {
          "internalType": "uint256",
          "name": "tokenId",
          "type": "uint256"
        }
      ],
      "name": "isPositionInRange",
      "outputs": [
        {
          "internalType": "bool",
          "name": "inRange",
          "type": "bool"
        }
      ],
      "stateMutability": "view",
      "type": "function"
    },
    {
      "inputs": [],
      "name": "maxPriceDeviationBps",
      "outputs": [
        {
          "internalType": "uint16",
          "name": "",
          "type": "uint16"
        }
      ],
      "stateMutability": "view",
      "type": "function"
    },
    {
      "inputs": [],
      "name": "minTWAPWindow",
      "outputs": [
        {
          "internalType": "uint32",
          "name": "",
          "type": "uint32"
        }
      ],
      "stateMutability": "view",
      "type": "function"
    },
    {
      "inputs": [
        {
          "internalType": "uint256",
          "name": "oldTokenId",
          "type": "uint256"
        },
        {
          "internalType": "int24",
          "name": "newTickLower",
          "type": "int24"
        },
        {
          "internalType": "int24",
          "name": "newTickUpper",
          "type": "int24"
        },
        {
          "internalType": "uint256",
          "name": "amount0Min",
          "type": "uint256"
        },
        {
          "internalType": "uint256",
          "name": "amount1Min",
          "type": "uint256"
        },
        {
          "internalType": "uint256",
          "name": "deadline",
          "type": "uint256"
        }
      ],
      "name": "moveRange",
      "outputs": [
        {
          "internalType": "uint256",
          "name": "newTokenId",
          "type": "uint256"
        },
        {
          "internalType": "uint128",
          "name": "liquidity",
          "type": "uint128"
        }
      ],
      "stateMutability": "nonpayable",
      "type": "function"
    },
    {
      "inputs": [
        {
          "internalType": "bytes[]",
          "name": "calls",
          "type": "bytes[]"
        }
      ],
      "name": "multicall",
      "outputs": [
        {
          "internalType": "bytes[]",
          "name": "results",
          "type": "bytes[]"
        }
      ],
      "stateMutability": "payable",
      "type": "function"
    },
    {
      "inputs": [
        {
          "internalType": "bytes32",
          "name": "",
          "type": "bytes32"
        }
      ],
      "name": "observationCount",
      "outputs": [
        {
          "internalType": "uint8",
          "name": "",
          "type": "uint8"
        }
      ],
      "stateMutability": "view",
      "type": "function"
    },
    {
      "inputs": [
        {
          "internalType": "bytes32",
          "name": "",
          "type": "bytes32"
        }
      ],
      "name": "observationIndex",
      "outputs": [
        {
          "internalType": "uint8",
          "name": "",
          "type": "uint8"
        }
      ],
      "stateMutability": "view",
      "type": "function"
    },
    {
      "inputs": [
        {
          "components": [
            {
              "components": [
                {
                  "internalType": "address",
                  "name": "token0",
                  "type": "address"
                },
                {
                  "internalType": "address",
                  "name": "token1",
                  "type": "address"
                },
                {
                  "internalType": "uint24",
                  "name": "fee",
                  "type": "uint24"
                },
                {
                  "internalType": "int24",
                  "name": "tickLower",
                  "type": "int24"
                },
                {
                  "internalType": "int24",
                  "name": "tickUpper",
                  "type": "int24"
                },
                {
                  "internalType": "bytes",
                  "name": "extraData",
                  "type": "bytes"
                }
              ],
              "internalType": "struct IAdapter.PoolData",
              "name": "pool",
              "type": "tuple"
            },
            {
              "internalType": "uint256",
              "name": "amount0Desired",
              "type": "uint256"
            },
            {
              "internalType": "uint256",
              "name": "amount1Desired",
              "type": "uint256"
            },
            {
              "internalType": "uint256",
              "name": "amount0Min",
              "type": "uint256"
            },
            {
              "internalType": "uint256",
              "name": "amount1Min",
              "type": "uint256"
            },
            {
              "internalType": "address",
              "name": "recipient",
              "type": "address"
            }
          ],
          "internalType": "struct IAdapter.LiquidityParams",
          "name": "params",
          "type": "tuple"
        },
        {
          "internalType": "uint256",
          "name": "deadline",
          "type": "uint256"
        }
      ],
      "name": "openPosition",
      "outputs": [
        {
          "internalType": "uint256",
          "name": "dexTokenId",
          "type": "uint256"
        },
        {
          "internalType": "uint128",
          "name": "liquidity",
          "type": "uint128"
        }
      ],
      "stateMutability": "payable",
      "type": "function"
    },
    {
      "inputs": [],
      "name": "owner",
      "outputs": [
        {
          "internalType": "address",
          "name": "",
          "type": "address"
        }
      ],
      "stateMutability": "view",
      "type": "function"
    },
    {
      "inputs": [],
      "name": "poolManager",
      "outputs": [
        {
          "internalType": "contract IPoolManager",
          "name": "",
          "type": "address"
        }
      ],
      "stateMutability": "view",
      "type": "function"
    },
    {
      "inputs": [
        {
          "internalType": "uint256",
          "name": "",
          "type": "uint256"
        }
      ],
      "name": "positions",
      "outputs": [
        {
          "components": [
            {
              "internalType": "Currency",
              "name": "currency0",
              "type": "address"
            },
            {
              "internalType": "Currency",
              "name": "currency1",
              "type": "address"
            },
            {
              "internalType": "uint24",
              "name": "fee",
              "type": "uint24"
            },
            {
              "internalType": "int24",
              "name": "tickSpacing",
              "type": "int24"
            },
            {
              "internalType": "contract IHooks",
              "name": "hooks",
              "type": "address"
            }
          ],
          "internalType": "struct PoolKey",
          "name": "key",
          "type": "tuple"
        },
        {
          "internalType": "address",
          "name": "owner",
          "type": "address"
        },
        {
          "internalType": "int24",
          "name": "tickLower",
          "type": "int24"
        },
        {
          "internalType": "int24",
          "name": "tickUpper",
          "type": "int24"
        },
        {
          "internalType": "uint128",
          "name": "liquidity",
          "type": "uint128"
        }
      ],
      "stateMutability": "view",
      "type": "function"
    },
    {
      "inputs": [
        {
          "internalType": "bytes32",
          "name": "",
          "type": "bytes32"
        },
        {
          "internalType": "uint256",
          "name": "",
          "type": "uint256"
        }
      ],
      "name": "priceObservations",
      "outputs": [
        {
          "internalType": "uint160",
          "name": "sqrtPriceX96",
          "type": "uint160"
        },
        {
          "internalType": "uint32",
          "name": "timestamp",
          "type": "uint32"
        }
      ],
      "stateMutability": "view",
      "type": "function"
    },
    {
      "inputs": [
        {
          "components": [
            {
              "internalType": "address",
              "name": "token0",
              "type": "address"
            },
            {
              "internalType": "address",
              "name": "token1",
              "type": "address"
            },
            {
              "internalType": "uint24",
              "name": "fee",
              "type": "uint24"
            },
            {
              "internalType": "int24",
              "name": "tickLower",
              "type": "int24"
            },
            {
              "internalType": "int24",
              "name": "tickUpper",
              "type": "int24"
            },
            {
              "internalType": "bytes",
              "name": "extraData",
              "type": "bytes"
            }
          ],
          "internalType": "struct IAdapter.PoolData",
          "name": "poolData",
          "type": "tuple"
        }
      ],
      "name": "recordPriceObservation",
      "outputs": [],
      "stateMutability": "nonpayable",
      "type": "function"
    },
    {
      "inputs": [],
      "name": "renounceOwnership",
      "outputs": [],
      "stateMutability": "nonpayable",
      "type": "function"
    },
    {
      "inputs": [
        {
          "internalType": "uint256",
          "name": "tokenId",
          "type": "uint256"
        },
        {
          "internalType": "address",
          "name": "operator",
          "type": "address"
        },
        {
          "internalType": "bool",
          "name": "approved",
          "type": "bool"
        }
      ],
      "name": "setOperatorApproval",
      "outputs": [],
      "stateMutability": "nonpayable",
      "type": "function"
    },
    {
      "inputs": [
        {
          "internalType": "uint16",
          "name": "_maxDeviationBps",
          "type": "uint16"
        },
        {
          "internalType": "uint32",
          "name": "_minWindow",
          "type": "uint32"
        },
        {
          "internalType": "bool",
          "name": "_enabled",
          "type": "bool"
        }
      ],
      "name": "setTWAPConfig",
      "outputs": [],
      "stateMutability": "nonpayable",
      "type": "function"
    },
    {
      "inputs": [
        {
          "components": [
            {
              "internalType": "address",
              "name": "token0",
              "type": "address"
            },
            {
              "internalType": "address",
              "name": "token1",
              "type": "address"
            },
            {
              "internalType": "uint24",
              "name": "fee",
              "type": "uint24"
            },
            {
              "internalType": "int24",
              "name": "tickLower",
              "type": "int24"
            },
            {
              "internalType": "int24",
              "name": "tickUpper",
              "type": "int24"
            },
            {
              "internalType": "bytes",
              "name": "extraData",
              "type": "bytes"
            }
          ],
          "internalType": "struct IAdapter.PoolData",
          "name": "poolData",
          "type": "tuple"
        },
        {
          "internalType": "bool",
          "name": "zeroForOne",
          "type": "bool"
        },
        {
          "internalType": "int256",
          "name": "amountSpecified",
          "type": "int256"
        },
        {
          "internalType": "uint160",
          "name": "sqrtPriceLimitX96",
          "type": "uint160"
        },
        {
          "internalType": "uint256",
          "name": "deadline",
          "type": "uint256"
        }
      ],
      "name": "swap",
      "outputs": [
        {
          "internalType": "int256",
          "name": "amount0",
          "type": "int256"
        },
        {
          "internalType": "int256",
          "name": "amount1",
          "type": "int256"
        }
      ],
      "stateMutability": "payable",
      "type": "function"
    },
    {
      "inputs": [
        {
          "internalType": "address",
          "name": "newOwner",
          "type": "address"
        }
      ],
      "name": "transferOwnership",
      "outputs": [],
      "stateMutability": "nonpayable",
      "type": "function"
    },
    {
      "inputs": [],
      "name": "twapValidationEnabled",
      "outputs": [
        {
          "internalType": "bool",
          "name": "",
          "type": "bool"
        }
      ],
      "stateMutability": "view",
      "type": "function"
    },
    {
      "inputs": [
        {
          "internalType": "bytes",
          "name": "data",
          "type": "bytes"
        }
      ],
      "name": "unlockCallback",
      "outputs": [
        {
          "internalType": "bytes",
          "name": "",
          "type": "bytes"
        }
      ],
      "stateMutability": "nonpayable",
      "type": "function"
    },
    {
      "stateMutability": "payable",
      "type": "receive"
    }
  ],
  "bytecode": "0x60a0346101a957601f61529a38819003918201601f19168301916001600160401b038311848410176101ae578084926020946040528339810103126101a957516001600160a01b038116908190036101a95733156101935760008054336001600160a01b0319821681178355604051939290916001600160a01b0316907f8be0079c531659141344cd1fd0a4f28419497f9722a3daafe3b4186f6b6457e09080a3660100000000000063012c01f466ffffffffffffff19600754161717600755801561018257608052600180556150d590816101c5823960805181818161034201528181610549015281816108aa01528181610ac801528181610bc801528181611043015281816113710152818161151401528181611636015281816117a5015281816118ce01528181611ac501528181611f72015281816120e701528181612bfe0152818161312a0152818161349a0152818161364b0152818161392501528181613abe01528181613f2a01528181614d1101528181614dce0152614e220152f35b63bc12814760e01b60005260046000fd5b631e4fbdf760e01b600052600060045260246000fd5b600080fd5b634e487b7160e01b600052604160045260246000fdfe6080604052600436101561001b575b361561001957600080fd5b005b60003560e01c806303a3f2ab1461024b57806312d7b2c414610246578063151ab1aa146102415780632ed9666f1461023c5780633ca5252614610237578063519f5099146102325780635d39fe781461022d578063609c6d7f14610228578063647ca8ae146102235780636cae7bf71461021e5780636e075674146102195780636f12fb4d14610214578063715018a61461020f57806378b7c7a31461020a57806379baa1a214610205578063838ac6fd146102005780638da5cb5b146101fb57806391dd7346146101f657806399fbab88146101f1578063a3d1854f146101ec578063a5e9dcd8146101e7578063ac9650d8146101e2578063afa83e68146101dd578063b7f045d9146101d8578063b86a0aaa146101d3578063be7c60c2146101ce578063c9b0aafa146101c9578063d82b5378146101c4578063dc4c90d3146101bf578063dcfd4788146101ba578063e864f64d146101b5578063f2383786146101b0578063f2fde38b146101ab578063f67bffe1146101a65763fae3d4180361000e57611a53565b611a1d565b611990565b611855565b6116f7565b611690565b611620565b6114a9565b6113fc565b611329565b6112fb565b6112a5565b6111e1565b6110d1565b611013565b610fc6565b610f20565b610d82565b610cfd565b610cce565b610cac565b610c86565b610c2d565b610b91565b610b6a565b610a62565b610a3c565b610a08565b6107df565b6106fd565b6106e1565b6106a7565b610662565b6104af565b610266565b6001600160801b0381160361026157565b600080fd5b346102615760a03660031901126102615760043560243561028681610250565b60643591604435608435421161049e576102aa826000526002602052604060002090565b6003810154336001600160a01b039091160361048e5760048101916102e56102d984546001600160801b031690565b6001600160801b031690565b906001600160801b03861691821161047d5761033d966103236000926103156040519384928b8b60208601611bb0565b03601f198101835282610e3c565b604051809881926348c8949160e01b835260048301610d6e565b0381837f00000000000000000000000000000000000000000000000000000000000000006001600160a01b03165af1908115610478576104287f17353b57db63b5560cf61829be56cecd7ee820d06e59f02de8c518bd31ef5f909461043d946103f76103c261042d966103dd9c600091610455575b5060208082518301019101611c68565b9b84919b6103d88e96546001600160801b031690565b611c94565b6001600160801b03166001600160801b0319825416179055565b8054610414908a9033906001600160a01b0316612655565b612655565b6001015433906001600160a01b0316612655565b611cb4565b6040519081529081906020820190565b0390a2604080519182526020820192909252f35b0390f35b61047291503d806000833e61046a8183610e3c565b810190611bfe565b386103b2565b611c5c565b63673f032f60e11b60005260046000fd5b6282b42960e81b60005260046000fd5b631ab7da6b60e01b60005260046000fd5b60c03660031901126102615760243560843560043560643560443560a435421161049e576104e7836000526002602052604060002090565b6003810154909490336001600160a01b039091160361048e578561031561052a9260009561054499610645575b85610625575b6040519586948960208701611cc5565b604051809581926348c8949160e01b835260048301610d6e565b0381837f00000000000000000000000000000000000000000000000000000000000000006001600160a01b03165af192831561047857600461059f610451956105bb9360009161060a575b5060208082518301019101611cf6565b93016103dd846105b683546001600160801b031690565b611d0b565b6040516001600160801b03831681527f17353b57db63b5560cf61829be56cecd7ee820d06e59f02de8c518bd31ef5f9090602090a26040516001600160801b0390911681529081906020820190565b61061f91503d806000833e61046a8183610e3c565b3861058f565b600189015461064090879033906001600160a01b03166126d8565b61051a565b885461065d90859033906001600160a01b03166126d8565b610514565b3461026157602036600319011261026157600435600052600260205260408060002060018060a01b03815416906001808060a01b039101541682519182526020820152f35b34610261576020366003190112610261576004356000526006602052602060ff60406000205416604051908152f35b600091031261026157565b34610261576000366003190112610261576020604051600a8152f35b346102615760203660031901126102615760043560009081526002602081815260409283902060038101548154600183015460049093015486516001600160a01b0380851682529283169581019590955292169483019490945260a084811c840b606084015260b89490941c90920b60808201526001600160801b039091169181019190915260c090f35b908160c09103126102615790565b60243590811515820361026157565b60443590811515820361026157565b3590811515820361026157565b6001600160a01b0381160361026157565b35906107dd826107c1565b565b60a0366003190112610261576004356001600160401b0381116102615761080a903690600401610788565b610812610796565b906044359060643590610824826107c1565b608435421161049e576108a5916108466108416000933690611d82565b612796565b938583146109f55784516001600160a01b03165b8382126109da575b506001600160a01b0382161561099f575b61088b90610315604051938492898960208601611e2d565b604051809381926348c8949160e01b835260048301610d6e565b0381837f00000000000000000000000000000000000000000000000000000000000000006001600160a01b03165af18015610478576109187f2fd02811cd8076705fa320b0187fa94001eb60e494a2fafd9fa9f35cbb8f0e8991600093849161098b575060208082518301019101611c68565b94819481851461097c57602001516001600160a01b03165b81851461097657865b858113610964575b50506040805191151582526020820192909252908101859052806060810161043d565b61096f913390612655565b3880610941565b82610939565b516001600160a01b0316610930565b61047291503d8086833e61046a8183610e3c565b9050818583146109bc575061088b6401000276a45b919050610873565b5061088b73fffd8963efd1fc6a506488495d951d5263988d256109b4565b6109ef906109e783611cb4565b9033906126d8565b38610862565b60208501516001600160a01b031661085a565b34610261576040366003190112610261576020610a32602435600435610a2d826107c1565b611e6e565b6040519015158152f35b34610261576020366003190112610261576020610a5a600435611f44565b604051908152f35b3461026157604036600319011261026157600435602435421161049e57610a93816000526002602052604060002090565b6003810154336001600160a01b039091160361048e57610ac391600060405161052a816103158560208301612097565b0381837f00000000000000000000000000000000000000000000000000000000000000006001600160a01b03165af192831561047857610b3193610b1891600091610455575060208082518301019101611c68565b81936104148296933361040f845460018060a01b031690565b60408051838152602081018590527fa54e6c2fc0861aa9c991b26891d71059d517983b9e84b91020f42609c452eb9d918190810161043d565b3461026157600036600319011261026157602063ffffffff60075460101c16604051908152f35b3461026157602036600319011261026157600435600052600260205261045160406000206003610bec60a0610bc584610e8a565b207f0000000000000000000000000000000000000000000000000000000000000000612881565b505092905001549060020b8160a01c60020b8112159182610c1c575b505060405190151581529081906020820190565b60b81c60020b121590503880610c08565b3461026157600036600319011261026157610c4661290e565b600080546001600160a01b0319811682556001600160a01b03167f8be0079c531659141344cd1fd0a4f28419497f9722a3daafe3b4186f6b6457e08280a3005b3461026157600036600319011261026157602060ff60075460301c166040519015158152f35b3461026157600036600319011261026157602061ffff60075416604051908152f35b34610261576020366003190112610261576004356000526005602052602060ff60406000205416604051908152f35b34610261576000366003190112610261576000546040516001600160a01b039091168152602090f35b60005b838110610d395750506000910152565b8181015183820152602001610d29565b90602091610d6281518092818552858086019101610d26565b601f01601f1916010190565b906020610d7f928181520190610d49565b90565b34610261576020366003190112610261576004356001600160401b0381116102615736602382011215610261578060040135906001600160401b03821161026157366024838301011161026157610451916024610ddf92016120e4565b60405191829182610d6e565b634e487b7160e01b600052604160045260246000fd5b60a081019081106001600160401b03821117610e1c57604052565b610deb565b60c081019081106001600160401b03821117610e1c57604052565b90601f801991011681019081106001600160401b03821117610e1c57604052565b604051906107dd60a083610e3c565b604051906107dd608083610e3c565b604051906107dd606083610e3c565b90604051610e9781610e01565b82546001600160a01b0390811682526001840154808216602084015262ffffff60a082901c16604084015260b81c600290810b6060840152909301549092166080830152565b80516001600160a01b03908116835260208083015182169084015260408083015162ffffff169084015260608083015160020b9084015260809182015116910152565b346102615760203660031901126102615760043560005260026020526101206040600020610f4d81610e8a565b906001600160801b03600460038301549201541690610f6f6040518094610edd565b60018060a01b03811660a08401528060a01c60020b60c084015260b81c60020b60e0830152610100820152f35b602060031982011261026157600435906001600160401b03821161026157610d7f91600401610788565b3461026157608062ffffff80610fec60a0610bc561084136610fe736610f9c565b611d82565b9294916040519560018060a01b0316865260020b6020860152166040840152166060820152f35b346102615761001961103961084161102a36610f9c565b61103261290e565b3690611d82565b60a06110678183207f0000000000000000000000000000000000000000000000000000000000000000612881565b5050509120614379565b602081016020825282518091526040820191602060408360051b8301019401926000915b8383106110a457505050505090565b90919293946020806110c2600193603f198682030187528951610d49565b97019301930191939290611095565b6020366003190112610261576004356001600160401b0381116102615736602382011215610261578060040135906001600160401b038211610261576024810190602436918460051b0101116102615761112a82612212565b9160005b81811061114357604051806104518682611071565b60008061115183858761225c565b906111616040518093819361229d565b0390305af461116e6122ab565b9015611194579060019161118282876122db565b5261118d81866122db565b500161112e565b8051156111a357805190602001fd5b60405162461bcd60e51b8152602060048201526016602482015275135d5b1d1a58d85b1b0e8818d85b1b0819985a5b195960521b6044820152606490fd5b3461026157606036600319011261026157602435600435611201826107c1565b6112096107a5565b6000828152600260205260409020600301549092906001600160a01b0316330361048e5760008281526003602090815260408083206001600160a01b038516845290915290207fc6781b1a6a4632f560084983248b487381decef7bffb8b0705a6109281c3fffd916112a091805460ff191660ff9615159687161790556040519485526001600160a01b0316939081906020820190565b0390a3005b3461026157604036600319011261026157602060ff6112ef6024356004356112cc826107c1565b6000526003845260406000209060018060a01b0316600052602052604060002090565b54166040519015158152f35b34610261576020366003190112610261576113176004356122ef565b60408051928352602083019190915290f35b346102615761134960a061134361084136610fe736610f9c565b20614c32565b600381018091116113f757604051631e2eaeaf60e01b815260048101919091526020816024817f00000000000000000000000000000000000000000000000000000000000000006001600160a01b03165afa8015610478576001600160801b03916000916113c8575b5060405191166001600160801b03168152602090f35b6113ea915060203d6020116113f0575b6113e28183610e3c565b810190612872565b386113b2565b503d6113d8565b611c7e565b346102615760603660031901126102615760043561ffff8116809103610261576024359063ffffffff821690818303610261577fd0c582b11979bb9ba0412264e2ee29ac554e14eab1db1a0e89a544ee82f2c7d29260609261145c6107a5565b61146461290e565b6007549015159265ffffffff00008566ff0000000000008660301b169366ffffffffffffff1916179160101b16171760075560405192835260208301526040820152a1005b3461026157604036600319011261026157600435602435421161049e576114d76114d33383611e6e565b1590565b61048e5761150f9060006040516114f58161031585602083016120af565b604051809481926348c8949160e01b835260048301610d6e565b0381837f00000000000000000000000000000000000000000000000000000000000000006001600160a01b03165af1918215610478576104519261156591600091611605575b506020808251830101910161242e565b909391926115986004611582836000526002602052604060002090565b016103dd846105b683546001600160801b031690565b60408051858152602081018790526001600160801b038416918101919091527feadad33ac6e683cbe4edc4c90bb397154dcdbaf6110d66bcb2a777e5e82b328390606090a2604051938493849160409194936001600160801b039160608501968552602085015216910152565b61161a91503d806000833e61046a8183610e3c565b38611555565b34610261576000366003190112610261576040517f00000000000000000000000000000000000000000000000000000000000000006001600160a01b03168152602090f35b634e487b7160e01b600052603260045260246000fd5b600a82101561168b570190600090565b611665565b34610261576040366003190112610261576004356024359060005260046020526040600020600a82101561026157610451916116cb9161167b565b5054604080516001600160a01b038316815260a09290921c63ffffffff16602083015290918291820190565b6040366003190112610261576004356001600160401b03811161026157611722903690600401610788565b602435421161049e57600061031561088b8361176861175b61174f61174a846117a09961244f565b612464565b6001600160a01b031690565b60208301359033906126d8565b61179061178361174f602061177d858061244f565b01612464565b60408301359033906126d8565b60405192839133602084016124c0565b0381837f00000000000000000000000000000000000000000000000000000000000000006001600160a01b03165af18015610478576117f19160009161180c575b50602080825183010191016125df565b604080519283526001600160801b0391909116602083015290f35b61182191503d806000833e61046a8183610e3c565b386117e1565b602435908160020b820361026157565b604435908160020b820361026157565b35908160020b820361026157565b346102615760c036600319011261026157600435611871611827565b9061187a611837565b916084359160643560a435421161049e576118986114d33384611e6e565b61048e578460020b8360020b121561047d576118c99361052a6000926103156040519384928a8989602087016125fb565b0381837f00000000000000000000000000000000000000000000000000000000000000006001600160a01b03165af1928315610478577fab06ba321fc46d2d366f95e9cd4954232f79b4bec2e44cf230ed55a7057388809361193c9160009161180c5750602080825183010191016125df565b948194919361197387604051938493849160409194936001600160801b0391606085019660020b855260020b602085015216910152565b0390a3604080519182526001600160801b03929092166020820152f35b34610261576020366003190112610261576004356119ad816107c1565b6119b561290e565b6001600160a01b03168015611a0757600080546001600160a01b03198116831782556001600160a01b0316907f8be0079c531659141344cd1fd0a4f28419497f9722a3daafe3b4186f6b6457e09080a3005b631e4fbdf760e01b600052600060045260246000fd5b34610261576020366003190112610261576040611a3b6004356149aa565b82516001600160a01b03909216825215156020820152f35b3461026157608036600319011261026157604435602435600435606435421161049e57611a8a816000526002602052604060002090565b6003810154909290336001600160a01b039091160361048e57611ac09361052a6000926103156040519384928760208501612632565b0381837f00000000000000000000000000000000000000000000000000000000000000006001600160a01b03165af192831561047857611b1593610b1891600091610455575060208082518301019101611c68565b611b4a611b2c826000526002602052604060002090565b60046000918281558260018201558260028201558260038201550155565b60408051838152602081018590527fa7ec78d0de9c0868ed53f940aa8e215f9941a44ad08631ca28ea721abd2ef6de918190810161043d565b60081115611b8d57565b634e487b7160e01b600052602160045260246000fd5b906008821015611b8d5752565b909493926001600160801b0360809360a0840197611bcf856002611ba3565b602085015216604083015260608201520152565b6001600160401b038111610e1c57601f01601f191660200190565b602081830312610261578051906001600160401b038211610261570181601f82011215610261578051611c3081611be3565b92611c3e6040519485610e3c565b8184526020828401011161026157610d7f9160208085019101610d26565b6040513d6000823e3d90fd5b9190826040910312610261576020825192015190565b634e487b7160e01b600052601160045260246000fd5b906001600160801b03809116911603906001600160801b0382116113f757565b600160ff1b81146113f75760000390565b60c0810196959460a09491939092611cde856001611ba3565b60208501526040840152606083015260808201520152565b908160209103126102615751610d7f81610250565b906001600160801b03809116911601906001600160801b0382116113f757565b359062ffffff8216820361026157565b81601f8201121561026157803590611d5282611be3565b92611d606040519485610e3c565b8284526020838301011161026157816000926020809301838601378301015290565b919060c0838203126102615760405190611d9b82610e21565b81938035611da8816107c1565b8352611db6602082016107d2565b6020840152611dc760408201611d2b565b6040840152611dd860608201611847565b6060840152611de960808201611847565b608084015260a0810135916001600160401b0383116102615760a092611e0f9201611d3b565b910152565b6001600160a01b0391821690821603919082116113f757565b926101009295949195611e54610120860197611e4a876005611ba3565b6020870190610edd565b151560c085015260e08401526001600160a01b0316910152565b6000818152600260205260409020600301546001600160a01b0380841691161491908215611e9b57505090565b60009081526003602090815260408083206001600160a01b0390941683529290522060ff9150541690565b600291820b910b0390627fffff198212627fffff8313176113f757565b9060c882029180830460c814901517156113f757565b9061271082029180830461271014901517156113f757565b818102929181159184041417156113f757565b8115611f2e570490565b634e487b7160e01b600052601260045260246000fd5b611f58906000526002602052604060002090565b6003611f96611f70611f6984610e8a565b60a0902090565b7f0000000000000000000000000000000000000000000000000000000000000000612881565b50509290500154611faa8160a01c60020b90565b90611fb58260020b90565b8360020b908112908115612078575b506120705760b81c60020b90611fda8183611ec6565b60020b92831561206757611ff1611ff79282611ec6565b92611ec6565b8060020b8260020b1260001461206057505b60020b6000811261205757905b600080821261205057505b80156120495761203361203892611ee3565b611f24565b906064821161204357565b60649150565b5050606490565b9050612021565b50600090612016565b9050612009565b50505050606490565b505050600090565b905061209061208a8360b81c60020b90565b60020b90565b1238611fc4565b9190602060408401936120ab816003611ba3565b0152565b9190602060408401936120ab816006611ba3565b3590600882101561026157565b9081602091031261026157610d7f906120c3565b907f00000000000000000000000000000000000000000000000000000000000000006001600160a01b0316330361048e57612121818301836120d0565b61212a81611b83565b80156121f15761213981611b83565b600181146121e75761214a81611b83565b600281146121dd5761215b81611b83565b600381146121d35761216c81611b83565b600481146121c95761217d81611b83565b600581146121bf5761218e81611b83565b600681146121b557806121a2600792611b83565b146121ac57600080fd5b610d7f91613e94565b50610d7f91613a58565b50610d7f916138c3565b50610d7f9161376e565b50610d7f916135df565b50610d7f916133ec565b50610d7f91613102565b50610d7f91612bda565b6001600160401b038111610e1c5760051b60200190565b9061221c826121fb565b6122296040519182610e3c565b828152809261223a601f19916121fb565b019060005b82811061224b57505050565b80606060208093850101520161223f565b919081101561168b5760051b81013590601e19813603018212156102615701908135916001600160401b038311610261576020018236038113610261579190565b908092918237016000815290565b3d156122d6573d906122bc82611be3565b916122ca6040519384610e3c565b82523d6000602084013e565b606090565b805182101561168b5760209160051b010190565b612303906000526002602052604060002090565b906001600160801b0361232060048401546001600160801b031690565b168015612425576003612338611f70611f6986610e8a565b5050509301546123636123546123596123548460a01c60020b90565b6144ac565b9260b81c60020b90565b6001600160a01b03858116919083169081831161239e5750600095610d7f94936001600160a01b0393506123979250611e14565b16906147d5565b92956001600160a01b038416949391928581106123e5575050906123c96123df95966123cf93611e14565b936147d5565b916001600160a01b0316906148af565b90600090565b81935094612406610d7f966124006124169461239796611e14565b926147d5565b906001600160a01b0316856148af565b956001600160a01b0392611e14565b50600091508190565b908160609103126102615780519160406020830151920151610d7f81610250565b90359060be1981360301821215610261570190565b35610d7f816107c1565b9035601e19823603018112156102615701602081359101916001600160401b03821161026157813603831361026157565b908060209392818452848401376000828201840152601f01601f1916010190565b906124cc826000611ba3565b6001600160a01b03166020820152606060408201528135903683900360be1901821215610261576101006125d160a06125a361259087610d7f970160c060608801528035612519816107c1565b600180861b03166101208801526020810135612534816107c1565b600180861b031661014088015262ffffff61255160408301611d2b565b1661016088015261256460608201611847565b60020b61018088015261258761257c60808301611847565b60020b6101a0890152565b8381019061246e565b60c06101c08801526101e087019161249f565b9560208101356080860152604081013582860152606081013560c0860152608081013560e0860152016107d2565b6001600160a01b0316910152565b91908260409103126102615760208251920151610d7f81610250565b60c0810196959460a09491939092612614856007611ba3565b602085015260020b604084015260020b606083015260808201520152565b60808101949392606092612647836004611ba3565b602083015260408201520152565b919081156126d3576001600160a01b0383166126c1576000809350809281925af161267e6122ab565b501561268657565b60405162461bcd60e51b8152602060048201526013602482015272115512081d1c985b9cd9995c8819985a5b1959606a1b6044820152606490fd5b6107dd926001600160a01b0316614baf565b505050565b82156126d3576001600160a01b03811661270757505034106126f657565b631a84bc4160e21b60005260046000fd5b6040516323b872dd60e01b60208201526001600160a01b0390921660248301523060448301526064808301939093529181526107dd91612748608483610e3c565b6001600160a01b0316614ef4565b6040519061276382610e01565b60006080838281528260208201528260408201528260608201520152565b908160209103126102615751610d7f816107c1565b61279e612756565b5060a0810151805190602082106128665761174f81602080610d7f956127c79501019101612781565b8251612856906127df906001600160a01b031661174f565b9361284c61280960406127fe61174f602086015160018060a01b031690565b93015162ffffff1690565b61284061281582614bef565b93612830612821610e5d565b6001600160a01b03909a168a52565b6001600160a01b03166020890152565b62ffffff166040870152565b60020b6060850152565b6001600160a01b03166080830152565b5050610d7f60006127c7565b90816020910312610261575190565b919061288e602091614c32565b604051631e2eaeaf60e01b8152600481019190915292839060249082906001600160a01b03165afa918215610478576000926128ed575b506001600160a01b0382169160a081901c60020b9162ffffff60b883901c81169260d01c1690565b61290791925060203d6020116113f0576113e28183610e3c565b90386128c5565b6000546001600160a01b0316330361292257565b63118cdaa760e01b6000523360045260246000fd5b90916060828403126102615761294c826120c3565b92602083013561295b816107c1565b926040810135906001600160401b03821161026157019060c082820312610261576040519161298983610e21565b80356001600160401b0381116102615760a0926129a7918301611d82565b83526020810135602084015260408101356040840152606081013560608401526080810135608084015201356129dc816107c1565b60a082015290565b90610160926129f683612a2493610edd565b8051600290810b60a08501526020820151900b60c0840152604081015160e084015260600151610100830152565b61014061012082015260006101408201520190565b600f0b6f7fffffffffffffffffffffffffffffff1981146113f75760000390565b60001981146113f75760010190565b8151805182546001600160a01b0319166001600160a01b03919091161782556107dd92600491612bbd91608091612b2c9060208101516001880180546001600160a01b0319166001600160a01b0392909216919091178155612b05906040830151815462ffffff60a01b191660a09190911b62ffffff60a01b1617606084015160b81b62ffffff60b81b1662ffffff60b81b1991909116179055565b8301516002870180546001600160a01b0319166001600160a01b0392909216919091179055565b60208101516003860180546001600160a01b0319166001600160a01b03909216919091178155612baf90612b8a612b67604085015160020b90565b828054909162ffffff60a01b1990911660a09190911b62ffffff60a01b16179055565b6060830151815460b89190911b62ffffff60b81b1662ffffff60b81b19909116179055565b01516001600160801b031690565b9101906001600160801b03166001600160801b0319825416179055565b612be691810190612937565b915060018060a01b031690612bfb8151612796565b917f000000000000000000000000000000000000000000000000000000000000000092612c2b60a0822085612881565b5050506001600160a01b03811615613026575b6001600160a01b038116613014575b6000612c6161235460608751015160020b90565b6040612d01612c90612c7b61235460808b51015160020b90565b9560208a0196875190858c0196875193614c6c565b988851612cd1612cb26080612ca9606085015160020b90565b93015160020b90565b612cc7612cbd610e6c565b93849060020b9052565b60020b6020830152565b6001600160801b038b16848201528560608201528351958680948193632d35e7ed60e11b83528b600484016129e4565b03926001600160a01b03165af191821561047857600092612fe2575b50600080918360801d80600f0b928084129384600014612fa55750506102d96102d9612d4892612a39565b8651909390612d669085906001600160a01b0316614d9f565b614d9f565b84600f0b90600082129586600014612f655750506102d96102d9612d8992612a39565b6020870151909590612da59087906001600160a01b0316614d9f565b8280612f5b575b612f4157508380612f37575b612f1d575080612f10575b612ef1575080612ee4575b612ec1575090612e62610d7f9392612e3a60015494612df4612def87612a5a565b600155565b51612e30612e0b6080612ca9606085015160020b90565b91612e14610e5d565b9485526001600160a01b038716602086015260020b6040850152565b60020b6060830152565b6001600160801b0386166080820152612e5d846000526002602052604060002090565b612a69565b6040516001600160801b038516815282907f9ae0e187a8be558060c9d93c50eb329b8c990d5742b772271bd8f3ff29a1d8f590602090a3610315604051938492602084019092916001600160801b036020916040840195845216910152565b6080840151630a8f6c8d60e41b60005260049190915260245260446000fd5b6000fd5b5060808401518110612dce565b6060860151630a8f6c8d60e41b60005260049190915260245260446000fd5b5060608601518110612dc3565b51630a8f6c8d60e41b600052600485905260245260446000fd5b5080518511612db8565b51630a8f6c8d60e41b600052600484905260245260446000fd5b5080518411612dac565b909691600012612f76575b50612da5565b60208801516001600160801b03919091169650612f9f9087908a906001600160a01b0316614d08565b38612f70565b908095929113612fb6575b50612d66565b87516001600160801b03919091169450612fdc9085908a906001600160a01b0316614d08565b38612fb0565b61300591925060403d60401161300d575b612ffd8183610e3c565b810190611c68565b509038612d1d565b503d612ff3565b6130218160a08420614c58565b612c4d565b50600160601b612c3e565b91908260c091031261026157613046826120c3565b9160208101359160408201359160608101359160a0608083013592013590565b6130ef610d7f9360026101409460018060a01b038154168552600181015460018060a01b038116602087015262ffffff8160a01c16604087015260b81c820b6060860152015460018060a01b031660018060a01b0316608084015260a083019060608091805160020b8452602081015160020b6020850152604081015160408501520151910152565b8161012082015201602090600081520190565b90810161310e91613031565b93613126919295506000526002602052604060002090565b90817f000000000000000000000000000000000000000000000000000000000000000061315282610e8a565b60a090206131609082612881565b5050509460038301958654986131798a60a01c60020b90565b92613183846144ac565b9a60b81c60020b9a6131948c6144ac565b9061319e94614c6c565b976131a7610e6c565b60029290920b825260020b60208201526001600160801b0388166040820152606081016000905260405180958192632d35e7ed60e11b835260048301916131ed92613066565b6001600160a01b039093169203815a604094600091f192831561047857600093613393575b50600080918460801d80600f0b92808412938460001461334d5750506102d96102d961323d92612a39565b81549093906132569085906001600160a01b0316614d9f565b85600f0b966000881296876000146132f55750505061329390612d616132836102d96102d960019a612a39565b978892015460018060a01b031690565b806132ec575b6132cc575050806132e3575b6132cc575050604080516001600160801b039092166020830152610d7f9082908101610315565b630a8f6c8d60e41b60005260045260245260446000fd5b508181106132a5565b50818110613299565b909197600012613308575b505050613293565b600192909201546001600160801b0390921696506133459187919061333f906001600160a01b03165b91546001600160a01b031690565b90614d08565b388080613300565b90809592911361335e575b50613256565b82546001600160801b0391909116945061338d9085906001600160a01b031689546001600160a01b031661333f565b38613358565b6133ad91935060403d60401161300d57612ffd8183610e3c565b509138613212565b908160a0910312610261576133c9816120c3565b9160208201359160408101356133de81610250565b916080606083013592013590565b604061340161349492613419948101906133b5565b94929093509590956000526002602052604060002090565b9460038601549061346f61344f6001600160801b0361344861343e8660a01c60020b90565b9560b81c60020b90565b9316611cb4565b9161346561345b610e6c565b94859060020b9052565b60020b6020840152565b8282015260006060820152815180958192632d35e7ed60e11b83528860048401613066565b038160007f00000000000000000000000000000000000000000000000000000000000000006001600160a01b03165af1928315610478576000936135a0575b508260801d600f0b60008082136000146135985750925b600f0b6000808213156135905750935b83613575575b8480613551575b505080831061353857508083106135385750604080516020810192909252810191909152610d7f8160608101610315565b630a8f6c8d60e41b600052600483905260245260446000fd5b6001919091015461356e91906001600160a01b03165b3090614d08565b3884613507565b805461358b9085906001600160a01b0316613567565b613500565b9050936134fa565b9050926134ea565b6135ba91935060403d60401161300d57612ffd8183610e3c565b5091386134d3565b91908260409103126102615760206135d9836120c3565b92013590565b6135ef90613601928101906135c2565b90506000526002602052604060002090565b6136456040600383015461361e612cb26123598360a01c60020b90565b60008282015260006060820152815180938192632d35e7ed60e11b83528660048401613066565b038160007f00000000000000000000000000000000000000000000000000000000000000006001600160a01b03165af1801561047857610d7f91600091613725575b508060801d600f0b600080821360001461371d5750905b600f0b6000808213156137155750925b816136fa575b83806136d9575b50506040805160208101929092528101929092528160608101610315565b600191909101546136f391906001600160a01b0316613567565b38836136bb565b80546137109083906001600160a01b0316613567565b6136b4565b9050926136ae565b90509061369e565b61373e915060403d60401161300d57612ffd8183610e3c565b5038613687565b91908260809103126102615761375a826120c3565b916020810135916060604083013592013590565b6137816134949161379593810190613745565b925093906000526002602052604060002090565b92604060038501546137b76137ad8260a01c60020b90565b9160b81c60020b90565b61346f61344f6104286102d960048b01546001600160801b031690565b8091039161012083126102615760a06137ec836120c3565b93601f1901126102615760405161380281610e01565b6020830135613810816107c1565b81526040830135613820816107c1565b602082015261383160608401611d2b565b604082015261384260808401611847565b606082015260a0830135613855816107c1565b60808201529161386760c082016107b4565b91610d7f61010060e084013593016107d2565b90916138898261014094610edd565b8051151560a0830152602081015160c0830152604001516001600160a01b031660e082015261012061010082018190526000908201520190565b60206138d861391f92613904948101906137d4565b9193506138f06138e9979397610e7b565b9415158552565b838501526001600160a01b03166040830152565b60405180938192633cf3645360e21b8352866004840161387a565b038160007f00000000000000000000000000000000000000000000000000000000000000006001600160a01b03165af1801561047857610d7f91600091613a2c575b508060801d600f0b90600f0b9260008212600014613a08578051613997906001600160a01b031661399184611cb4565b90614d9f565b60008412156139d657602001516139ba906001600160a01b031661399185611cb4565b6040805160208101929092528101929092528160608101610315565b83600081136139e7575b50506139ba565b60209190910151613a0191906001600160a01b0316613567565b38836139e0565b6000821315613997578051613a279083906001600160a01b0316613567565b613997565b613a45915060203d6020116113f0576113e28183610e3c565b38613961565b919082039182116113f757565b6135ef90613a68928101906135c2565b60038101613b04815491613aae613a8f613a858560a01c60020b90565b9460b81c60020b90565b613aa4613a9a610e6c565b95869060020b9052565b60020b6020850152565b60006040840152600060608401527f000000000000000000000000000000000000000000000000000000000000000093604060018060a01b03861694815180958192632d35e7ed60e11b83528560048401613066565b03816000885af192831561047857600093613e2f575b508260801d600f0b6000808213600014613e275750925b600f0b600080821315613e1f5750945b83158015613e04575b86158015613de6575b81613dde575b50613db357613b7490613b6e611f6984610e8a565b90612881565b50505093613b8d85613b88611f6985610e8a565b614c58565b825494613bc98786613ba28960a01c60020b90565b93613bb9613baf866144ac565b9a60b81c60020b90565b99613bc38b6144ac565b91614c6c565b956001600160801b0387169081613c11575b50506040805160208101969096528501969096525050506001600160801b0390911660608201529050610d7f8160808101610315565b92604092613c5392613c2d6000989a979661346561345b610e6c565b848201528660608201528351968780948193632d35e7ed60e11b83528860048401613066565b03925af1801561047857610d7f9561031594600092613d91575b50600080928060801d600081600f0b12613d60575b50600f0b60008112613d2c575b5080871115613d2357613ca29087613a4b565b915b80891115613d1a57613cb69089613a4b565b915b80613cf3575b5081613ccc575b8396613bdb565b613ce56133316001613ceb95015460018060a01b031690565b90612655565b388080613cc5565b8354613d1491906001600160a01b03165b83546001600160a01b0316613ce5565b38613cbe565b50600091613cb8565b50600091613ca4565b613d3e9193506102d96102d991612a39565b6001840154909290613d5a9084906001600160a01b0316614d9f565b38613c8f565b613d729192506102d96102d991612a39565b8454909190613d8b9083906001600160a01b0316614d9f565b38613c82565b613dab91925060403d60401161300d57612ffd8183610e3c565b509038613c6d565b505050505050604051610d7f8161031560208201906000604060608401938281528260208201520152565b905038613b59565b6001840154613dff9089906001600160a01b0316613567565b613b53565b8254613e1a9086906001600160a01b0316613567565b613b4a565b905094613b41565b905092613b31565b613e4991935060403d60401161300d57612ffd8183610e3c565b509138613b1a565b91908260c091031261026157613e66826120c3565b91602081013591613e7960408301611847565b91613e8660608201611847565b9160a0608083013592013590565b613ea490613f7092810190613e51565b929594509092613ebe816000526002602052604060002090565b60038101805494613edf613ed58760a01c60020b90565b9660b81c60020b90565b613f1c613efc6104286102d960048801546001600160801b031690565b91613f12613f08610e6c565b998a9060020b9052565b60020b6020890152565b6040870152600060608701527f000000000000000000000000000000000000000000000000000000000000000095604060018060a01b038816918151809b8192632d35e7ed60e11b83528860048401613066565b03816000855af1988915610478576000996142f3575b506000966000998060801d600f0b600081136142d4575b50600f0b6000811361429a575b5091604061403c6001600160801b039c938b613ffb8e8d611f69613fe98d613b88613fde60009f9e613b6e611f6985610e8a565b505050938492610e8a565b613ff28a6144ac565b613bc3866144ac565b9e8f614015614008610e6c565b60028a900b815293613aa4565b16848201528760608201528351978880948193632d35e7ed60e11b83528c60048401613066565b03925af193841561047857600094614278575b506000966000948060801d600081600f0b12614247575b50600f0b60008112614213575b508088109182801561420a575b6141cc575050506001549761409489612a5a565b60015582546001600160a01b0316916140ab610e5d565b926140b587610e8a565b84526001600160a01b0316602084015260020b604083015260020b60608201526001600160801b038a1660808201526140f8886000526002602052604060002090565b9061410291612a69565b610d7f9761415496611b2c96808211156141c25761411f91613a4b565b925b808211156141b85761413291613a4b565b915b8061419d575b508161417c575b5050506000526002602052604060002090565b610315604051938492602084019092916001600160801b036020916040840195845216910152565b613ce5613331600161419595015460018060a01b031690565b388080614141565b83546141b291906001600160a01b0316613d04565b3861413a565b5050600091614134565b5050600092614121565b612ee09350888684156142025750925b156141fa5750905b630a8f6c8d60e41b600052600452602452604490565b9050906141e4565b9050926141dc565b50808610614080565b6142259195506102d96102d991612a39565b60018601549094906142419086906001600160a01b0316614d9f565b38614073565b6142599199506102d96102d991612a39565b8654909890614272908a906001600160a01b0316614d9f565b38614066565b61429291945060403d60401161300d57612ffd8183610e3c565b50923861404f565b995091848894938a9c938c9d8e9d60018501546142bc9060018060a01b031690565b90306142c792614d08565b50939c5091939450613faa565b86549099506142ed908a906001600160a01b0316613567565b38613f9d565b61430d91995060403d60401161300d57612ffd8183610e3c565b509738613f86565b9190614351578051825460209092015163ffffffff60a01b60a09190911b166001600160c01b03199092166001600160a01b0390911617179055565b634e487b7160e01b600052600060045260246000fd5b60ff60019116019060ff82116113f757565b907f2b7eab7e07c76303b2db788022767249e807d2e91aa20e3dab6fca188b062b399063ffffffff42169083600052600560205260ff6040600020541661445661443361442960ff6143d5896000526006602052604060002090565b5416936144246040516143e9604082610e3c565b6001600160a01b038816815263ffffffff8916602082015261441e836144198d6000526004602052604060002090565b61167b565b90614315565b614367565b60ff600a91160690565b614447876000526005602052604060002090565b9060ff1660ff19825416179055565b600a60ff821610614486575b50604080516001600160a01b0392909216825263ffffffff929092166020820152a2565b6144926144a691614367565b614447866000526006602052604060002090565b38614462565b60020b908160ff1d82810118620d89e881116147c85763ffffffff9192600182167001fffcb933bd6fad37aa2d162d1a59400102600160801b1891600281166147ac575b60048116614790575b60088116614774575b60108116614758575b6020811661473c575b60408116614720575b60808116614704575b61010081166146e8575b61020081166146cc575b61040081166146b0575b6108008116614694575b6110008116614678575b612000811661465c575b6140008116614640575b6180008116614624575b620100008116614608575b6202000081166145ed575b6204000081166145d2575b62080000166145b9575b6000126145b0575b0160201c90565b600019046145a9565b6b048a170391f7dc42444e8fa290910260801c906145a1565b6d2216e584f5fa1ea926041bedfe9890920260801c91614597565b916e5d6af8dedb81196699c329225ee6040260801c9161458c565b916f09aa508b5b7a84e1c677de54f3e99bc90260801c91614581565b916f31be135f97d08fd981231505542fcfa60260801c91614576565b916f70d869a156d2a1b890bb3df62baf32f70260801c9161456c565b916fa9f746462d870fdf8a65dc1f90e061e50260801c91614562565b916fd097f3bdfd2022b8845ad8f792aa58250260801c91614558565b916fe7159475a2c29b7443b29c7fa6e889d90260801c9161454e565b916ff3392b0822b70005940c7a398e4b70f30260801c91614544565b916ff987a7253ac413176f2b074cf7815e540260801c9161453a565b916ffcbe86c7900a88aedcffc83b479aa3a40260801c91614530565b916ffe5dee046a99a2a811c461f1969c30530260801c91614526565b916fff2ea16466c96a3843ec78b326b528610260801c9161451d565b916fff973b41fa98c081472e6896dfb254c00260801c91614514565b916fffcb9843d60f6159c9db58835c9266440260801c9161450b565b916fffe5caca7e10e4e61c3624eaa0941cd00260801c91614502565b916ffff2e50f5f656932ef12357cf3c7fdcc0260801c916144f9565b916ffff97272373d413259a46990580e213a0260801c916144f0565b82614edd565b1561026157565b818102919060001982820991838084109303928084039384600160601b1115610261571461481657600160601b910990828211900360a01b910360601c1790565b50505060601c90565b90606082901b90600019600160601b84099282808510940393808503946148478685116147ce565b146148a8578190600160601b9009818060000316809204600281600302188082026002030280820260020302808202600203028082026002030280820260020302809102600203029360018380600003040190848311900302920304170290565b5091500490565b91818302916000198185099383808610950394808603956148d18786116147ce565b1461492d5790829109818060000316809204600281600302188082026002030280820260020302808202600203028082026002030280820260020302809102600203029360018380600003040190848311900302920304170290565b505091500490565b919082018092116113f757565b90604051604081018181106001600160401b03821117610e1c5760405291546001600160a01b038116835260a01c63ffffffff166020830152565b9063ffffffff8091169116039063ffffffff82116113f757565b60ff6000199116019060ff82116113f757565b6149c86149c1826000526006602052604060002090565b5460ff1690565b9060ff82169060028210614ba4576149ed6149c1826000526005602052604060002090565b4263ffffffff1690600a841015614b905750614a3b614a356020614a2a614a2460005b614419886000526004602052604060002090565b50614942565b015163ffffffff1690565b8261497d565b63ffffffff614a5f614a5660075463ffffffff9060101c1690565b63ffffffff1690565b911610614b8457600092839290835b60ff861682811015614b5957614b0488614afe60ff948a88600196614ab6614ab0614aaa614a2486614419876000526004602052604060002090565b97614997565b60ff1690565b03614b0e575050614af863ffffffff614aef61174f614ae18d5b602089015163ffffffff169061497d565b96516001600160a01b031690565b94168094611f11565b90614935565b97614935565b9601169493614a6e565b614aef61174f614ae1614b54614b4663ffffffff95614419614b35614429614af89a614367565b916000526004602052604060002090565b505460a01c63ffffffff1690565b614ad0565b50945050505091508115614b7a57614b749161174f91611f24565b90600190565b5050600090600090565b50505050600090600090565b614a356020614a2a614a24614a3b94614a10565b505050600090600090565b60405163a9059cbb60e01b60208201526001600160a01b0390921660248301526044808301939093529181526107dd91614bea606483610e3c565b614ef4565b62ffffff1660648114614c2c576101f48114614c2657610bb88114614c205761271014614c1b57603c90565b60c890565b50603c90565b50600a90565b50600190565b604051602081019182526006604082015260408152614c52606082610e3c565b51902090565b906107dd91614c678282614f56565b614379565b936001600160a01b0383811690831611614d00575b6001600160a01b03858116959083168611614ca2575050610d7f935061502d565b919490939192906001600160a01b0382161115614cf4578291614cc991614ccf959461502d565b93614ff3565b6001600160801b0381166001600160801b03831610600014614cef575090565b905090565b915050610d7f92614ff3565b909190614c81565b9082156126d3577f00000000000000000000000000000000000000000000000000000000000000006001600160a01b0316803b1561026157604051630b0d9c0960e01b81526001600160a01b03938416600482015291909216602482015260448101929092526000908290606490829084905af1801561047857614d895750565b80614d9660008093610e3c565b80031261026157565b8115614ed9576001600160a01b038116614e205750604051630476982d60e21b815290602090829060049082907f00000000000000000000000000000000000000000000000000000000000000006001600160a01b03165af1801561047857614e055750565b614e1d9060203d6020116113f0576113e28183610e3c565b50565b7f00000000000000000000000000000000000000000000000000000000000000006001600160a01b0316803b1561026157604051632961046560e21b81526001600160a01b038316600482015260008160248183865af19384156104785782602094614e9d93600097614ebf575b506001600160a01b0316614baf565b600460405180948193630476982d60e21b83525af1801561047857614e055750565b80614ecd89614ed393610e3c565b806106d6565b38614e8e565b5050565b6345c3193d60e11b60005260020b60045260246000fd5b906000602091828151910182855af115611c5c576000513d614f4657506001600160a01b0381163b155b614f255750565b635274afe760e01b60009081526001600160a01b0391909116600452602490fd5b60011415614f1e565b61ffff1690565b906007549160ff8360301c16156126d357614f70906149aa565b919091156126d3576001600160a01b03918216911681811115614fd657614fb1614f4f614fa984612033614fa48287613a4b565b611ef9565b9461ffff1690565b8311614fbc57505050565b63e9b5646f60e01b60005260045260245260445260646000fd5b8082038281116113f757614f4f614fa984612033614fb194611ef9565b610d7f926150229290916001600160a01b0380831690821611615027575b90036001600160a01b03169061481f565b61507a565b90615011565b610d7f92615022929091906001600160a01b0380821690831611615074575b6150626001600160a01b038281169084166147d5565b9190036001600160a01b0316916148af565b9061504c565b906001600160801b03821680920361508e57565b6393dafdf160e01b60005260046000fdfea26469706673582212200dd96788aa8c48b986df433beaf817551aac678c569286f0323d436653e0f15664736f6c634300081a0033",
  "linkReferences": {},
  "deployedLinkReferences": {}
}