{
  "_format": "hh-sol-artifact-1",
  "contractName": "LPManagerV1",
  "sourceName": "contracts/LPManagerV1.sol",
  "abi": [
    {
      "inputs": [],
      "stateMutability": "nonpayable",
      "type": "constructor"
    },
    {
      "inputs": [],
      "name": "AdapterNotFound",
      "type": "error"
    },
    {
      "inputs": [
        {
          "internalType": "address",
          "name": "target",
          "type": "address"
        }
      ],
      "name": "AddressEmptyCode",
      "type": "error"
    },
    {
      "inputs": [
        {
          "internalType": "address",
          "name": "implementation",
          "type": "address"
        }
      ],
      "name": "ERC1967InvalidImplementation",
      "type": "error"
    },
    {
      "inputs": [],
      "name": "ERC1967NonPayable",
      "type": "error"
    },
    {
      "inputs": [],
      "name": "FailedCall",
      "type": "error"
    },
    {
      "inputs": [],
      "name": "InsufficientFees",
      "type": "error"
    },
    {
      "inputs": [],
      "name": "InvalidAdapter",
      "type": "error"
    },
    {
      "inputs": [],
      "name": "InvalidFeeCollector",
      "type": "error"
    },
    {
      "inputs": [],
      "name": "InvalidInitialization",
      "type": "error"
    },
    {
      "inputs": [],
      "name": "InvalidProtocolFee",
      "type": "error"
    },
    {
      "inputs": [],
      "name": "NotInitializing",
      "type": "error"
    },
    {
      "inputs": [
        {
          "internalType": "address",
          "name": "owner",
          "type": "address"
        }
      ],
      "name": "OwnableInvalidOwner",
      "type": "error"
    },
    {
      "inputs": [
        {
          "internalType": "address",
          "name": "account",
          "type": "address"
        }
      ],
      "name": "OwnableUnauthorizedAccount",
      "type": "error"
    },
    {
      "inputs": [],
      "name": "PositionNotFound",
      "type": "error"
    },
    {
      "inputs": [],
      "name": "ReentrancyGuardReentrantCall",
      "type": "error"
    },
    {
      "inputs": [
        {
          "internalType": "address",
          "name": "token",
          "type": "address"
        }
      ],
      "name": "SafeERC20FailedOperation",
      "type": "error"
    },
    {
      "inputs": [],
      "name": "UUPSUnauthorizedCallContext",
      "type": "error"
    },
    {
      "inputs": [
        {
          "internalType": "bytes32",
          "name": "slot",
          "type": "bytes32"
        }
      ],
      "name": "UUPSUnsupportedProxiableUUID",
      "type": "error"
    },
    {
      "inputs": [],
      "name": "Unauthorized",
      "type": "error"
    },
    {
      "anonymous": false,
      "inputs": [
        {
          "indexed": false,
          "internalType": "string",
          "name": "protocol",
          "type": "string"
        },
        {
          "indexed": false,
          "internalType": "address",
          "name": "adapter",
          "type": "address"
        }
      ],
      "name": "AdapterRegistered",
      "type": "event"
    },
    {
      "anonymous": false,
      "inputs": [
        {
          "indexed": true,
          "internalType": "uint256",
          "name": "positionId",
          "type": "uint256"
        },
        {
          "indexed": false,
          "internalType": "uint128",
          "name": "addedLiquidity",
          "type": "uint128"
        }
      ],
      "name": "Compounded",
      "type": "event"
    },
    {
      "anonymous": false,
      "inputs": [
        {
          "indexed": false,
          "internalType": "address",
          "name": "newFeeCollector",
          "type": "address"
        }
      ],
      "name": "FeeCollectorUpdated",
      "type": "event"
    },
    {
      "anonymous": false,
      "inputs": [
        {
          "indexed": true,
          "internalType": "uint256",
          "name": "positionId",
          "type": "uint256"
        },
        {
          "indexed": false,
          "internalType": "uint256",
          "name": "amount0",
          "type": "uint256"
        },
        {
          "indexed": false,
          "internalType": "uint256",
          "name": "amount1",
          "type": "uint256"
        },
        {
          "indexed": false,
          "internalType": "uint256",
          "name": "protocolFee0",
          "type": "uint256"
        },
        {
          "indexed": false,
          "internalType": "uint256",
          "name": "protocolFee1",
          "type": "uint256"
        }
      ],
      "name": "FeesCollected",
      "type": "event"
    },
    {
      "anonymous": false,
      "inputs": [
        {
          "indexed": false,
          "internalType": "uint64",
          "name": "version",
          "type": "uint64"
        }
      ],
      "name": "Initialized",
      "type": "event"
    },
    {
      "anonymous": false,
      "inputs": [
        {
          "indexed": true,
          "internalType": "uint256",
          "name": "positionId",
          "type": "uint256"
        },
        {
          "indexed": false,
          "internalType": "uint128",
          "name": "liquidity",
          "type": "uint128"
        }
      ],
      "name": "LiquidityIncreased",
      "type": "event"
    },
    {
      "anonymous": false,
      "inputs": [
        {
          "indexed": true,
          "internalType": "address",
          "name": "previousOwner",
          "type": "address"
        },
        {
          "indexed": true,
          "internalType": "address",
          "name": "newOwner",
          "type": "address"
        }
      ],
      "name": "OwnershipTransferred",
      "type": "event"
    },
    {
      "anonymous": false,
      "inputs": [
        {
          "indexed": true,
          "internalType": "uint256",
          "name": "positionId",
          "type": "uint256"
        },
        {
          "indexed": false,
          "internalType": "uint256",
          "name": "amount0",
          "type": "uint256"
        },
        {
          "indexed": false,
          "internalType": "uint256",
          "name": "amount1",
          "type": "uint256"
        }
      ],
      "name": "PositionClosed",
      "type": "event"
    },
    {
      "anonymous": false,
      "inputs": [
        {
          "indexed": true,
          "internalType": "uint256",
          "name": "positionId",
          "type": "uint256"
        },
        {
          "indexed": true,
          "internalType": "address",
          "name": "owner",
          "type": "address"
        },
        {
          "indexed": false,
          "internalType": "string",
          "name": "protocol",
          "type": "string"
        },
        {
          "indexed": false,
          "internalType": "uint256",
          "name": "dexTokenId",
          "type": "uint256"
        }
      ],
      "name": "PositionOpened",
      "type": "event"
    },
    {
      "anonymous": false,
      "inputs": [
        {
          "indexed": false,
          "internalType": "uint256",
          "name": "newFeeBps",
          "type": "uint256"
        }
      ],
      "name": "ProtocolFeeUpdated",
      "type": "event"
    },
    {
      "anonymous": false,
      "inputs": [
        {
          "indexed": true,
          "internalType": "uint256",
          "name": "oldPositionId",
          "type": "uint256"
        },
        {
          "indexed": true,
          "internalType": "uint256",
          "name": "newPositionId",
          "type": "uint256"
        },
        {
          "indexed": false,
          "internalType": "int24",
          "name": "newTickLower",
          "type": "int24"
        },
        {
          "indexed": false,
          "internalType": "int24",
          "name": "newTickUpper",
          "type": "int24"
        }
      ],
      "name": "RangeMoved",
      "type": "event"
    },
    {
      "anonymous": false,
      "inputs": [
        {
          "indexed": true,
          "internalType": "address",
          "name": "implementation",
          "type": "address"
        }
      ],
      "name": "Upgraded",
      "type": "event"
    },
    {
      "inputs": [],
      "name": "UPGRADE_INTERFACE_VERSION",
      "outputs": [
        {
          "internalType": "string",
          "name": "",
          "type": "string"
        }
      ],
      "stateMutability": "view",
      "type": "function"
    },
    {
      "inputs": [
        {
          "internalType": "bytes32",
          "name": "",
          "type": "bytes32"
        }
      ],
      "name": "adapters",
      "outputs": [
        {
          "internalType": "address",
          "name": "",
          "type": "address"
        }
      ],
      "stateMutability": "view",
      "type": "function"
    },
    {
      "inputs": [
        {
          "internalType": "string",
          "name": "protocol",
          "type": "string"
        },
        {
          "components": [
            {
              "components": [
                {
                  "internalType": "address",
                  "name": "token0",
                  "type": "address"
                },
                {
                  "internalType": "address",
                  "name": "token1",
                  "type": "address"
                },
                {
                  "internalType": "uint24",
                  "name": "fee",
                  "type": "uint24"
                },
                {
                  "internalType": "int24",
                  "name": "tickLower",
                  "type": "int24"
                },
                {
                  "internalType": "int24",
                  "name": "tickUpper",
                  "type": "int24"
                },
                {
                  "internalType": "bytes",
                  "name": "extraData",
                  "type": "bytes"
                }
              ],
              "internalType": "struct IAdapter.PoolData",
              "name": "pool",
              "type": "tuple"
            },
            {
              "internalType": "uint256",
              "name": "amount0Desired",
              "type": "uint256"
            },
            {
              "internalType": "uint256",
              "name": "amount1Desired",
              "type": "uint256"
            },
            {
              "internalType": "uint256",
              "name": "amount0Min",
              "type": "uint256"
            },
            {
              "internalType": "uint256",
              "name": "amount1Min",
              "type": "uint256"
            },
            {
              "internalType": "address",
              "name": "recipient",
              "type": "address"
            }
          ],
          "internalType": "struct IAdapter.LiquidityParams",
          "name": "params",
          "type": "tuple"
        }
      ],
      "name": "addLiquidity",
      "outputs": [
        {
          "internalType": "uint256",
          "name": "positionId",
          "type": "uint256"
        }
      ],
      "stateMutability": "nonpayable",
      "type": "function"
    },
    {
      "inputs": [
        {
          "internalType": "uint256",
          "name": "positionId",
          "type": "uint256"
        },
        {
          "internalType": "uint128",
          "name": "liquidity",
          "type": "uint128"
        }
      ],
      "name": "closePosition",
      "outputs": [],
      "stateMutability": "nonpayable",
      "type": "function"
    },
    {
      "inputs": [
        {
          "internalType": "uint256",
          "name": "positionId",
          "type": "uint256"
        }
      ],
      "name": "collectFees",
      "outputs": [],
      "stateMutability": "nonpayable",
      "type": "function"
    },
    {
      "inputs": [
        {
          "internalType": "uint256",
          "name": "positionId",
          "type": "uint256"
        },
        {
          "internalType": "bool",
          "name": "doSwap",
          "type": "bool"
        },
        {
          "internalType": "bytes",
          "name": "swapData",
          "type": "bytes"
        }
      ],
      "name": "compound",
      "outputs": [
        {
          "internalType": "uint128",
          "name": "addedLiquidity",
          "type": "uint128"
        }
      ],
      "stateMutability": "nonpayable",
      "type": "function"
    },
    {
      "inputs": [
        {
          "internalType": "uint256",
          "name": "positionId",
          "type": "uint256"
        },
        {
          "internalType": "uint128",
          "name": "liquidity",
          "type": "uint128"
        },
        {
          "internalType": "uint256",
          "name": "amount0Min",
          "type": "uint256"
        },
        {
          "internalType": "uint256",
          "name": "amount1Min",
          "type": "uint256"
        }
      ],
      "name": "decreaseLiquidity",
      "outputs": [],
      "stateMutability": "nonpayable",
      "type": "function"
    },
    {
      "inputs": [],
      "name": "feeCollector",
      "outputs": [
        {
          "internalType": "address",
          "name": "",
          "type": "address"
        }
      ],
      "stateMutability": "view",
      "type": "function"
    },
    {
      "inputs": [
        {
          "internalType": "string",
          "name": "protocol",
          "type": "string"
        }
      ],
      "name": "getAdapter",
      "outputs": [
        {
          "internalType": "address",
          "name": "",
          "type": "address"
        }
      ],
      "stateMutability": "view",
      "type": "function"
    },
    {
      "inputs": [
        {
          "internalType": "uint256",
          "name": "positionId",
          "type": "uint256"
        },
        {
          "internalType": "uint256",
          "name": "amount0",
          "type": "uint256"
        },
        {
          "internalType": "uint256",
          "name": "amount1",
          "type": "uint256"
        },
        {
          "internalType": "uint256",
          "name": "amount0Min",
          "type": "uint256"
        },
        {
          "internalType": "uint256",
          "name": "amount1Min",
          "type": "uint256"
        }
      ],
      "name": "increaseLiquidity",
      "outputs": [],
      "stateMutability": "nonpayable",
      "type": "function"
    },
    {
      "inputs": [
        {
          "internalType": "address",
          "name": "_feeCollector",
          "type": "address"
        }
      ],
      "name": "initialize",
      "outputs": [],
      "stateMutability": "nonpayable",
      "type": "function"
    },
    {
      "inputs": [
        {
          "internalType": "uint256",
          "name": "oldPositionId",
          "type": "uint256"
        },
        {
          "internalType": "int24",
          "name": "newTickLower",
          "type": "int24"
        },
        {
          "internalType": "int24",
          "name": "newTickUpper",
          "type": "int24"
        },
        {
          "internalType": "bool",
          "name": "doSwap",
          "type": "bool"
        },
        {
          "internalType": "bytes",
          "name": "swapData",
          "type": "bytes"
        }
      ],
      "name": "moveRange",
      "outputs": [
        {
          "internalType": "uint256",
          "name": "newPositionId",
          "type": "uint256"
        }
      ],
      "stateMutability": "nonpayable",
      "type": "function"
    },
    {
      "inputs": [],
      "name": "owner",
      "outputs": [
        {
          "internalType": "address",
          "name": "",
          "type": "address"
        }
      ],
      "stateMutability": "view",
      "type": "function"
    },
    {
      "inputs": [
        {
          "internalType": "uint256",
          "name": "",
          "type": "uint256"
        }
      ],
      "name": "positions",
      "outputs": [
        {
          "internalType": "string",
          "name": "protocol",
          "type": "string"
        },
        {
          "internalType": "uint256",
          "name": "dexTokenId",
          "type": "uint256"
        },
        {
          "internalType": "address",
          "name": "owner",
          "type": "address"
        },
        {
          "internalType": "address",
          "name": "token0",
          "type": "address"
        },
        {
          "internalType": "address",
          "name": "token1",
          "type": "address"
        },
        {
          "internalType": "bool",
          "name": "active",
          "type": "bool"
        }
      ],
      "stateMutability": "view",
      "type": "function"
    },
    {
      "inputs": [],
      "name": "protocolFeeBps",
      "outputs": [
        {
          "internalType": "uint256",
          "name": "",
          "type": "uint256"
        }
      ],
      "stateMutability": "view",
      "type": "function"
    },
    {
      "inputs": [],
      "name": "proxiableUUID",
      "outputs": [
        {
          "internalType": "bytes32",
          "name": "",
          "type": "bytes32"
        }
      ],
      "stateMutability": "view",
      "type": "function"
    },
    {
      "inputs": [
        {
          "internalType": "uint256",
          "name": "positionId",
          "type": "uint256"
        }
      ],
      "name": "reactivatePosition",
      "outputs": [],
      "stateMutability": "nonpayable",
      "type": "function"
    },
    {
      "inputs": [
        {
          "internalType": "string",
          "name": "protocol",
          "type": "string"
        },
        {
          "internalType": "address",
          "name": "adapter",
          "type": "address"
        }
      ],
      "name": "registerAdapter",
      "outputs": [],
      "stateMutability": "nonpayable",
      "type": "function"
    },
    {
      "inputs": [],
      "name": "renounceOwnership",
      "outputs": [],
      "stateMutability": "nonpayable",
      "type": "function"
    },
    {
      "inputs": [
        {
          "internalType": "address",
          "name": "newFeeCollector",
          "type": "address"
        }
      ],
      "name": "setFeeCollector",
      "outputs": [],
      "stateMutability": "nonpayable",
      "type": "function"
    },
    {
      "inputs": [
        {
          "internalType": "uint256",
          "name": "newFeeBps",
          "type": "uint256"
        }
      ],
      "name": "setProtocolFee",
      "outputs": [],
      "stateMutability": "nonpayable",
      "type": "function"
    },
    {
      "inputs": [
        {
          "internalType": "address",
          "name": "newOwner",
          "type": "address"
        }
      ],
      "name": "transferOwnership",
      "outputs": [],
      "stateMutability": "nonpayable",
      "type": "function"
    },
    {
      "inputs": [
        {
          "internalType": "address",
          "name": "newImplementation",
          "type": "address"
        },
        {
          "internalType": "bytes",
          "name": "data",
          "type": "bytes"
        }
      ],
      "name": "upgradeToAndCall",
      "outputs": [],
      "stateMutability": "payable",
      "type": "function"
    }
  ],
  "bytecode": "0x60a080604052346100ea57306080527ff0c57e16840df040f15088dc2f81fe391c3923bec73e23a9662efc9c229c6a005460ff8160401c166100d9576002600160401b03196001600160401b03821601610073575b604051612bd990816100f08239608051818181611b530152611be70152f35b6001600160401b0319166001600160401b039081177ff0c57e16840df040f15088dc2f81fe391c3923bec73e23a9662efc9c229c6a005581527fc7f505b2f371ae2175ee4913f4499e1f2633a7b5936321eed1cdaeb6115181d290602090a13880610054565b63f92ee8a960e01b60005260046000fd5b600080fdfe608080604052600436101561001357600080fd5b60003560e01c90816335659fb814611eb9575080633f8564dd14611dad5780634f1ef28614611baa57806352d1902d14611b4057806356811d8414611766578063715018a6146116fc57806372c6838f146116c8578063787dce3d1461166157806379be938d146115865780638da5cb5b146115505780638e5f59771461143957806399fbab88146113a1578063a42dce8014611330578063a467fa3814610e2f578063ad3cb1cc14610de4578063b17acdcd14610c95578063bc4c221214610c34578063c415b95c14610c0b578063c4d66de8146109fc578063c691b0a114610849578063c8a20504146103e8578063d224f6fe1461014c5763f2fde38b1461011c57600080fd5b3461014757602036600319011261014757610145610138611ed4565b610140612472565b6123fc565b005b600080fd5b3461014757604036600319011261014757600435610168611fe6565b906101716124a8565b8060005260036020526040600020600481019160ff835460a01c16156103d75760028201546001600160a01b031633036103c7576040516101bd816101b68186612129565b0382611f19565b60208151910120600052600460205260018060a01b03604060002054166001830194855490610e104201908142116103b1576001600160801b0390604051936303a3f2ab60e01b855260048501521660248301526000604483015260006064830152608482015260408160a4816000865af19586156103325760009160009761037b575b5060c0908261035b575b8761033e575b5460246040518095819363519f509960e01b835260048301525afa908115610332576102d9966001600160801b036040937f74c8f0c73d3900d6e7ac43e66f3bc9ff789fb82245f839c795d0e3163ac6e308956000916102fd575b5016156102ed575b82519182526020820152a260030154905433916001600160a01b0391821691166128c9565b6001600080516020612b6483398151915255005b865460ff60a01b191687556102b4565b61031f915060c03d60c01161032b575b6103178183611f19565b8101906121e2565b9450505050508a6102ac565b503d61030d565b6040513d6000823e3d90fd5b865461035690899033906001600160a01b03166124e4565b610251565b600386015461037690849033906001600160a01b03166124e4565b61024b565b6103a291975060c0925060403d6040116103aa575b61039a8183611f19565b810190612260565b969091610241565b503d610390565b634e487b7160e01b600052601160045260246000fd5b6282b42960e81b60005260046000fd5b636ec9be1160e01b60005260046000fd5b346101475760a0366003190112610147576024358060020b8103610147576044358060020b81036101475761041b611faa565b506084356001600160401b0381116101475761043b903690600401611fb9565b50506104456124a8565b6004356000526003602052604060002060ff600482015460a01c16156103d75760028101546001600160a01b031633036103c75760405161048a816101b68185612129565b60208151910120600052600460205260018060a01b0360406000205416906001810154610e1042018042116103b15760c460409260008451968794859363791c1bc360e11b855260048501528a60020b60248501528960020b604485015282606485015282608485015260a48401525af191821561033257600092610817575b506004818101805460ff60a01b1916905560408051600080825260208201529135917f74c8f0c73d3900d6e7ac43e66f3bc9ff789fb82245f839c795d0e3163ac6e3089190a26002549261055d846123ed565b6002556003820154600483015460405194916001600160a01b03918216911661058586611efe565b61058e85612036565b865282602087015233604087015260608601526080850152600160a0850152846000526003602052604060002084518051906001600160401b038211610801576105d88354611ffc565b601f81116107b9575b509160209893918895938a90601f831160011461073f576106a0938361071a9b9460a094600494600092610734575b50508160011b916000199060031b1c19161781555b8c840151600182810191909155604085015160028301805492861b600019019182166001600160601b03871b93841617905560608601516003840180549183169184169190911790556080860151939092018054949095015160ff60a01b90151560a01b169290911692169190911760ff60a01b1916179055565b83600080516020612b24833981519152604051806106c033958a83612237565b0390a36040519160020b825260020b868201527f6dd613c08a18f17f8f023fcf28c1b608fdf2f9f3a9b0768d9293b36246969ae6604060043592a3600381015460049091015433916001600160a01b0391821691166128c9565b6001600080516020612b6483398151915255604051908152f35b015190508f80610610565b9892919082600052806000209960005b601f198416811061079f57509260018361071a9c6004946106a0989760a097601f19811610610786575b505050811b018155610625565b015160001960f88460031b161c191690558f8080610779565b828201518c556001909b019a8c9950918d01918d0161074f565b836000526020600020601f840160051c810191602085106107f7575b601f0160051c01905b8181106107eb57506105e1565b600081556001016107de565b90915081906107d5565b634e487b7160e01b600052604160045260246000fd5b61083a91925060403d604011610842575b6108328183611f19565b810190612375565b50908461050a565b503d610828565b346101475760a0366003190112610147576044356024356108686124a8565b60043560005260036020526040600020600481019160ff835460a01c16156103d75760028201546001600160a01b031633036103c7576040516108af816101b68186612129565b60208151910120600052600460205260018060a01b036040600020541690806109c8575b84610991575b600183015491610e104201928342116103b157600060c492602095604051998a9687956304b5ecb160e21b87526004870152602486015260448501526064356064850152608435608485015260a48401525af1801561033257610956575b6003015490546102d9925033916001600160a01b0391821691166128c9565b6020833d602011610989575b8161096f60209383611f19565b81010312610147576109836102d9936121ce565b50610937565b3d9150610962565b83546109ab908690309033906001600160a01b03166129d5565b83546109c390869084906001600160a01b0316612801565b6108d9565b6109f78183600386016109e88360018060a01b03835416309033906129d5565b546001600160a01b0316612801565b6108d3565b3461014757602036600319011261014757610a15611ed4565b600080516020612b84833981519152549060ff8260401c1615916001600160401b03811680159081610c03575b6001149081610bf9575b159081610bf0575b50610bdf5767ffffffffffffffff198116600117600080516020612b848339815191525582610bb2575b50610a87612a74565b610a8f612a74565b610a97612a74565b610aa0336123fc565b610aa8612a74565b610ab0612a74565b6001600080516020612b64833981519152556001600160a01b03168015610ba157600180546001600160a01b0319168217815560c86000556002556040519081527fe5693914d19c789bdee50a362998c0bc8d035a835f9871da5d51152f0582c34f90602090a17fd10d75876659a287a59a6ccfa2e3fff42f84d94b542837acd30bc184d562de40602060405160c88152a1610b4857005b68ff000000000000000019600080516020612b848339815191525416600080516020612b84833981519152557fc7f505b2f371ae2175ee4913f4499e1f2633a7b5936321eed1cdaeb6115181d2602060405160018152a1005b63bb0bac9960e01b60005260046000fd5b68ffffffffffffffffff19166801000000000000000117600080516020612b848339815191525582610a7e565b63f92ee8a960e01b60005260046000fd5b90501584610a54565b303b159150610a4c565b849150610a42565b34610147576000366003190112610147576001546040516001600160a01b039091168152602090f35b34610147576020366003190112610147576004356001600160401b03811161014757610c67610c6e913690600401611fb9565b3691611f55565b602081519101206000526004602052602060018060a01b0360406000205416604051908152f35b3461014757602036600319011261014757610cae6124a8565b600435600052600360205260406000206004810160ff815460a01c16156103d75760028201546001600160a01b031633036103c757604051610cf4816101b68186612129565b60208151910120600052600460205260018060a01b0360406000205416916001810154610e1042018042116103b1576044604092600084519788948593636cae7bf760e01b8552600485015260248401525af18015610332576102d993600090600092610dc2575b5080610da2575b5080610d85575b5060030154905433916001600160a01b0391821691166128c9565b8254610d9c919033906001600160a01b03166124e4565b83610d6a565b6003830154610dbc919033906001600160a01b03166124e4565b84610d63565b9050610ddd915060403d6040116103aa5761039a8183611f19565b9085610d5c565b3461014757600036600319011261014757610e2b6040805190610e078183611f19565b60058252640352e302e360dc1b6020830152519182916020835260208301906120da565b0390f35b34610147576040366003190112610147576004356001600160401b03811161014757610e5f903690600401611fb9565b90602435916001600160401b038311610147578260040160c0600319853603011261014757610e8c6124a8565b610e97368385611f55565b60208151910120600052600460205260018060a01b036040600020541693841561131f576001600160a01b03610ed5610ed084806122b7565b6122cc565b1694610eea60248301358097309033906129d5565b6001600160a01b03610f076020610f0186806122b7565b016122cc565b1690610f1c60448401358093309033906129d5565b610f3c87826001600160a01b03610f36610ed089806122b7565b16612801565b610f5882826001600160a01b03610f366020610f018a806122b7565b604051600097610f6782611efe565b85356001600160401b03811161131b57610f8790600436918801016122e0565b82526020820190815260408201938452606082019460648101358652610fba60a460808501926084810135845201611eea565b5060a08301308152610e1042019182421161130757928b926040979695926110089589519a8b998a98899763e864f64d60e01b89528d60048a01525160c060448a015261010489019061238f565b955160648801525160848701525160a48601525160c4850152516001600160a01b031660e4840152602483015203925af19081156112fc5785916112dc575b5060025492611055846123ed565b600255611065610ed084806122b7565b946110756020610f0186806122b7565b9560405161108281611efe565b61108d368585611f55565b8152602081019185835260408201338152606083019160018060a01b03168252608083019960018060a01b03168a5260a083019360018552898c52600360205260408c2093518051906001600160401b0382116112c8576110ee8654611ffc565b601f8111611283575b509c60209d8e91601f84116001146111fb57956111b1958e9f9561071a9f9c9a95806004966111c39c96600080516020612b248339815191529f9c926111f0575b50508160011b916000199060031b1c19161784555b516001840155516002830180546001600160a01b03199081166001600160a01b039384161790915591516003840180549093169082161790915593519101805492516001600160a81b0319909316919093161790151560a01b60ff60a01b16179055565b60405192604084526040840191612296565b93888201528033940390a36111db610ed082806122b7565b6111ea85610f013394806122b7565b906128c9565b015190503880611138565b9190601f198416888452828420935b81811061126b5750958e9f9561071a9f9c9a95806004966111c39c96600080516020612b248339815191529f9c966001946111b19d10611252575b505050811b01845561114d565b015160001960f88460031b161c19169055388080611245565b9293602060018192878601518155019501930161120a565b60208f88815220601f840160051c810191602085106112be575b601f0160051c01905b8181106112b357506110f7565b8f81556001016112a6565b909150819061129d565b634e487b7160e01b8e52604160045260248efd5b6112f5915060403d604011610842576108328183611f19565b5085611047565b6040513d87823e3d90fd5b634e487b7160e01b8c52601160045260248cfd5b8980fd5b637bd8dfc760e11b60005260046000fd5b3461014757602036600319011261014757611349611ed4565b611351612472565b6001600160a01b03168015610ba1576020817fe5693914d19c789bdee50a362998c0bc8d035a835f9871da5d51152f0582c34f926001600160601b0360a01b6001541617600155604051908152a1005b3461014757602036600319011261014757600435600052600360205261140c60406000206113ce81612036565b60018201546002830154600384015460049094015460405160c080825290968796949560ff9593946001600160a01b039485169416928801906120da565b9460208701526040860152606085015260018060a01b038116608085015260a01c16151560a08301520390f35b3461014757608036600319011261014757611452611fe6565b61145a6124a8565b60043560005260036020526040600020600481019060ff825460a01c16156103d75760028101546001600160a01b031633036103c7576040516114a1816101b68185612129565b60208151910120600052600460205260018060a01b0360406000205416600182015493610e104201918242116103b1576001600160801b0395600060a4926040958651998a9687956303a3f2ab60e01b875260048701521660248501526044356044850152606435606485015260848401525af18015610332576102d993600090600092610dc2575080610da2575080610d85575060030154905433916001600160a01b0391821691166128c9565b3461014757600036600319011261014757600080516020612b04833981519152546040516001600160a01b039091168152602090f35b34610147576040366003190112610147576004356001600160401b038111610147576115b6903690600401611fb9565b6024356001600160a01b038116929190839003610147576115d5612472565b8215611650577fb40573981f6088c2c6d55252227055ccde57ef96fdc623d5665bee381adf6c0992611608368385611f55565b6020815191012060005260046020526040600020816001600160601b0360a01b825416179055611645604051938493604085526040850191612296565b9060208301520390a1005b63fbf66df160e01b60005260046000fd5b346101475760203660031901126101475760043561167d612472565b6103e881116116b7576020817fd10d75876659a287a59a6ccfa2e3fff42f84d94b542837acd30bc184d562de4092600055604051908152a1005b631752ff0760e31b60005260046000fd5b34610147576020366003190112610147576004356000526004602052602060018060a01b0360406000205416604051908152f35b3461014757600036600319011261014757611715612472565b600080516020612b0483398151915280546001600160a01b031981169091556000906001600160a01b03167f8be0079c531659141344cd1fd0a4f28419497f9722a3daafe3b4186f6b6457e08280a3005b34610147576060366003190112610147576024356004358115158203610147576044356001600160401b038111610147576117a5903690600401611fb9565b92906117af6124a8565b600092806000526003602052604060002092600484019560ff875460a01c16156103d75760028501546001600160a01b031633036103c7576040516117f8816101b68189612129565b60208151910120600052600460205260018060a01b03604060002054169360018601805492610e104201928342116103b15760405194636cae7bf760e01b8652600486015283602486015260408560448160008c5af1948515610332576000908196611b1c575b50801580611b14575b611b0357896118e88d6118ee93600054916127106118928161188a8686612276565b04948d612276565b04948380611adc575b50508480611ab9575b50508b7f60335fc6da5dde7dc66197a635e02eb0dafc452a299f77200b64358c94cdb61660806040518481528d6020820152856040820152876060820152a2612289565b96612289565b9580611ab0575b611a7e575b50508215801590611a75575b611952575b600387015489546020918a9161192f9133916001600160a01b0390811691166128c9565b6001600080516020612b64833981519152556001600160801b0360405191168152f35b8597509060c49161197484602096979860018060a01b0360038c015416612801565b895461198c9087908b906001600160a01b0316612801565b5490600098899160405197889687956304b5ecb160e21b875260048701526024860152604485015282606485015282608485015260a48401525af1938415611a69578094611a1d575b50509261192f916020947f69ec1e1b1dc6faec077521a67e0f7845b3aae41cdc21616a9794d842541b2df786866001600160801b0360405191168152a291819486808061190b565b909193506020823d602011611a61575b81611a3a60209383611f19565b81010312611a5e57509261192f91611a536020956121ce565b9391948193506119d5565b80fd5b3d9150611a2d565b604051903d90823e3d90fd5b50831515611906565b60038901548b5494969395611aa6959394929390916001600160a01b03918216911689612536565b92909189806118fa565b508115156118f5565b9054600154611ad592916001600160a01b0391821691166124e4565b8f846118a4565b600390910154600154611afc92916001600160a01b0391821691166124e4565b8e8361189b565b638d53e55360e01b60005260046000fd5b508515611868565b9050611b3891955060403d6040116103aa5761039a8183611f19565b94908c61185f565b34610147576000366003190112610147577f00000000000000000000000000000000000000000000000000000000000000006001600160a01b03163003611b99576020604051600080516020612b448339815191528152f35b63703e46dd60e11b60005260046000fd5b604036600319011261014757611bbe611ed4565b6024356001600160401b03811161014757611bdd903690600401611f8c565b6001600160a01b037f000000000000000000000000000000000000000000000000000000000000000016308114908115611d8a575b50611b9957611c1f612472565b6040516352d1902d60e01b81526001600160a01b0383169290602081600481875afa60009181611d56575b50611c645783634c9c8ce360e01b60005260045260246000fd5b80600080516020612b44833981519152859203611d425750813b15611d2e57600080516020612b4483398151915280546001600160a01b031916821790557fbc7cd75a20ee27fd9adebab32041f755214dbc6bffa90cc0225b39da2e5c2d3b600080a2815115611d145760008083602061014595519101845af43d15611d0c573d91611cef83611f3a565b92611cfd6040519485611f19565b83523d6000602085013e612aa2565b606091612aa2565b505034611d1d57005b63b398979f60e01b60005260046000fd5b634c9c8ce360e01b60005260045260246000fd5b632a87526960e21b60005260045260246000fd5b9091506020813d602011611d82575b81611d7260209383611f19565b8101031261014757519085611c4a565b3d9150611d65565b600080516020612b44833981519152546001600160a01b03161415905083611c12565b3461014757602036600319011261014757600435611dc9612472565b806000526003602052604060002090604051611de9816101b68186612129565b60208151910120600052600460205260018060a01b0360406000205416602460c06001850154926040519283809263519f509960e01b82528660048301525afa8015610332576001600160801b0391600091611e94575b5016611e4857005b60048301805460ff60a01b1916600160a01b17905560028301546040516001600160a01b039190911693600080516020612b24833981519152928291611e8f919083612237565b0390a3005b611ead915060c03d60c01161032b576103178183611f19565b94505050505085611e40565b34610147576000366003190112610147576020906000548152f35b600435906001600160a01b038216820361014757565b35906001600160a01b038216820361014757565b60c081019081106001600160401b0382111761080157604052565b90601f801991011681019081106001600160401b0382111761080157604052565b6001600160401b03811161080157601f01601f191660200190565b929192611f6182611f3a565b91611f6f6040519384611f19565b829481845281830111610147578281602093846000960137010152565b9080601f8301121561014757816020611fa793359101611f55565b90565b60643590811515820361014757565b9181601f84011215610147578235916001600160401b038311610147576020838186019501011161014757565b602435906001600160801b038216820361014757565b90600182811c9216801561202c575b602083101461201657565b634e487b7160e01b600052602260045260246000fd5b91607f169161200b565b906040519182600082549261204a84611ffc565b80845293600181169081156120b85750600114612071575b5061206f92500383611f19565b565b90506000929192526020600020906000915b81831061209c57505090602061206f9282010138612062565b6020919350806001915483858901015201910190918492612083565b90506020925061206f94915060ff191682840152151560051b82010138612062565b919082519283825260005b848110612106575050826000602080949584010152601f8019910116010190565b806020809284010151828286010152016120e5565b35908160020b820361014757565b6000929181549161213983611ffc565b808352926001811690811561218f575060011461215557505050565b60009081526020812093945091925b838310612175575060209250010190565b600181602092949394548385870101520191019190612164565b915050602093945060ff929192191683830152151560051b010190565b51906001600160a01b038216820361014757565b51908160020b820361014757565b51906001600160801b038216820361014757565b91908260c0910312610147576121f7826121ac565b91612204602082016121ac565b91612211604083016121ac565b9161221e606082016121c0565b91611fa760a0612230608085016121c0565b93016121ce565b92919061224e602091604086526040860190612129565b930152565b919082018092116103b157565b9190826040910312610147576020825192015190565b818102929181159184041417156103b157565b919082039182116103b157565b908060209392818452848401376000828201840152601f01601f1916010190565b90359060be1981360301821215610147570190565b356001600160a01b03811681036101475790565b919060c08382031261014757604051906122f982611efe565b819361230481611eea565b835261231260208201611eea565b6020840152604081013562ffffff811681036101475760408401526123396060820161211b565b606084015261234a6080820161211b565b608084015260a0810135916001600160401b0383116101475760a0926123709201611f8c565b910152565b919082604091031261014757611fa76020835193016121ce565b9060c060a0611fa793600180831b038151168452600180831b03602082015116602085015262ffffff6040820151166040850152606081015160020b6060850152608081015160020b60808501520151918160a082015201906120da565b60001981146103b15760010190565b6001600160a01b0316801561245c57600080516020612b0483398151915280546001600160a01b0319811683179091556001600160a01b03167f8be0079c531659141344cd1fd0a4f28419497f9722a3daafe3b4186f6b6457e0600080a3565b631e4fbdf760e01b600052600060045260246000fd5b600080516020612b04833981519152546001600160a01b0316330361249357565b63118cdaa760e01b6000523360045260246000fd5b6002600080516020612b6483398151915254146124d3576002600080516020612b6483398151915255565b633ee5aeb560e01b60005260046000fd5b60405163a9059cbb60e01b60208201526001600160a01b0392909216602483015260448083019390935291815261206f91612520606483611f19565b612a19565b600160ff1b81146103b15760000390565b939695949091948101606082820312610147578135906001600160401b038211610147576125659183016122e0565b91602082013595861515928388036101475760400135956000526003602052604060002060ff600482015460a01c16156103d7576125ac6101b69160405192838092612129565b60208151910120600052600460205260018060a01b036040600020541691821580156127f9575b6127ed5787156127da5785871161279557828791612602935b8a1561278e57505b6001600160a01b0316612801565b61260b85612525565b90610e104201938442116103b157600061264691604095865197889687958694630ba73fcf60e31b865260a0600487015260a486019061238f565b9260248501526044840152836064840152608483015203925af1938415610332576000918295612752575b501561270757600090818112156127005761268c9150612525565b925b60008113156126f757915b83116126b257611fa7926126ac91612289565b93612253565b60405162461bcd60e51b815260206004820181905260248201527f5377617020636f6e73756d6564206d6f7265207468616e2065787065637465646044820152606490fd5b50600091612699565b509261268e565b600081131561274957925b60009081811215612742576127279150612525565b915b82116126b257611fa79261273c91612253565b93612289565b5091612729565b50600092612712565b919094506040823d604011612786575b8161276f60409383611f19565b81010312611a5e5750602081519101519338612671565b3d9150612762565b90506125f4565b60405162461bcd60e51b815260206004820152601b60248201527f5377617020616d6f756e7420657863656564732062616c616e636500000000006044820152606490fd5b89871161279557828791612602936125ec565b50505050509150509190565b5086156125d3565b60405163095ea7b360e01b60208083019182526001600160a01b038516602484015260448084019690965294825292939092600090612841606486611f19565b84519082855af16000513d826128a4575b50501561285e57505050565b60405163095ea7b360e01b60208201526001600160a01b0390931660248401526000604480850191909152835261206f926125209061289e606482611f19565b82612a19565b9091506128c157506001600160a01b0381163b15155b3880612852565b6001146128ba565b6040516370a0823160e01b81523060048201526001600160a01b0391909116929091602083602481875afa928315610332576000936129a1575b506040516370a0823160e01b81523060048201526001600160a01b0391909116939092602084602481885afa9384156103325760009461296d575b50828161295c575b5050508161295357505050565b61206f926124e4565b612965926124e4565b388082612946565b90936020823d602011612999575b8161298860209383611f19565b81010312611a5e575051923861293e565b3d915061297b565b90926020823d6020116129cd575b816129bc60209383611f19565b81010312611a5e5750519138612903565b3d91506129af565b6040516323b872dd60e01b60208201526001600160a01b03928316602482015292909116604483015260648083019390935291815261206f91612520608483611f19565b906000602091828151910182855af115610332576000513d612a6b57506001600160a01b0381163b155b612a4a5750565b635274afe760e01b60009081526001600160a01b0391909116600452602490fd5b60011415612a43565b60ff600080516020612b848339815191525460401c1615612a9157565b631afcd79f60e31b60005260046000fd5b90612ac85750805115612ab757602081519101fd5b63d6bda27560e01b60005260046000fd5b81511580612afa575b612ad9575090565b639996b31560e01b60009081526001600160a01b0391909116600452602490fd5b50803b15612ad156fe9016d09d72d40fdae2fd8ceac6b6234c7706214fd39c1cd1e609a0528c199300b0568630ef9047504236077be85a49ad7508c66ac77cad42be2472735cc9fc9e360894a13ba1a3210667c828492db98dca3e2076cc3735a920a3ca505d382bbc9b779b17422d0df92223018b32b4d1fa46e071723d6817e2486d003becc55f00f0c57e16840df040f15088dc2f81fe391c3923bec73e23a9662efc9c229c6a00a2646970667358221220b8b70f7ce9991c63ef90f8e88fb80dbd7dfdcf79511302178caf0e4f45dfd93d64736f6c634300081a0033",
  "linkReferences": {},
  "deployedLinkReferences": {}
}