{
  "_format": "hh-sol-artifact-1",
  "contractName": "LPManagerV1",
  "sourceName": "contracts/LPManagerV1.sol",
  "abi": [
    {
      "inputs": [],
      "stateMutability": "nonpayable",
      "type": "constructor"
    },
    {
      "inputs": [],
      "name": "AdapterNotFound",
      "type": "error"
    },
    {
      "inputs": [
        {
          "internalType": "address",
          "name": "target",
          "type": "address"
        }
      ],
      "name": "AddressEmptyCode",
      "type": "error"
    },
    {
      "inputs": [
        {
          "internalType": "address",
          "name": "implementation",
          "type": "address"
        }
      ],
      "name": "ERC1967InvalidImplementation",
      "type": "error"
    },
    {
      "inputs": [],
      "name": "ERC1967NonPayable",
      "type": "error"
    },
    {
      "inputs": [],
      "name": "FailedCall",
      "type": "error"
    },
    {
      "inputs": [],
      "name": "InsufficientFees",
      "type": "error"
    },
    {
      "inputs": [],
      "name": "InvalidAdapter",
      "type": "error"
    },
    {
      "inputs": [],
      "name": "InvalidFeeCollector",
      "type": "error"
    },
    {
      "inputs": [],
      "name": "InvalidInitialization",
      "type": "error"
    },
    {
      "inputs": [],
      "name": "InvalidProtocolFee",
      "type": "error"
    },
    {
      "inputs": [],
      "name": "NotInitializing",
      "type": "error"
    },
    {
      "inputs": [
        {
          "internalType": "address",
          "name": "owner",
          "type": "address"
        }
      ],
      "name": "OwnableInvalidOwner",
      "type": "error"
    },
    {
      "inputs": [
        {
          "internalType": "address",
          "name": "account",
          "type": "address"
        }
      ],
      "name": "OwnableUnauthorizedAccount",
      "type": "error"
    },
    {
      "inputs": [],
      "name": "PositionNotFound",
      "type": "error"
    },
    {
      "inputs": [],
      "name": "ReentrancyGuardReentrantCall",
      "type": "error"
    },
    {
      "inputs": [
        {
          "internalType": "address",
          "name": "token",
          "type": "address"
        }
      ],
      "name": "SafeERC20FailedOperation",
      "type": "error"
    },
    {
      "inputs": [],
      "name": "UUPSUnauthorizedCallContext",
      "type": "error"
    },
    {
      "inputs": [
        {
          "internalType": "bytes32",
          "name": "slot",
          "type": "bytes32"
        }
      ],
      "name": "UUPSUnsupportedProxiableUUID",
      "type": "error"
    },
    {
      "inputs": [],
      "name": "Unauthorized",
      "type": "error"
    },
    {
      "anonymous": false,
      "inputs": [
        {
          "indexed": false,
          "internalType": "string",
          "name": "protocol",
          "type": "string"
        },
        {
          "indexed": false,
          "internalType": "address",
          "name": "adapter",
          "type": "address"
        }
      ],
      "name": "AdapterRegistered",
      "type": "event"
    },
    {
      "anonymous": false,
      "inputs": [
        {
          "indexed": true,
          "internalType": "uint256",
          "name": "positionId",
          "type": "uint256"
        },
        {
          "indexed": false,
          "internalType": "uint128",
          "name": "addedLiquidity",
          "type": "uint128"
        }
      ],
      "name": "Compounded",
      "type": "event"
    },
    {
      "anonymous": false,
      "inputs": [
        {
          "indexed": false,
          "internalType": "address",
          "name": "newFeeCollector",
          "type": "address"
        }
      ],
      "name": "FeeCollectorUpdated",
      "type": "event"
    },
    {
      "anonymous": false,
      "inputs": [
        {
          "indexed": true,
          "internalType": "uint256",
          "name": "positionId",
          "type": "uint256"
        },
        {
          "indexed": false,
          "internalType": "uint256",
          "name": "amount0",
          "type": "uint256"
        },
        {
          "indexed": false,
          "internalType": "uint256",
          "name": "amount1",
          "type": "uint256"
        },
        {
          "indexed": false,
          "internalType": "uint256",
          "name": "protocolFee0",
          "type": "uint256"
        },
        {
          "indexed": false,
          "internalType": "uint256",
          "name": "protocolFee1",
          "type": "uint256"
        }
      ],
      "name": "FeesCollected",
      "type": "event"
    },
    {
      "anonymous": false,
      "inputs": [
        {
          "indexed": false,
          "internalType": "uint64",
          "name": "version",
          "type": "uint64"
        }
      ],
      "name": "Initialized",
      "type": "event"
    },
    {
      "anonymous": false,
      "inputs": [
        {
          "indexed": true,
          "internalType": "uint256",
          "name": "positionId",
          "type": "uint256"
        },
        {
          "indexed": false,
          "internalType": "uint128",
          "name": "liquidity",
          "type": "uint128"
        }
      ],
      "name": "LiquidityIncreased",
      "type": "event"
    },
    {
      "anonymous": false,
      "inputs": [
        {
          "indexed": true,
          "internalType": "address",
          "name": "previousOwner",
          "type": "address"
        },
        {
          "indexed": true,
          "internalType": "address",
          "name": "newOwner",
          "type": "address"
        }
      ],
      "name": "OwnershipTransferred",
      "type": "event"
    },
    {
      "anonymous": false,
      "inputs": [
        {
          "indexed": true,
          "internalType": "uint256",
          "name": "positionId",
          "type": "uint256"
        },
        {
          "indexed": false,
          "internalType": "uint256",
          "name": "amount0",
          "type": "uint256"
        },
        {
          "indexed": false,
          "internalType": "uint256",
          "name": "amount1",
          "type": "uint256"
        }
      ],
      "name": "PositionClosed",
      "type": "event"
    },
    {
      "anonymous": false,
      "inputs": [
        {
          "indexed": true,
          "internalType": "uint256",
          "name": "positionId",
          "type": "uint256"
        },
        {
          "indexed": true,
          "internalType": "address",
          "name": "owner",
          "type": "address"
        },
        {
          "indexed": false,
          "internalType": "string",
          "name": "protocol",
          "type": "string"
        },
        {
          "indexed": false,
          "internalType": "uint256",
          "name": "dexTokenId",
          "type": "uint256"
        }
      ],
      "name": "PositionOpened",
      "type": "event"
    },
    {
      "anonymous": false,
      "inputs": [
        {
          "indexed": false,
          "internalType": "uint256",
          "name": "newFeeBps",
          "type": "uint256"
        }
      ],
      "name": "ProtocolFeeUpdated",
      "type": "event"
    },
    {
      "anonymous": false,
      "inputs": [
        {
          "indexed": true,
          "internalType": "uint256",
          "name": "oldPositionId",
          "type": "uint256"
        },
        {
          "indexed": true,
          "internalType": "uint256",
          "name": "newPositionId",
          "type": "uint256"
        },
        {
          "indexed": false,
          "internalType": "int24",
          "name": "newTickLower",
          "type": "int24"
        },
        {
          "indexed": false,
          "internalType": "int24",
          "name": "newTickUpper",
          "type": "int24"
        }
      ],
      "name": "RangeMoved",
      "type": "event"
    },
    {
      "anonymous": false,
      "inputs": [
        {
          "indexed": true,
          "internalType": "address",
          "name": "implementation",
          "type": "address"
        }
      ],
      "name": "Upgraded",
      "type": "event"
    },
    {
      "inputs": [],
      "name": "UPGRADE_INTERFACE_VERSION",
      "outputs": [
        {
          "internalType": "string",
          "name": "",
          "type": "string"
        }
      ],
      "stateMutability": "view",
      "type": "function"
    },
    {
      "inputs": [
        {
          "internalType": "bytes32",
          "name": "",
          "type": "bytes32"
        }
      ],
      "name": "adapters",
      "outputs": [
        {
          "internalType": "address",
          "name": "",
          "type": "address"
        }
      ],
      "stateMutability": "view",
      "type": "function"
    },
    {
      "inputs": [
        {
          "internalType": "string",
          "name": "protocol",
          "type": "string"
        },
        {
          "components": [
            {
              "components": [
                {
                  "internalType": "address",
                  "name": "token0",
                  "type": "address"
                },
                {
                  "internalType": "address",
                  "name": "token1",
                  "type": "address"
                },
                {
                  "internalType": "uint24",
                  "name": "fee",
                  "type": "uint24"
                },
                {
                  "internalType": "int24",
                  "name": "tickLower",
                  "type": "int24"
                },
                {
                  "internalType": "int24",
                  "name": "tickUpper",
                  "type": "int24"
                },
                {
                  "internalType": "bytes",
                  "name": "extraData",
                  "type": "bytes"
                }
              ],
              "internalType": "struct IAdapter.PoolData",
              "name": "pool",
              "type": "tuple"
            },
            {
              "internalType": "uint256",
              "name": "amount0Desired",
              "type": "uint256"
            },
            {
              "internalType": "uint256",
              "name": "amount1Desired",
              "type": "uint256"
            },
            {
              "internalType": "uint256",
              "name": "amount0Min",
              "type": "uint256"
            },
            {
              "internalType": "uint256",
              "name": "amount1Min",
              "type": "uint256"
            },
            {
              "internalType": "address",
              "name": "recipient",
              "type": "address"
            }
          ],
          "internalType": "struct IAdapter.LiquidityParams",
          "name": "params",
          "type": "tuple"
        }
      ],
      "name": "addLiquidity",
      "outputs": [
        {
          "internalType": "uint256",
          "name": "positionId",
          "type": "uint256"
        }
      ],
      "stateMutability": "nonpayable",
      "type": "function"
    },
    {
      "inputs": [
        {
          "internalType": "uint256",
          "name": "positionId",
          "type": "uint256"
        },
        {
          "internalType": "uint128",
          "name": "liquidity",
          "type": "uint128"
        }
      ],
      "name": "closePosition",
      "outputs": [],
      "stateMutability": "nonpayable",
      "type": "function"
    },
    {
      "inputs": [
        {
          "internalType": "uint256",
          "name": "positionId",
          "type": "uint256"
        }
      ],
      "name": "collectFees",
      "outputs": [],
      "stateMutability": "nonpayable",
      "type": "function"
    },
    {
      "inputs": [
        {
          "internalType": "uint256",
          "name": "positionId",
          "type": "uint256"
        },
        {
          "internalType": "bool",
          "name": "doSwap",
          "type": "bool"
        },
        {
          "internalType": "bytes",
          "name": "swapData",
          "type": "bytes"
        }
      ],
      "name": "compound",
      "outputs": [
        {
          "internalType": "uint128",
          "name": "addedLiquidity",
          "type": "uint128"
        }
      ],
      "stateMutability": "nonpayable",
      "type": "function"
    },
    {
      "inputs": [
        {
          "internalType": "uint256",
          "name": "positionId",
          "type": "uint256"
        },
        {
          "internalType": "uint128",
          "name": "liquidity",
          "type": "uint128"
        },
        {
          "internalType": "uint256",
          "name": "amount0Min",
          "type": "uint256"
        },
        {
          "internalType": "uint256",
          "name": "amount1Min",
          "type": "uint256"
        }
      ],
      "name": "decreaseLiquidity",
      "outputs": [],
      "stateMutability": "nonpayable",
      "type": "function"
    },
    {
      "inputs": [],
      "name": "feeCollector",
      "outputs": [
        {
          "internalType": "address",
          "name": "",
          "type": "address"
        }
      ],
      "stateMutability": "view",
      "type": "function"
    },
    {
      "inputs": [
        {
          "internalType": "string",
          "name": "protocol",
          "type": "string"
        }
      ],
      "name": "getAdapter",
      "outputs": [
        {
          "internalType": "address",
          "name": "",
          "type": "address"
        }
      ],
      "stateMutability": "view",
      "type": "function"
    },
    {
      "inputs": [
        {
          "internalType": "uint256",
          "name": "positionId",
          "type": "uint256"
        },
        {
          "internalType": "uint256",
          "name": "amount0",
          "type": "uint256"
        },
        {
          "internalType": "uint256",
          "name": "amount1",
          "type": "uint256"
        },
        {
          "internalType": "uint256",
          "name": "amount0Min",
          "type": "uint256"
        },
        {
          "internalType": "uint256",
          "name": "amount1Min",
          "type": "uint256"
        }
      ],
      "name": "increaseLiquidity",
      "outputs": [],
      "stateMutability": "nonpayable",
      "type": "function"
    },
    {
      "inputs": [
        {
          "internalType": "address",
          "name": "_feeCollector",
          "type": "address"
        }
      ],
      "name": "initialize",
      "outputs": [],
      "stateMutability": "nonpayable",
      "type": "function"
    },
    {
      "inputs": [
        {
          "internalType": "uint256",
          "name": "oldPositionId",
          "type": "uint256"
        },
        {
          "internalType": "int24",
          "name": "newTickLower",
          "type": "int24"
        },
        {
          "internalType": "int24",
          "name": "newTickUpper",
          "type": "int24"
        },
        {
          "internalType": "bool",
          "name": "doSwap",
          "type": "bool"
        },
        {
          "internalType": "bytes",
          "name": "swapData",
          "type": "bytes"
        }
      ],
      "name": "moveRange",
      "outputs": [
        {
          "internalType": "uint256",
          "name": "newPositionId",
          "type": "uint256"
        }
      ],
      "stateMutability": "nonpayable",
      "type": "function"
    },
    {
      "inputs": [],
      "name": "owner",
      "outputs": [
        {
          "internalType": "address",
          "name": "",
          "type": "address"
        }
      ],
      "stateMutability": "view",
      "type": "function"
    },
    {
      "inputs": [
        {
          "internalType": "uint256",
          "name": "",
          "type": "uint256"
        }
      ],
      "name": "positions",
      "outputs": [
        {
          "internalType": "string",
          "name": "protocol",
          "type": "string"
        },
        {
          "internalType": "uint256",
          "name": "dexTokenId",
          "type": "uint256"
        },
        {
          "internalType": "address",
          "name": "owner",
          "type": "address"
        },
        {
          "internalType": "address",
          "name": "token0",
          "type": "address"
        },
        {
          "internalType": "address",
          "name": "token1",
          "type": "address"
        },
        {
          "internalType": "bool",
          "name": "active",
          "type": "bool"
        }
      ],
      "stateMutability": "view",
      "type": "function"
    },
    {
      "inputs": [],
      "name": "protocolFeeBps",
      "outputs": [
        {
          "internalType": "uint256",
          "name": "",
          "type": "uint256"
        }
      ],
      "stateMutability": "view",
      "type": "function"
    },
    {
      "inputs": [],
      "name": "proxiableUUID",
      "outputs": [
        {
          "internalType": "bytes32",
          "name": "",
          "type": "bytes32"
        }
      ],
      "stateMutability": "view",
      "type": "function"
    },
    {
      "inputs": [
        {
          "internalType": "string",
          "name": "protocol",
          "type": "string"
        },
        {
          "internalType": "address",
          "name": "adapter",
          "type": "address"
        }
      ],
      "name": "registerAdapter",
      "outputs": [],
      "stateMutability": "nonpayable",
      "type": "function"
    },
    {
      "inputs": [],
      "name": "renounceOwnership",
      "outputs": [],
      "stateMutability": "nonpayable",
      "type": "function"
    },
    {
      "inputs": [
        {
          "internalType": "address",
          "name": "newFeeCollector",
          "type": "address"
        }
      ],
      "name": "setFeeCollector",
      "outputs": [],
      "stateMutability": "nonpayable",
      "type": "function"
    },
    {
      "inputs": [
        {
          "internalType": "uint256",
          "name": "newFeeBps",
          "type": "uint256"
        }
      ],
      "name": "setProtocolFee",
      "outputs": [],
      "stateMutability": "nonpayable",
      "type": "function"
    },
    {
      "inputs": [
        {
          "internalType": "address",
          "name": "newOwner",
          "type": "address"
        }
      ],
      "name": "transferOwnership",
      "outputs": [],
      "stateMutability": "nonpayable",
      "type": "function"
    },
    {
      "inputs": [
        {
          "internalType": "address",
          "name": "newImplementation",
          "type": "address"
        },
        {
          "internalType": "bytes",
          "name": "data",
          "type": "bytes"
        }
      ],
      "name": "upgradeToAndCall",
      "outputs": [],
      "stateMutability": "payable",
      "type": "function"
    }
  ],
  "bytecode": "0x60a080604052346100ea57306080527ff0c57e16840df040f15088dc2f81fe391c3923bec73e23a9662efc9c229c6a005460ff8160401c166100d9576002600160401b03196001600160401b03821601610073575b6040516129a390816100f08239608051818181611adc0152611b700152f35b6001600160401b0319166001600160401b039081177ff0c57e16840df040f15088dc2f81fe391c3923bec73e23a9662efc9c229c6a005581527fc7f505b2f371ae2175ee4913f4499e1f2633a7b5936321eed1cdaeb6115181d290602090a13880610054565b63f92ee8a960e01b60005260046000fd5b600080fdfe608080604052600436101561001357600080fd5b60003560e01c90816335659fb814611d36575080634f1ef28614611b3357806352d1902d14611ac957806356811d84146116ef578063715018a61461168557806372c6838f14611651578063787dce3d146115ea57806379be938d1461150f5780638da5cb5b146114d95780638e5f5977146113c257806399fbab881461132a578063a42dce80146112b9578063a467fa3814610d94578063ad3cb1cc14610d49578063b17acdcd14610bfa578063bc4c221214610b99578063c415b95c14610b70578063c4d66de814610961578063c691b0a1146107ae578063c8a205041461032f578063d224f6fe146101415763f2fde38b1461011157600080fd5b3461013c57602036600319011261013c5761013a61012d611d51565b610135612789565b6121e6565b005b600080fd5b3461013c57604036600319011261013c5761015a611e63565b61016261225c565b60043560005260036020526040600020600481019060ff825460a01c161561031e5760028101546001600160a01b0316330361030e576040516101b0816101a98185611fa6565b0382611d96565b60208151910120600052600460205260018060a01b0360406000205416600182015493610e104201918242116102f8576001600160801b0395600060a4926040958651998a9687956303a3f2ab60e01b8752600487015216602485015282604485015282606485015260848401525af180156102ec57610269936000906000926102ba575b508061029a575b508061027d575b50815460ff60a01b1981169092556003015433916001600160a01b03908116911661267d565b600160008051602061292e83398151915255005b8254610294919033906001600160a01b0316612298565b83610243565b60038301546102b4919033906001600160a01b0316612298565b8461023c565b90506102de915060403d6040116102e5575b6102d68183611d96565b810190612036565b9085610235565b503d6102cc565b6040513d6000823e3d90fd5b634e487b7160e01b600052601160045260246000fd5b6282b42960e81b60005260046000fd5b636ec9be1160e01b60005260046000fd5b3461013c5760a036600319011261013c576024358060020b810361013c576044358060020b810361013c57610362611e27565b506084356001600160401b03811161013c57610382903690600401611e36565b505061038c61225c565b6004356000526003602052604060002060ff600482015460a01c161561031e5760028101546001600160a01b0316330361030e576040516103d1816101a98185611fa6565b60208151910120600052600460205260018060a01b0360406000205416906001810154610e1042018042116102f85760c460409260008451968794859363791c1bc360e11b855260048501528a60020b60248501528960020b604485015282606485015282608485015260a48401525af19182156102ec5760009261077c575b506004818101805460ff60a01b1916905560408051600080825260208201529135917f74c8f0c73d3900d6e7ac43e66f3bc9ff789fb82245f839c795d0e3163ac6e3089190a2600254926104a4846121d7565b6002556003820154600483015460405194916001600160a01b0391821691166104cc86611d7b565b6104d585611eb3565b865282602087015233604087015260608601526080850152600160a0850152846000526003602052604060002084518051906001600160401b0382116107665761051f8354611e79565b601f811161071e575b509160209893918895938a90601f83116001146106a4576105e7938361067f9b9460a094600494600092610699575b50508160011b916000199060031b1c19161781555b8c840151600182810191909155604085015160028301805492861b600019019182166001600160601b03871b93841617905560608601516003840180549183169184169190911790556080860151939092018054949095015160ff60a01b90151560a01b169290911692169190911760ff60a01b1916179055565b837fb0568630ef9047504236077be85a49ad7508c66ac77cad42be2472735cc9fc9e6040516040815261061d6040820189611fa6565b938b8201528033940390a36040519160020b825260020b868201527f6dd613c08a18f17f8f023fcf28c1b608fdf2f9f3a9b0768d9293b36246969ae6604060043592a3600381015460049091015433916001600160a01b03918216911661267d565b600160008051602061292e83398151915255604051908152f35b015190508f80610557565b9892919082600052806000209960005b601f198416811061070457509260018361067f9c6004946105e7989760a097601f198116106106eb575b505050811b01815561056c565b015160001960f88460031b161c191690558f80806106de565b828201518c556001909b019a8c9950918d01918d016106b4565b836000526020600020601f840160051c8101916020851061075c575b601f0160051c01905b8181106107505750610528565b60008155600101610743565b909150819061073a565b634e487b7160e01b600052604160045260246000fd5b61079f91925060403d6040116107a7575b6107978183611d96565b81019061215f565b509084610451565b503d61078d565b3461013c5760a036600319011261013c576044356024356107cd61225c565b60043560005260036020526040600020600481019160ff835460a01c161561031e5760028201546001600160a01b0316330361030e57604051610814816101a98186611fa6565b60208151910120600052600460205260018060a01b0360406000205416908061092d575b846108f6575b600183015491610e104201928342116102f857600060c492602095604051998a9687956304b5ecb160e21b87526004870152602486015260448501526064356064850152608435608485015260a48401525af180156102ec576108bb575b600301549054610269925033916001600160a01b03918216911661267d565b6020833d6020116108ee575b816108d460209383611d96565b8101031261013c576108e86102699361206c565b5061089c565b3d91506108c7565b8354610910908690309033906001600160a01b03166127bf565b835461092890869084906001600160a01b03166125b5565b61083e565b61095c81836003860161094d8360018060a01b03835416309033906127bf565b546001600160a01b03166125b5565b610838565b3461013c57602036600319011261013c5761097a611d51565b60008051602061294e833981519152549060ff8260401c1615916001600160401b03811680159081610b68575b6001149081610b5e575b159081610b55575b50610b445767ffffffffffffffff19811660011760008051602061294e8339815191525582610b17575b506109ec61285e565b6109f461285e565b6109fc61285e565b610a05336121e6565b610a0d61285e565b610a1561285e565b600160008051602061292e833981519152556001600160a01b03168015610b0657600180546001600160a01b0319168217815560c86000556002556040519081527fe5693914d19c789bdee50a362998c0bc8d035a835f9871da5d51152f0582c34f90602090a17fd10d75876659a287a59a6ccfa2e3fff42f84d94b542837acd30bc184d562de40602060405160c88152a1610aad57005b68ff00000000000000001960008051602061294e833981519152541660008051602061294e833981519152557fc7f505b2f371ae2175ee4913f4499e1f2633a7b5936321eed1cdaeb6115181d2602060405160018152a1005b63bb0bac9960e01b60005260046000fd5b68ffffffffffffffffff1916680100000000000000011760008051602061294e83398151915255826109e3565b63f92ee8a960e01b60005260046000fd5b905015846109b9565b303b1591506109b1565b8491506109a7565b3461013c57600036600319011261013c576001546040516001600160a01b039091168152602090f35b3461013c57602036600319011261013c576004356001600160401b03811161013c57610bcc610bd3913690600401611e36565b3691611dd2565b602081519101206000526004602052602060018060a01b0360406000205416604051908152f35b3461013c57602036600319011261013c57610c1361225c565b600435600052600360205260406000206004810160ff815460a01c161561031e5760028201546001600160a01b0316330361030e57604051610c59816101a98186611fa6565b60208151910120600052600460205260018060a01b0360406000205416916001810154610e1042018042116102f8576044604092600084519788948593636cae7bf760e01b8552600485015260248401525af180156102ec5761026993600090600092610d27575b5080610d07575b5080610cea575b5060030154905433916001600160a01b03918216911661267d565b8254610d01919033906001600160a01b0316612298565b83610ccf565b6003830154610d21919033906001600160a01b0316612298565b84610cc8565b9050610d42915060403d6040116102e5576102d68183611d96565b9085610cc1565b3461013c57600036600319011261013c57610d906040805190610d6c8183611d96565b60058252640352e302e360dc1b602083015251918291602083526020830190611f57565b0390f35b3461013c57604036600319011261013c576004356001600160401b03811161013c57610dc4903690600401611e36565b90602435916001600160401b03831161013c578260040160c0600319853603011261013c57610df161225c565b610dfc368385611dd2565b60208151910120600052600460205260018060a01b03604060002054169384156112a8576001600160a01b03610e3a610e3584806120a1565b6120b6565b1694610e4f60248301358097309033906127bf565b6001600160a01b03610e6c6020610e6686806120a1565b016120b6565b1690610e8160448401358093309033906127bf565b610ea187826001600160a01b03610e9b610e3589806120a1565b166125b5565b610ebd82826001600160a01b03610e9b6020610e668a806120a1565b604051600097610ecc82611d7b565b85356001600160401b0381116112a457610eec90600436918801016120ca565b82526020820190815260408201938452606082019460648101358652610f1f60a460808501926084810135845201611d67565b5060a08301308152610e1042019182421161129057928b92604097969592610f6d9589519a8b998a98899763e864f64d60e01b89528d60048a01525160c060448a0152610104890190612179565b955160648801525160848701525160a48601525160c4850152516001600160a01b031660e4840152602483015203925af1908115611285578591611265575b5060025492610fba846121d7565b600255610fca610e3584806120a1565b94610fda6020610e6686806120a1565b95604051610fe781611d7b565b610ff2368585611dd2565b8152602081019185835260408201338152606083019160018060a01b03168252608083019960018060a01b03168a5260a083019360018552898c52600360205260408c2093518051906001600160401b038211611251576110538654611e79565b601f811161120c575b509c60209d8e91601f84116001146111725795611128958e9f9561067f9f9c9a958060049661113a9c967fb0568630ef9047504236077be85a49ad7508c66ac77cad42be2472735cc9fc9e9f9c92611167575b50508160011b916000199060031b1c19161784555b516001840155516002830180546001600160a01b03199081166001600160a01b039384161790915591516003840180549093169082161790915593519101805492516001600160a81b0319909316919093161790151560a01b60ff60a01b16179055565b60405192604084526040840191612080565b93888201528033940390a3611152610e3582806120a1565b61116185610e663394806120a1565b9061267d565b0151905038806110af565b9190601f198416888452828420935b8181106111f45750958e9f9561067f9f9c9a958060049661113a9c967fb0568630ef9047504236077be85a49ad7508c66ac77cad42be2472735cc9fc9e9f9c966001946111289d106111db575b505050811b0184556110c4565b015160001960f88460031b161c191690553880806111ce565b92936020600181928786015181550195019301611181565b60208f88815220601f840160051c81019160208510611247575b601f0160051c01905b81811061123c575061105c565b8f815560010161122f565b9091508190611226565b634e487b7160e01b8e52604160045260248efd5b61127e915060403d6040116107a7576107978183611d96565b5085610fac565b6040513d87823e3d90fd5b634e487b7160e01b8c52601160045260248cfd5b8980fd5b637bd8dfc760e11b60005260046000fd5b3461013c57602036600319011261013c576112d2611d51565b6112da612789565b6001600160a01b03168015610b06576020817fe5693914d19c789bdee50a362998c0bc8d035a835f9871da5d51152f0582c34f926001600160601b0360a01b6001541617600155604051908152a1005b3461013c57602036600319011261013c576004356000526003602052611395604060002061135781611eb3565b60018201546002830154600384015460049094015460405160c080825290968796949560ff9593946001600160a01b03948516941692880190611f57565b9460208701526040860152606085015260018060a01b038116608085015260a01c16151560a08301520390f35b3461013c57608036600319011261013c576113db611e63565b6113e361225c565b60043560005260036020526040600020600481019060ff825460a01c161561031e5760028101546001600160a01b0316330361030e5760405161142a816101a98185611fa6565b60208151910120600052600460205260018060a01b0360406000205416600182015493610e104201918242116102f8576001600160801b0395600060a4926040958651998a9687956303a3f2ab60e01b875260048701521660248501526044356044850152606435606485015260848401525af180156102ec5761026993600090600092610d27575080610d07575080610cea575060030154905433916001600160a01b03918216911661267d565b3461013c57600036600319011261013c576000805160206128ee833981519152546040516001600160a01b039091168152602090f35b3461013c57604036600319011261013c576004356001600160401b03811161013c5761153f903690600401611e36565b6024356001600160a01b03811692919083900361013c5761155e612789565b82156115d9577fb40573981f6088c2c6d55252227055ccde57ef96fdc623d5665bee381adf6c0992611591368385611dd2565b6020815191012060005260046020526040600020816001600160601b0360a01b8254161790556115ce604051938493604085526040850191612080565b9060208301520390a1005b63fbf66df160e01b60005260046000fd5b3461013c57602036600319011261013c57600435611606612789565b6103e88111611640576020817fd10d75876659a287a59a6ccfa2e3fff42f84d94b542837acd30bc184d562de4092600055604051908152a1005b631752ff0760e31b60005260046000fd5b3461013c57602036600319011261013c576004356000526004602052602060018060a01b0360406000205416604051908152f35b3461013c57600036600319011261013c5761169e612789565b6000805160206128ee83398151915280546001600160a01b031981169091556000906001600160a01b03167f8be0079c531659141344cd1fd0a4f28419497f9722a3daafe3b4186f6b6457e08280a3005b3461013c57606036600319011261013c57602435600435811515820361013c576044356001600160401b03811161013c5761172e903690600401611e36565b929061173861225c565b600092806000526003602052604060002092600484019560ff875460a01c161561031e5760028501546001600160a01b0316330361030e57604051611781816101a98189611fa6565b60208151910120600052600460205260018060a01b03604060002054169360018601805492610e104201928342116102f85760405194636cae7bf760e01b8652600486015283602486015260408560448160008c5af19485156102ec576000908196611aa5575b50801580611a9d575b611a8c57896118718d611877936000549161271061181b81611813868661204c565b04948d61204c565b04948380611a65575b50508480611a42575b50508b7f60335fc6da5dde7dc66197a635e02eb0dafc452a299f77200b64358c94cdb61660806040518481528d6020820152856040820152876060820152a261205f565b9661205f565b9580611a39575b611a07575b505082158015906119fe575b6118db575b600387015489546020918a916118b89133916001600160a01b03908116911661267d565b600160008051602061292e833981519152556001600160801b0360405191168152f35b8597509060c4916118fd84602096979860018060a01b0360038c0154166125b5565b89546119159087908b906001600160a01b03166125b5565b5490600098899160405197889687956304b5ecb160e21b875260048701526024860152604485015282606485015282608485015260a48401525af19384156119f25780946119a6575b5050926118b8916020947f69ec1e1b1dc6faec077521a67e0f7845b3aae41cdc21616a9794d842541b2df786866001600160801b0360405191168152a2918194868080611894565b909193506020823d6020116119ea575b816119c360209383611d96565b810103126119e75750926118b8916119dc60209561206c565b93919481935061195e565b80fd5b3d91506119b6565b604051903d90823e3d90fd5b5083151561188f565b60038901548b5494969395611a2f959394929390916001600160a01b039182169116896122ea565b9290918980611883565b5081151561187e565b9054600154611a5e92916001600160a01b039182169116612298565b8f8461182d565b600390910154600154611a8592916001600160a01b039182169116612298565b8e83611824565b638d53e55360e01b60005260046000fd5b5085156117f1565b9050611ac191955060403d6040116102e5576102d68183611d96565b94908c6117e8565b3461013c57600036600319011261013c577f00000000000000000000000000000000000000000000000000000000000000006001600160a01b03163003611b2257602060405160008051602061290e8339815191528152f35b63703e46dd60e11b60005260046000fd5b604036600319011261013c57611b47611d51565b6024356001600160401b03811161013c57611b66903690600401611e09565b6001600160a01b037f000000000000000000000000000000000000000000000000000000000000000016308114908115611d13575b50611b2257611ba8612789565b6040516352d1902d60e01b81526001600160a01b0383169290602081600481875afa60009181611cdf575b50611bed5783634c9c8ce360e01b60005260045260246000fd5b8060008051602061290e833981519152859203611ccb5750813b15611cb75760008051602061290e83398151915280546001600160a01b031916821790557fbc7cd75a20ee27fd9adebab32041f755214dbc6bffa90cc0225b39da2e5c2d3b600080a2815115611c9d5760008083602061013a95519101845af43d15611c95573d91611c7883611db7565b92611c866040519485611d96565b83523d6000602085013e61288c565b60609161288c565b505034611ca657005b63b398979f60e01b60005260046000fd5b634c9c8ce360e01b60005260045260246000fd5b632a87526960e21b60005260045260246000fd5b9091506020813d602011611d0b575b81611cfb60209383611d96565b8101031261013c57519085611bd3565b3d9150611cee565b60008051602061290e833981519152546001600160a01b03161415905083611b9b565b3461013c57600036600319011261013c576020906000548152f35b600435906001600160a01b038216820361013c57565b35906001600160a01b038216820361013c57565b60c081019081106001600160401b0382111761076657604052565b90601f801991011681019081106001600160401b0382111761076657604052565b6001600160401b03811161076657601f01601f191660200190565b929192611dde82611db7565b91611dec6040519384611d96565b82948184528183011161013c578281602093846000960137010152565b9080601f8301121561013c57816020611e2493359101611dd2565b90565b60643590811515820361013c57565b9181601f8401121561013c578235916001600160401b03831161013c576020838186019501011161013c57565b602435906001600160801b038216820361013c57565b90600182811c92168015611ea9575b6020831014611e9357565b634e487b7160e01b600052602260045260246000fd5b91607f1691611e88565b9060405191826000825492611ec784611e79565b8084529360018116908115611f355750600114611eee575b50611eec92500383611d96565b565b90506000929192526020600020906000915b818310611f19575050906020611eec9282010138611edf565b6020919350806001915483858901015201910190918492611f00565b905060209250611eec94915060ff191682840152151560051b82010138611edf565b919082519283825260005b848110611f83575050826000602080949584010152601f8019910116010190565b80602080928401015182828601015201611f62565b35908160020b820361013c57565b60009291815491611fb683611e79565b808352926001811690811561200c5750600114611fd257505050565b60009081526020812093945091925b838310611ff2575060209250010190565b600181602092949394548385870101520191019190611fe1565b915050602093945060ff929192191683830152151560051b010190565b919082018092116102f857565b919082604091031261013c576020825192015190565b818102929181159184041417156102f857565b919082039182116102f857565b51906001600160801b038216820361013c57565b908060209392818452848401376000828201840152601f01601f1916010190565b90359060be198136030182121561013c570190565b356001600160a01b038116810361013c5790565b919060c08382031261013c57604051906120e382611d7b565b81936120ee81611d67565b83526120fc60208201611d67565b6020840152604081013562ffffff8116810361013c57604084015261212360608201611f98565b606084015261213460808201611f98565b608084015260a0810135916001600160401b03831161013c5760a09261215a9201611e09565b910152565b919082604091031261013c57611e2460208351930161206c565b9060c060a0611e2493600180831b038151168452600180831b03602082015116602085015262ffffff6040820151166040850152606081015160020b6060850152608081015160020b60808501520151918160a08201520190611f57565b60001981146102f85760010190565b6001600160a01b03168015612246576000805160206128ee83398151915280546001600160a01b0319811683179091556001600160a01b03167f8be0079c531659141344cd1fd0a4f28419497f9722a3daafe3b4186f6b6457e0600080a3565b631e4fbdf760e01b600052600060045260246000fd5b600260008051602061292e833981519152541461228757600260008051602061292e83398151915255565b633ee5aeb560e01b60005260046000fd5b60405163a9059cbb60e01b60208201526001600160a01b03929092166024830152604480830193909352918152611eec916122d4606483611d96565b612803565b600160ff1b81146102f85760000390565b93969594909194810160608282031261013c578135906001600160401b03821161013c576123199183016120ca565b916020820135958615159283880361013c5760400135956000526003602052604060002060ff600482015460a01c161561031e576123606101a99160405192838092611fa6565b60208151910120600052600460205260018060a01b036040600020541691821580156125ad575b6125a157871561258e57858711612549578287916123b6935b8a1561254257505b6001600160a01b03166125b5565b6123bf856122d9565b90610e104201938442116102f85760006123fa91604095865197889687958694630ba73fcf60e31b865260a0600487015260a4860190612179565b9260248501526044840152836064840152608483015203925af19384156102ec576000918295612506575b50156124bb57600090818112156124b45761244091506122d9565b925b60008113156124ab57915b831161246657611e24926124609161205f565b93612029565b60405162461bcd60e51b815260206004820181905260248201527f5377617020636f6e73756d6564206d6f7265207468616e2065787065637465646044820152606490fd5b5060009161244d565b5092612442565b60008113156124fd57925b600090818112156124f6576124db91506122d9565b915b821161246657611e24926124f091612029565b9361205f565b50916124dd565b506000926124c6565b919094506040823d60401161253a575b8161252360409383611d96565b810103126119e75750602081519101519338612425565b3d9150612516565b90506123a8565b60405162461bcd60e51b815260206004820152601b60248201527f5377617020616d6f756e7420657863656564732062616c616e636500000000006044820152606490fd5b898711612549578287916123b6936123a0565b50505050509150509190565b508615612387565b60405163095ea7b360e01b60208083019182526001600160a01b0385166024840152604480840196909652948252929390926000906125f5606486611d96565b84519082855af16000513d82612658575b50501561261257505050565b60405163095ea7b360e01b60208201526001600160a01b03909316602484015260006044808501919091528352611eec926122d490612652606482611d96565b82612803565b90915061267557506001600160a01b0381163b15155b3880612606565b60011461266e565b6040516370a0823160e01b81523060048201526001600160a01b0391909116929091602083602481875afa9283156102ec57600093612755575b506040516370a0823160e01b81523060048201526001600160a01b0391909116939092602084602481885afa9384156102ec57600094612721575b508281612710575b5050508161270757505050565b611eec92612298565b61271992612298565b3880826126fa565b90936020823d60201161274d575b8161273c60209383611d96565b810103126119e757505192386126f2565b3d915061272f565b90926020823d602011612781575b8161277060209383611d96565b810103126119e757505191386126b7565b3d9150612763565b6000805160206128ee833981519152546001600160a01b031633036127aa57565b63118cdaa760e01b6000523360045260246000fd5b6040516323b872dd60e01b60208201526001600160a01b039283166024820152929091166044830152606480830193909352918152611eec916122d4608483611d96565b906000602091828151910182855af1156102ec576000513d61285557506001600160a01b0381163b155b6128345750565b635274afe760e01b60009081526001600160a01b0391909116600452602490fd5b6001141561282d565b60ff60008051602061294e8339815191525460401c161561287b57565b631afcd79f60e31b60005260046000fd5b906128b257508051156128a157602081519101fd5b63d6bda27560e01b60005260046000fd5b815115806128e4575b6128c3575090565b639996b31560e01b60009081526001600160a01b0391909116600452602490fd5b50803b156128bb56fe9016d09d72d40fdae2fd8ceac6b6234c7706214fd39c1cd1e609a0528c199300360894a13ba1a3210667c828492db98dca3e2076cc3735a920a3ca505d382bbc9b779b17422d0df92223018b32b4d1fa46e071723d6817e2486d003becc55f00f0c57e16840df040f15088dc2f81fe391c3923bec73e23a9662efc9c229c6a00a2646970667358221220c50be437b52c2a87788fe28b81ab705984ad7f2e604f4d60e915f993f97de19664736f6c634300081a0033",
  "linkReferences": {},
  "deployedLinkReferences": {}
}