{
  "_format": "hh-sol-artifact-1",
  "contractName": "UniswapV4AdapterProduction",
  "sourceName": "contracts/UniswapV4AdapterProduction.sol",
  "abi": [
    {
      "inputs": [
        {
          "internalType": "address",
          "name": "_poolManager",
          "type": "address"
        }
      ],
      "stateMutability": "nonpayable",
      "type": "constructor"
    },
    {
      "inputs": [],
      "name": "DeadlineExpired",
      "type": "error"
    },
    {
      "inputs": [],
      "name": "InsufficientETH",
      "type": "error"
    },
    {
      "inputs": [],
      "name": "InvalidPoolManager",
      "type": "error"
    },
    {
      "inputs": [],
      "name": "InvalidPosition",
      "type": "error"
    },
    {
      "inputs": [
        {
          "internalType": "address",
          "name": "owner",
          "type": "address"
        }
      ],
      "name": "OwnableInvalidOwner",
      "type": "error"
    },
    {
      "inputs": [
        {
          "internalType": "address",
          "name": "account",
          "type": "address"
        }
      ],
      "name": "OwnableUnauthorizedAccount",
      "type": "error"
    },
    {
      "inputs": [
        {
          "internalType": "uint256",
          "name": "spotPrice",
          "type": "uint256"
        },
        {
          "internalType": "uint256",
          "name": "twapPrice",
          "type": "uint256"
        },
        {
          "internalType": "uint256",
          "name": "deviationBps",
          "type": "uint256"
        }
      ],
      "name": "PriceDeviationTooHigh",
      "type": "error"
    },
    {
      "inputs": [
        {
          "internalType": "address",
          "name": "token",
          "type": "address"
        }
      ],
      "name": "SafeERC20FailedOperation",
      "type": "error"
    },
    {
      "inputs": [],
      "name": "SettleFailed",
      "type": "error"
    },
    {
      "inputs": [
        {
          "internalType": "uint256",
          "name": "amount",
          "type": "uint256"
        },
        {
          "internalType": "uint256",
          "name": "minAmount",
          "type": "uint256"
        }
      ],
      "name": "SlippageCheckFailed",
      "type": "error"
    },
    {
      "inputs": [],
      "name": "TakeFailed",
      "type": "error"
    },
    {
      "inputs": [],
      "name": "Unauthorized",
      "type": "error"
    },
    {
      "anonymous": false,
      "inputs": [
        {
          "indexed": true,
          "internalType": "uint256",
          "name": "id",
          "type": "uint256"
        },
        {
          "indexed": false,
          "internalType": "uint256",
          "name": "fee0",
          "type": "uint256"
        },
        {
          "indexed": false,
          "internalType": "uint256",
          "name": "fee1",
          "type": "uint256"
        },
        {
          "indexed": false,
          "internalType": "uint128",
          "name": "liquidityAdded",
          "type": "uint128"
        }
      ],
      "name": "AutoCompounded",
      "type": "event"
    },
    {
      "anonymous": false,
      "inputs": [
        {
          "indexed": true,
          "internalType": "uint256",
          "name": "id",
          "type": "uint256"
        },
        {
          "indexed": false,
          "internalType": "uint256",
          "name": "amount0",
          "type": "uint256"
        },
        {
          "indexed": false,
          "internalType": "uint256",
          "name": "amount1",
          "type": "uint256"
        }
      ],
      "name": "FeesCollected",
      "type": "event"
    },
    {
      "anonymous": false,
      "inputs": [
        {
          "indexed": true,
          "internalType": "uint256",
          "name": "id",
          "type": "uint256"
        },
        {
          "indexed": false,
          "internalType": "int256",
          "name": "delta",
          "type": "int256"
        }
      ],
      "name": "LiquidityChanged",
      "type": "event"
    },
    {
      "anonymous": false,
      "inputs": [
        {
          "indexed": true,
          "internalType": "uint256",
          "name": "positionId",
          "type": "uint256"
        },
        {
          "indexed": true,
          "internalType": "address",
          "name": "operator",
          "type": "address"
        },
        {
          "indexed": false,
          "internalType": "bool",
          "name": "approved",
          "type": "bool"
        }
      ],
      "name": "OperatorApproved",
      "type": "event"
    },
    {
      "anonymous": false,
      "inputs": [
        {
          "indexed": true,
          "internalType": "address",
          "name": "previousOwner",
          "type": "address"
        },
        {
          "indexed": true,
          "internalType": "address",
          "name": "newOwner",
          "type": "address"
        }
      ],
      "name": "OwnershipTransferred",
      "type": "event"
    },
    {
      "anonymous": false,
      "inputs": [
        {
          "indexed": true,
          "internalType": "uint256",
          "name": "id",
          "type": "uint256"
        },
        {
          "indexed": false,
          "internalType": "uint256",
          "name": "amount0",
          "type": "uint256"
        },
        {
          "indexed": false,
          "internalType": "uint256",
          "name": "amount1",
          "type": "uint256"
        }
      ],
      "name": "PositionBurned",
      "type": "event"
    },
    {
      "anonymous": false,
      "inputs": [
        {
          "indexed": true,
          "internalType": "uint256",
          "name": "id",
          "type": "uint256"
        },
        {
          "indexed": true,
          "internalType": "address",
          "name": "owner",
          "type": "address"
        },
        {
          "indexed": false,
          "internalType": "uint128",
          "name": "liquidity",
          "type": "uint128"
        }
      ],
      "name": "PositionCreated",
      "type": "event"
    },
    {
      "anonymous": false,
      "inputs": [
        {
          "indexed": true,
          "internalType": "bytes32",
          "name": "poolId",
          "type": "bytes32"
        },
        {
          "indexed": false,
          "internalType": "uint160",
          "name": "sqrtPriceX96",
          "type": "uint160"
        },
        {
          "indexed": false,
          "internalType": "uint32",
          "name": "timestamp",
          "type": "uint32"
        }
      ],
      "name": "PriceObservationRecorded",
      "type": "event"
    },
    {
      "anonymous": false,
      "inputs": [
        {
          "indexed": true,
          "internalType": "uint256",
          "name": "oldPositionId",
          "type": "uint256"
        },
        {
          "indexed": true,
          "internalType": "uint256",
          "name": "newPositionId",
          "type": "uint256"
        },
        {
          "indexed": false,
          "internalType": "int24",
          "name": "newTickLower",
          "type": "int24"
        },
        {
          "indexed": false,
          "internalType": "int24",
          "name": "newTickUpper",
          "type": "int24"
        },
        {
          "indexed": false,
          "internalType": "uint128",
          "name": "newLiquidity",
          "type": "uint128"
        }
      ],
      "name": "RangeMoved",
      "type": "event"
    },
    {
      "anonymous": false,
      "inputs": [
        {
          "indexed": true,
          "internalType": "address",
          "name": "pool",
          "type": "address"
        },
        {
          "indexed": false,
          "internalType": "bool",
          "name": "zeroForOne",
          "type": "bool"
        },
        {
          "indexed": false,
          "internalType": "int256",
          "name": "amount0",
          "type": "int256"
        },
        {
          "indexed": false,
          "internalType": "int256",
          "name": "amount1",
          "type": "int256"
        }
      ],
      "name": "SwapExecuted",
      "type": "event"
    },
    {
      "anonymous": false,
      "inputs": [
        {
          "indexed": false,
          "internalType": "uint16",
          "name": "maxDeviationBps",
          "type": "uint16"
        },
        {
          "indexed": false,
          "internalType": "uint32",
          "name": "minWindow",
          "type": "uint32"
        },
        {
          "indexed": false,
          "internalType": "bool",
          "name": "enabled",
          "type": "bool"
        }
      ],
      "name": "TWAPConfigUpdated",
      "type": "event"
    },
    {
      "inputs": [],
      "name": "MAX_OBSERVATIONS",
      "outputs": [
        {
          "internalType": "uint8",
          "name": "",
          "type": "uint8"
        }
      ],
      "stateMutability": "view",
      "type": "function"
    },
    {
      "inputs": [
        {
          "internalType": "uint256",
          "name": "",
          "type": "uint256"
        },
        {
          "internalType": "address",
          "name": "",
          "type": "address"
        }
      ],
      "name": "approvedOperators",
      "outputs": [
        {
          "internalType": "bool",
          "name": "",
          "type": "bool"
        }
      ],
      "stateMutability": "view",
      "type": "function"
    },
    {
      "inputs": [
        {
          "internalType": "uint256",
          "name": "tokenId",
          "type": "uint256"
        },
        {
          "internalType": "uint256",
          "name": "deadline",
          "type": "uint256"
        }
      ],
      "name": "autoCompound",
      "outputs": [
        {
          "internalType": "uint256",
          "name": "fee0",
          "type": "uint256"
        },
        {
          "internalType": "uint256",
          "name": "fee1",
          "type": "uint256"
        },
        {
          "internalType": "uint128",
          "name": "liquidityAdded",
          "type": "uint128"
        }
      ],
      "stateMutability": "nonpayable",
      "type": "function"
    },
    {
      "inputs": [
        {
          "internalType": "uint256",
          "name": "tokenId",
          "type": "uint256"
        },
        {
          "internalType": "uint256",
          "name": "amount0Min",
          "type": "uint256"
        },
        {
          "internalType": "uint256",
          "name": "amount1Min",
          "type": "uint256"
        },
        {
          "internalType": "uint256",
          "name": "deadline",
          "type": "uint256"
        }
      ],
      "name": "burnPosition",
      "outputs": [
        {
          "internalType": "uint256",
          "name": "amount0",
          "type": "uint256"
        },
        {
          "internalType": "uint256",
          "name": "amount1",
          "type": "uint256"
        }
      ],
      "stateMutability": "nonpayable",
      "type": "function"
    },
    {
      "inputs": [
        {
          "internalType": "uint256",
          "name": "tokenId",
          "type": "uint256"
        },
        {
          "internalType": "uint256",
          "name": "deadline",
          "type": "uint256"
        }
      ],
      "name": "collectFees",
      "outputs": [
        {
          "internalType": "uint256",
          "name": "amount0",
          "type": "uint256"
        },
        {
          "internalType": "uint256",
          "name": "amount1",
          "type": "uint256"
        }
      ],
      "stateMutability": "nonpayable",
      "type": "function"
    },
    {
      "inputs": [
        {
          "internalType": "uint256",
          "name": "tokenId",
          "type": "uint256"
        },
        {
          "internalType": "uint128",
          "name": "liq",
          "type": "uint128"
        },
        {
          "internalType": "uint256",
          "name": "amount0Min",
          "type": "uint256"
        },
        {
          "internalType": "uint256",
          "name": "amount1Min",
          "type": "uint256"
        },
        {
          "internalType": "uint256",
          "name": "deadline",
          "type": "uint256"
        }
      ],
      "name": "decreaseLiquidity",
      "outputs": [
        {
          "internalType": "uint256",
          "name": "amount0",
          "type": "uint256"
        },
        {
          "internalType": "uint256",
          "name": "amount1",
          "type": "uint256"
        }
      ],
      "stateMutability": "nonpayable",
      "type": "function"
    },
    {
      "inputs": [
        {
          "components": [
            {
              "internalType": "address",
              "name": "token0",
              "type": "address"
            },
            {
              "internalType": "address",
              "name": "token1",
              "type": "address"
            },
            {
              "internalType": "uint24",
              "name": "fee",
              "type": "uint24"
            },
            {
              "internalType": "int24",
              "name": "tickLower",
              "type": "int24"
            },
            {
              "internalType": "int24",
              "name": "tickUpper",
              "type": "int24"
            },
            {
              "internalType": "bytes",
              "name": "extraData",
              "type": "bytes"
            }
          ],
          "internalType": "struct IAdapter.PoolData",
          "name": "poolData",
          "type": "tuple"
        }
      ],
      "name": "getPoolInfo",
      "outputs": [
        {
          "internalType": "uint160",
          "name": "sqrtPriceX96",
          "type": "uint160"
        },
        {
          "internalType": "int24",
          "name": "tick",
          "type": "int24"
        },
        {
          "internalType": "uint24",
          "name": "protocolFee",
          "type": "uint24"
        },
        {
          "internalType": "uint24",
          "name": "lpFee",
          "type": "uint24"
        }
      ],
      "stateMutability": "view",
      "type": "function"
    },
    {
      "inputs": [
        {
          "components": [
            {
              "internalType": "address",
              "name": "token0",
              "type": "address"
            },
            {
              "internalType": "address",
              "name": "token1",
              "type": "address"
            },
            {
              "internalType": "uint24",
              "name": "fee",
              "type": "uint24"
            },
            {
              "internalType": "int24",
              "name": "tickLower",
              "type": "int24"
            },
            {
              "internalType": "int24",
              "name": "tickUpper",
              "type": "int24"
            },
            {
              "internalType": "bytes",
              "name": "extraData",
              "type": "bytes"
            }
          ],
          "internalType": "struct IAdapter.PoolData",
          "name": "poolData",
          "type": "tuple"
        }
      ],
      "name": "getPoolLiquidity",
      "outputs": [
        {
          "internalType": "uint128",
          "name": "liquidity",
          "type": "uint128"
        }
      ],
      "stateMutability": "view",
      "type": "function"
    },
    {
      "inputs": [
        {
          "internalType": "uint256",
          "name": "tokenId",
          "type": "uint256"
        }
      ],
      "name": "getPosition",
      "outputs": [
        {
          "components": [
            {
              "internalType": "Currency",
              "name": "currency0",
              "type": "address"
            },
            {
              "internalType": "Currency",
              "name": "currency1",
              "type": "address"
            },
            {
              "internalType": "uint24",
              "name": "fee",
              "type": "uint24"
            },
            {
              "internalType": "int24",
              "name": "tickSpacing",
              "type": "int24"
            },
            {
              "internalType": "contract IHooks",
              "name": "hooks",
              "type": "address"
            }
          ],
          "internalType": "struct PoolKey",
          "name": "key",
          "type": "tuple"
        },
        {
          "internalType": "address",
          "name": "owner",
          "type": "address"
        },
        {
          "internalType": "int24",
          "name": "tickLower",
          "type": "int24"
        },
        {
          "internalType": "int24",
          "name": "tickUpper",
          "type": "int24"
        },
        {
          "internalType": "uint128",
          "name": "liquidity",
          "type": "uint128"
        }
      ],
      "stateMutability": "view",
      "type": "function"
    },
    {
      "inputs": [
        {
          "internalType": "uint256",
          "name": "tokenId",
          "type": "uint256"
        }
      ],
      "name": "getPositionHealth",
      "outputs": [
        {
          "internalType": "uint256",
          "name": "health",
          "type": "uint256"
        }
      ],
      "stateMutability": "view",
      "type": "function"
    },
    {
      "inputs": [
        {
          "internalType": "uint256",
          "name": "tokenId",
          "type": "uint256"
        }
      ],
      "name": "getPositionInfo",
      "outputs": [
        {
          "internalType": "address",
          "name": "owner",
          "type": "address"
        },
        {
          "internalType": "address",
          "name": "token0",
          "type": "address"
        },
        {
          "internalType": "address",
          "name": "token1",
          "type": "address"
        },
        {
          "internalType": "int24",
          "name": "tickLower",
          "type": "int24"
        },
        {
          "internalType": "int24",
          "name": "tickUpper",
          "type": "int24"
        },
        {
          "internalType": "uint128",
          "name": "liquidity",
          "type": "uint128"
        }
      ],
      "stateMutability": "view",
      "type": "function"
    },
    {
      "inputs": [
        {
          "internalType": "uint256",
          "name": "tokenId",
          "type": "uint256"
        }
      ],
      "name": "getPositionTokens",
      "outputs": [
        {
          "internalType": "address",
          "name": "token0",
          "type": "address"
        },
        {
          "internalType": "address",
          "name": "token1",
          "type": "address"
        }
      ],
      "stateMutability": "view",
      "type": "function"
    },
    {
      "inputs": [
        {
          "internalType": "uint256",
          "name": "tokenId",
          "type": "uint256"
        }
      ],
      "name": "getPositionValue",
      "outputs": [
        {
          "internalType": "uint256",
          "name": "amount0",
          "type": "uint256"
        },
        {
          "internalType": "uint256",
          "name": "amount1",
          "type": "uint256"
        }
      ],
      "stateMutability": "view",
      "type": "function"
    },
    {
      "inputs": [
        {
          "internalType": "bytes32",
          "name": "poolId",
          "type": "bytes32"
        }
      ],
      "name": "getTWAP",
      "outputs": [
        {
          "internalType": "uint160",
          "name": "sqrtPriceX96",
          "type": "uint160"
        },
        {
          "internalType": "bool",
          "name": "isValid",
          "type": "bool"
        }
      ],
      "stateMutability": "view",
      "type": "function"
    },
    {
      "inputs": [
        {
          "internalType": "uint256",
          "name": "tokenId",
          "type": "uint256"
        },
        {
          "internalType": "uint256",
          "name": "amount0",
          "type": "uint256"
        },
        {
          "internalType": "uint256",
          "name": "amount1",
          "type": "uint256"
        },
        {
          "internalType": "uint256",
          "name": "amount0Min",
          "type": "uint256"
        },
        {
          "internalType": "uint256",
          "name": "amount1Min",
          "type": "uint256"
        },
        {
          "internalType": "uint256",
          "name": "deadline",
          "type": "uint256"
        }
      ],
      "name": "increaseLiquidity",
      "outputs": [
        {
          "internalType": "uint128",
          "name": "liquidity",
          "type": "uint128"
        }
      ],
      "stateMutability": "payable",
      "type": "function"
    },
    {
      "inputs": [
        {
          "internalType": "uint256",
          "name": "tokenId",
          "type": "uint256"
        },
        {
          "internalType": "address",
          "name": "caller",
          "type": "address"
        }
      ],
      "name": "isAuthorized",
      "outputs": [
        {
          "internalType": "bool",
          "name": "",
          "type": "bool"
        }
      ],
      "stateMutability": "view",
      "type": "function"
    },
    {
      "inputs": [
        {
          "internalType": "uint256",
          "name": "tokenId",
          "type": "uint256"
        }
      ],
      "name": "isPositionInRange",
      "outputs": [
        {
          "internalType": "bool",
          "name": "inRange",
          "type": "bool"
        }
      ],
      "stateMutability": "view",
      "type": "function"
    },
    {
      "inputs": [],
      "name": "maxPriceDeviationBps",
      "outputs": [
        {
          "internalType": "uint16",
          "name": "",
          "type": "uint16"
        }
      ],
      "stateMutability": "view",
      "type": "function"
    },
    {
      "inputs": [],
      "name": "minTWAPWindow",
      "outputs": [
        {
          "internalType": "uint32",
          "name": "",
          "type": "uint32"
        }
      ],
      "stateMutability": "view",
      "type": "function"
    },
    {
      "inputs": [
        {
          "internalType": "uint256",
          "name": "oldTokenId",
          "type": "uint256"
        },
        {
          "internalType": "int24",
          "name": "newTickLower",
          "type": "int24"
        },
        {
          "internalType": "int24",
          "name": "newTickUpper",
          "type": "int24"
        },
        {
          "internalType": "uint256",
          "name": "amount0Min",
          "type": "uint256"
        },
        {
          "internalType": "uint256",
          "name": "amount1Min",
          "type": "uint256"
        },
        {
          "internalType": "uint256",
          "name": "deadline",
          "type": "uint256"
        }
      ],
      "name": "moveRange",
      "outputs": [
        {
          "internalType": "uint256",
          "name": "newTokenId",
          "type": "uint256"
        },
        {
          "internalType": "uint128",
          "name": "liquidity",
          "type": "uint128"
        }
      ],
      "stateMutability": "nonpayable",
      "type": "function"
    },
    {
      "inputs": [
        {
          "internalType": "bytes[]",
          "name": "calls",
          "type": "bytes[]"
        }
      ],
      "name": "multicall",
      "outputs": [
        {
          "internalType": "bytes[]",
          "name": "results",
          "type": "bytes[]"
        }
      ],
      "stateMutability": "payable",
      "type": "function"
    },
    {
      "inputs": [
        {
          "internalType": "bytes32",
          "name": "",
          "type": "bytes32"
        }
      ],
      "name": "observationCount",
      "outputs": [
        {
          "internalType": "uint8",
          "name": "",
          "type": "uint8"
        }
      ],
      "stateMutability": "view",
      "type": "function"
    },
    {
      "inputs": [
        {
          "internalType": "bytes32",
          "name": "",
          "type": "bytes32"
        }
      ],
      "name": "observationIndex",
      "outputs": [
        {
          "internalType": "uint8",
          "name": "",
          "type": "uint8"
        }
      ],
      "stateMutability": "view",
      "type": "function"
    },
    {
      "inputs": [
        {
          "components": [
            {
              "components": [
                {
                  "internalType": "address",
                  "name": "token0",
                  "type": "address"
                },
                {
                  "internalType": "address",
                  "name": "token1",
                  "type": "address"
                },
                {
                  "internalType": "uint24",
                  "name": "fee",
                  "type": "uint24"
                },
                {
                  "internalType": "int24",
                  "name": "tickLower",
                  "type": "int24"
                },
                {
                  "internalType": "int24",
                  "name": "tickUpper",
                  "type": "int24"
                },
                {
                  "internalType": "bytes",
                  "name": "extraData",
                  "type": "bytes"
                }
              ],
              "internalType": "struct IAdapter.PoolData",
              "name": "pool",
              "type": "tuple"
            },
            {
              "internalType": "uint256",
              "name": "amount0Desired",
              "type": "uint256"
            },
            {
              "internalType": "uint256",
              "name": "amount1Desired",
              "type": "uint256"
            },
            {
              "internalType": "uint256",
              "name": "amount0Min",
              "type": "uint256"
            },
            {
              "internalType": "uint256",
              "name": "amount1Min",
              "type": "uint256"
            },
            {
              "internalType": "address",
              "name": "recipient",
              "type": "address"
            }
          ],
          "internalType": "struct IAdapter.LiquidityParams",
          "name": "params",
          "type": "tuple"
        },
        {
          "internalType": "uint256",
          "name": "deadline",
          "type": "uint256"
        }
      ],
      "name": "openPosition",
      "outputs": [
        {
          "internalType": "uint256",
          "name": "dexTokenId",
          "type": "uint256"
        },
        {
          "internalType": "uint128",
          "name": "liquidity",
          "type": "uint128"
        }
      ],
      "stateMutability": "payable",
      "type": "function"
    },
    {
      "inputs": [],
      "name": "owner",
      "outputs": [
        {
          "internalType": "address",
          "name": "",
          "type": "address"
        }
      ],
      "stateMutability": "view",
      "type": "function"
    },
    {
      "inputs": [],
      "name": "poolManager",
      "outputs": [
        {
          "internalType": "contract IPoolManager",
          "name": "",
          "type": "address"
        }
      ],
      "stateMutability": "view",
      "type": "function"
    },
    {
      "inputs": [
        {
          "internalType": "uint256",
          "name": "",
          "type": "uint256"
        }
      ],
      "name": "positions",
      "outputs": [
        {
          "components": [
            {
              "internalType": "Currency",
              "name": "currency0",
              "type": "address"
            },
            {
              "internalType": "Currency",
              "name": "currency1",
              "type": "address"
            },
            {
              "internalType": "uint24",
              "name": "fee",
              "type": "uint24"
            },
            {
              "internalType": "int24",
              "name": "tickSpacing",
              "type": "int24"
            },
            {
              "internalType": "contract IHooks",
              "name": "hooks",
              "type": "address"
            }
          ],
          "internalType": "struct PoolKey",
          "name": "key",
          "type": "tuple"
        },
        {
          "internalType": "address",
          "name": "owner",
          "type": "address"
        },
        {
          "internalType": "int24",
          "name": "tickLower",
          "type": "int24"
        },
        {
          "internalType": "int24",
          "name": "tickUpper",
          "type": "int24"
        },
        {
          "internalType": "uint128",
          "name": "liquidity",
          "type": "uint128"
        }
      ],
      "stateMutability": "view",
      "type": "function"
    },
    {
      "inputs": [
        {
          "internalType": "bytes32",
          "name": "",
          "type": "bytes32"
        },
        {
          "internalType": "uint256",
          "name": "",
          "type": "uint256"
        }
      ],
      "name": "priceObservations",
      "outputs": [
        {
          "internalType": "uint160",
          "name": "sqrtPriceX96",
          "type": "uint160"
        },
        {
          "internalType": "uint32",
          "name": "timestamp",
          "type": "uint32"
        }
      ],
      "stateMutability": "view",
      "type": "function"
    },
    {
      "inputs": [
        {
          "components": [
            {
              "internalType": "address",
              "name": "token0",
              "type": "address"
            },
            {
              "internalType": "address",
              "name": "token1",
              "type": "address"
            },
            {
              "internalType": "uint24",
              "name": "fee",
              "type": "uint24"
            },
            {
              "internalType": "int24",
              "name": "tickLower",
              "type": "int24"
            },
            {
              "internalType": "int24",
              "name": "tickUpper",
              "type": "int24"
            },
            {
              "internalType": "bytes",
              "name": "extraData",
              "type": "bytes"
            }
          ],
          "internalType": "struct IAdapter.PoolData",
          "name": "poolData",
          "type": "tuple"
        }
      ],
      "name": "recordPriceObservation",
      "outputs": [],
      "stateMutability": "nonpayable",
      "type": "function"
    },
    {
      "inputs": [],
      "name": "renounceOwnership",
      "outputs": [],
      "stateMutability": "nonpayable",
      "type": "function"
    },
    {
      "inputs": [
        {
          "internalType": "uint256",
          "name": "tokenId",
          "type": "uint256"
        },
        {
          "internalType": "address",
          "name": "operator",
          "type": "address"
        },
        {
          "internalType": "bool",
          "name": "approved",
          "type": "bool"
        }
      ],
      "name": "setOperatorApproval",
      "outputs": [],
      "stateMutability": "nonpayable",
      "type": "function"
    },
    {
      "inputs": [
        {
          "internalType": "uint16",
          "name": "_maxDeviationBps",
          "type": "uint16"
        },
        {
          "internalType": "uint32",
          "name": "_minWindow",
          "type": "uint32"
        },
        {
          "internalType": "bool",
          "name": "_enabled",
          "type": "bool"
        }
      ],
      "name": "setTWAPConfig",
      "outputs": [],
      "stateMutability": "nonpayable",
      "type": "function"
    },
    {
      "inputs": [
        {
          "components": [
            {
              "internalType": "address",
              "name": "token0",
              "type": "address"
            },
            {
              "internalType": "address",
              "name": "token1",
              "type": "address"
            },
            {
              "internalType": "uint24",
              "name": "fee",
              "type": "uint24"
            },
            {
              "internalType": "int24",
              "name": "tickLower",
              "type": "int24"
            },
            {
              "internalType": "int24",
              "name": "tickUpper",
              "type": "int24"
            },
            {
              "internalType": "bytes",
              "name": "extraData",
              "type": "bytes"
            }
          ],
          "internalType": "struct IAdapter.PoolData",
          "name": "poolData",
          "type": "tuple"
        },
        {
          "internalType": "bool",
          "name": "zeroForOne",
          "type": "bool"
        },
        {
          "internalType": "int256",
          "name": "amountSpecified",
          "type": "int256"
        },
        {
          "internalType": "uint160",
          "name": "sqrtPriceLimitX96",
          "type": "uint160"
        },
        {
          "internalType": "uint256",
          "name": "deadline",
          "type": "uint256"
        }
      ],
      "name": "swap",
      "outputs": [
        {
          "internalType": "int256",
          "name": "amount0",
          "type": "int256"
        },
        {
          "internalType": "int256",
          "name": "amount1",
          "type": "int256"
        }
      ],
      "stateMutability": "payable",
      "type": "function"
    },
    {
      "inputs": [
        {
          "internalType": "address",
          "name": "newOwner",
          "type": "address"
        }
      ],
      "name": "transferOwnership",
      "outputs": [],
      "stateMutability": "nonpayable",
      "type": "function"
    },
    {
      "inputs": [],
      "name": "twapValidationEnabled",
      "outputs": [
        {
          "internalType": "bool",
          "name": "",
          "type": "bool"
        }
      ],
      "stateMutability": "view",
      "type": "function"
    },
    {
      "inputs": [
        {
          "internalType": "bytes",
          "name": "data",
          "type": "bytes"
        }
      ],
      "name": "unlockCallback",
      "outputs": [
        {
          "internalType": "bytes",
          "name": "",
          "type": "bytes"
        }
      ],
      "stateMutability": "nonpayable",
      "type": "function"
    },
    {
      "stateMutability": "payable",
      "type": "receive"
    }
  ],
  "bytecode": "0x60a0346101a957601f61550938819003918201601f19168301916001600160401b038311848410176101ae578084926020946040528339810103126101a957516001600160a01b038116908190036101a95733156101935760008054336001600160a01b0319821681178355604051939290916001600160a01b0316907f8be0079c531659141344cd1fd0a4f28419497f9722a3daafe3b4186f6b6457e09080a3660100000000000063012c01f466ffffffffffffff196007541617176007558015610182576080526001805561534490816101c5823960805181818161035201528181610559015281816108ba01528181610ad801528181610bd801528181611082015281816113b00152818161155301528181611675015281816117e4015281816119da01528181611bd10152818161209c0152818161221101528181612d640152818161333c015281816136ac0152818161385d01528181613b3901528181613cd20152818161414201528181614f800152818161503d01526150910152f35b63bc12814760e01b60005260046000fd5b631e4fbdf760e01b600052600060045260246000fd5b600080fd5b634e487b7160e01b600052604160045260246000fdfe6080604052600436101561001b575b361561001957600080fd5b005b60003560e01c806303a3f2ab1461025b57806312d7b2c414610256578063151ab1aa146102515780632ed9666f1461024c5780633ca5252614610247578063519f5099146102425780635d39fe781461023d578063609c6d7f14610238578063647ca8ae146102335780636cae7bf71461022e5780636e075674146102295780636f12fb4d14610224578063715018a61461021f57806378b7c7a31461021a57806379baa1a214610215578063838ac6fd146102105780638da5cb5b1461020b57806391dd73461461020657806399fbab8814610201578063a3d1854f146101fc578063a5e9dcd8146101f7578063ac9650d8146101f2578063afa83e68146101ed578063b7f045d9146101e8578063b86a0aaa146101e3578063be7c60c2146101de578063c9b0aafa146101d9578063d82b5378146101d4578063dc4c90d3146101cf578063dcfd4788146101ca578063e864f64d146101c5578063eb02c301146101c0578063f2383786146101bb578063f2fde38b146101b6578063f67bffe1146101b15763fae3d4180361000e57611b5f565b611b29565b611a9c565b61195a565b611866565b611736565b6116cf565b61165f565b6114e8565b61143b565b611368565b61133a565b6112e4565b611220565b611110565b611052565b611005565b610f75565b610d92565b610d0d565b610cde565b610cbc565b610c96565b610c3d565b610ba1565b610b7a565b610a72565b610a4c565b610a18565b6107ef565b61070d565b6106f1565b6106b7565b610672565b6104bf565b610276565b6001600160801b0381160361027157565b600080fd5b346102715760a03660031901126102715760043560243561029681610260565b6064359160443560843542116104ae576102ba826000526002602052604060002090565b6003810154336001600160a01b039091160361049e5760048101916102f56102e984546001600160801b031690565b6001600160801b031690565b906001600160801b03861691821161048d5761034d966103336000926103256040519384928b8b60208601611cbc565b03601f198101835282610e4c565b604051809881926348c8949160e01b835260048301610d7e565b0381837f00000000000000000000000000000000000000000000000000000000000000006001600160a01b03165af1908115610488576104387f17353b57db63b5560cf61829be56cecd7ee820d06e59f02de8c518bd31ef5f909461044d946104076103d261043d966103ed9c600091610465575b5060208082518301019101611d74565b9b84919b6103e88e96546001600160801b031690565b611da0565b6001600160801b03166001600160801b0319825416179055565b8054610424908a9033906001600160a01b03166127b1565b6127b1565b6001015433906001600160a01b03166127b1565b611dc0565b6040519081529081906020820190565b0390a2604080519182526020820192909252f35b0390f35b61048291503d806000833e61047a8183610e4c565b810190611d0a565b386103c2565b611d68565b63673f032f60e11b60005260046000fd5b6282b42960e81b60005260046000fd5b631ab7da6b60e01b60005260046000fd5b60c03660031901126102715760243560843560043560643560443560a43542116104ae576104f7836000526002602052604060002090565b6003810154909490336001600160a01b039091160361049e578561032561053a9260009561055499610655575b85610635575b6040519586948960208701611dd1565b604051809581926348c8949160e01b835260048301610d7e565b0381837f00000000000000000000000000000000000000000000000000000000000000006001600160a01b03165af19283156104885760046105af610461956105cb9360009161061a575b5060208082518301019101611e02565b93016103ed846105c683546001600160801b031690565b611e17565b6040516001600160801b03831681527f17353b57db63b5560cf61829be56cecd7ee820d06e59f02de8c518bd31ef5f9090602090a26040516001600160801b0390911681529081906020820190565b61062f91503d806000833e61047a8183610e4c565b3861059f565b600189015461065090879033906001600160a01b0316612834565b61052a565b885461066d90859033906001600160a01b0316612834565b610524565b3461027157602036600319011261027157600435600052600260205260408060002060018060a01b03815416906001808060a01b039101541682519182526020820152f35b34610271576020366003190112610271576004356000526006602052602060ff60406000205416604051908152f35b600091031261027157565b34610271576000366003190112610271576020604051600a8152f35b346102715760203660031901126102715760043560009081526002602081815260409283902060038101548154600183015460049093015486516001600160a01b0380851682529283169581019590955292169483019490945260a084811c840b606084015260b89490941c90920b60808201526001600160801b039091169181019190915260c090f35b908160c09103126102715790565b60243590811515820361027157565b60443590811515820361027157565b3590811515820361027157565b6001600160a01b0381160361027157565b35906107ed826107d1565b565b60a0366003190112610271576004356001600160401b0381116102715761081a903690600401610798565b6108226107a6565b906044359060643590610834826107d1565b60843542116104ae576108b5916108566108516000933690611e8e565b6128c7565b93858314610a055784516001600160a01b03165b8382126109ea575b506001600160a01b038216156109af575b61089b90610325604051938492898960208601611f39565b604051809381926348c8949160e01b835260048301610d7e565b0381837f00000000000000000000000000000000000000000000000000000000000000006001600160a01b03165af18015610488576109287f2fd02811cd8076705fa320b0187fa94001eb60e494a2fafd9fa9f35cbb8f0e8991600093849161099b575060208082518301019101611d74565b94819481851461098c57602001516001600160a01b03165b81851461098657865b858113610974575b50506040805191151582526020820192909252908101859052806060810161044d565b61097f9133906127b1565b3880610951565b82610949565b516001600160a01b0316610940565b61048291503d8086833e61047a8183610e4c565b9050818583146109cc575061089b6401000276a45b919050610883565b5061089b73fffd8963efd1fc6a506488495d951d5263988d256109c4565b6109ff906109f783611dc0565b903390612834565b38610872565b60208501516001600160a01b031661086a565b34610271576040366003190112610271576020610a42602435600435610a3d826107d1565b611f7a565b6040519015158152f35b34610271576020366003190112610271576020610a6a60043561206e565b604051908152f35b346102715760403660031901126102715760043560243542116104ae57610aa3816000526002602052604060002090565b6003810154336001600160a01b039091160361049e57610ad391600060405161053a8161032585602083016121c1565b0381837f00000000000000000000000000000000000000000000000000000000000000006001600160a01b03165af192831561048857610b4193610b2891600091610465575060208082518301019101611d74565b81936104248296933361041f845460018060a01b031690565b60408051838152602081018590527fa54e6c2fc0861aa9c991b26891d71059d517983b9e84b91020f42609c452eb9d918190810161044d565b3461027157600036600319011261027157602063ffffffff60075460101c16604051908152f35b3461027157602036600319011261027157600435600052600260205261046160406000206003610bfc60a0610bd584610e9a565b207f00000000000000000000000000000000000000000000000000000000000000006129b2565b505092905001549060020b8160a01c60020b8112159182610c2c575b505060405190151581529081906020820190565b60b81c60020b121590503880610c18565b3461027157600036600319011261027157610c56612a3f565b600080546001600160a01b0319811682556001600160a01b03167f8be0079c531659141344cd1fd0a4f28419497f9722a3daafe3b4186f6b6457e08280a3005b3461027157600036600319011261027157602060ff60075460301c166040519015158152f35b3461027157600036600319011261027157602061ffff60075416604051908152f35b34610271576020366003190112610271576004356000526005602052602060ff60406000205416604051908152f35b34610271576000366003190112610271576000546040516001600160a01b039091168152602090f35b60005b838110610d495750506000910152565b8181015183820152602001610d39565b90602091610d7281518092818552858086019101610d36565b601f01601f1916010190565b906020610d8f928181520190610d59565b90565b34610271576020366003190112610271576004356001600160401b0381116102715736602382011215610271578060040135906001600160401b03821161027157366024838301011161027157610461916024610def920161220e565b60405191829182610d7e565b634e487b7160e01b600052604160045260246000fd5b60a081019081106001600160401b03821117610e2c57604052565b610dfb565b60c081019081106001600160401b03821117610e2c57604052565b90601f801991011681019081106001600160401b03821117610e2c57604052565b604051906107ed60a083610e4c565b604051906107ed608083610e4c565b604051906107ed606083610e4c565b90604051610ea781610e11565b82546001600160a01b0390811682526001840154808216602084015262ffffff60a082901c16604084015260b81c600290810b6060840152909301549092166080830152565b80516001600160a01b03908116835260208083015182169084015260408083015162ffffff169084015260608083015160020b9084015260809182015116910152565b93610100936001600160801b039397969297610f518761012081019a610eed565b6001600160a01b031660a0870152600290810b60c08701520b60e085015216910152565b346102715760203660031901126102715760043560005260026020526040600020610f9f81610e9a565b906104616001600160801b0360046003840154930154166040519383859460b81c60020b918160a01c60020b9160018060a01b03169086610f30565b602060031982011261027157600435906001600160401b03821161027157610d8f91600401610798565b3461027157608062ffffff8061102b60a0610bd56108513661102636610fdb565b611e8e565b9294916040519560018060a01b0316865260020b6020860152166040840152166060820152f35b346102715761001961107861085161106936610fdb565b611071612a3f565b3690611e8e565b60a06110a68183207f00000000000000000000000000000000000000000000000000000000000000006129b2565b5050509120614591565b602081016020825282518091526040820191602060408360051b8301019401926000915b8383106110e357505050505090565b9091929394602080611101600193603f198682030187528951610d59565b970193019301919392906110d4565b6020366003190112610271576004356001600160401b0381116102715736602382011215610271578060040135906001600160401b038211610271576024810190602436918460051b010111610271576111698261233c565b9160005b818110611182576040518061046186826110b0565b600080611190838587612386565b906111a0604051809381936123c7565b0390305af46111ad6123d5565b90156111d357906001916111c18287612405565b526111cc8186612405565b500161116d565b8051156111e257805190602001fd5b60405162461bcd60e51b8152602060048201526016602482015275135d5b1d1a58d85b1b0e8818d85b1b0819985a5b195960521b6044820152606490fd5b3461027157606036600319011261027157602435600435611240826107d1565b6112486107b5565b6000828152600260205260409020600301549092906001600160a01b0316330361049e5760008281526003602090815260408083206001600160a01b038516845290915290207fc6781b1a6a4632f560084983248b487381decef7bffb8b0705a6109281c3fffd916112df91805460ff191660ff9615159687161790556040519485526001600160a01b0316939081906020820190565b0390a3005b3461027157604036600319011261027157602060ff61132e60243560043561130b826107d1565b6000526003845260406000209060018060a01b0316600052602052604060002090565b54166040519015158152f35b3461027157602036600319011261027157611356600435612419565b60408051928352602083019190915290f35b346102715761138860a06113826108513661102636610fdb565b20614e4a565b6003810180911161143657604051631e2eaeaf60e01b815260048101919091526020816024817f00000000000000000000000000000000000000000000000000000000000000006001600160a01b03165afa8015610488576001600160801b0391600091611407575b5060405191166001600160801b03168152602090f35b611429915060203d60201161142f575b6114218183610e4c565b8101906129a3565b386113f1565b503d611417565b611d8a565b346102715760603660031901126102715760043561ffff8116809103610271576024359063ffffffff821690818303610271577fd0c582b11979bb9ba0412264e2ee29ac554e14eab1db1a0e89a544ee82f2c7d29260609261149b6107b5565b6114a3612a3f565b6007549015159265ffffffff00008566ff0000000000008660301b169366ffffffffffffff1916179160101b16171760075560405192835260208301526040820152a1005b346102715760403660031901126102715760043560243542116104ae576115166115123383611f7a565b1590565b61049e5761154e9060006040516115348161032585602083016121d9565b604051809481926348c8949160e01b835260048301610d7e565b0381837f00000000000000000000000000000000000000000000000000000000000000006001600160a01b03165af191821561048857610461926115a491600091611644575b5060208082518301019101612558565b909391926115d760046115c1836000526002602052604060002090565b016103ed846105c683546001600160801b031690565b60408051858152602081018790526001600160801b038416918101919091527feadad33ac6e683cbe4edc4c90bb397154dcdbaf6110d66bcb2a777e5e82b328390606090a2604051938493849160409194936001600160801b039160608501968552602085015216910152565b61165991503d806000833e61047a8183610e4c565b38611594565b34610271576000366003190112610271576040517f00000000000000000000000000000000000000000000000000000000000000006001600160a01b03168152602090f35b634e487b7160e01b600052603260045260246000fd5b600a8210156116ca570190600090565b6116a4565b34610271576040366003190112610271576004356024359060005260046020526040600020600a821015610271576104619161170a916116ba565b5054604080516001600160a01b038316815260a09290921c63ffffffff16602083015290918291820190565b6040366003190112610271576004356001600160401b03811161027157611761903690600401610798565b60243542116104ae57600061032561089b836117a761179a61178e611789846117df99612579565b61258e565b6001600160a01b031690565b6020830135903390612834565b6117cf6117c261178e60206117bc8580612579565b0161258e565b6040830135903390612834565b60405192839133602084016125ea565b0381837f00000000000000000000000000000000000000000000000000000000000000006001600160a01b03165af18015610488576118309160009161184b575b5060208082518301019101612710565b604080519283526001600160801b0391909116602083015290f35b61186091503d806000833e61047a8183610e4c565b38611820565b346102715760203660031901126102715760043561188261272c565b506000526002602052604060002060405161189c81610e11565b6118a582610e9a565b81526104616003830154602083019260018060a01b03821684526119376119296119216119196118f96004604087019a8860a01c60020b8c52606088019860b81c60020b895201546001600160801b031690565b6001600160801b031660808601908152945197516001600160a01b031690565b975160020b90565b935160020b90565b91516001600160801b031690565b9160405195869586610f30565b8060020b0361027157565b35906107ed82611944565b346102715760c03660031901126102715760243560043561197a82611944565b6044359161198783611944565b6084359160643560a43542116104ae576119a46115123384611f7a565b61049e578460020b8360020b121561048d576119d59361053a6000926103256040519384928a898960208701612757565b0381837f00000000000000000000000000000000000000000000000000000000000000006001600160a01b03165af1928315610488577fab06ba321fc46d2d366f95e9cd4954232f79b4bec2e44cf230ed55a70573888093611a489160009161184b575060208082518301019101612710565b9481949193611a7f87604051938493849160409194936001600160801b0391606085019660020b855260020b602085015216910152565b0390a3604080519182526001600160801b03929092166020820152f35b3461027157602036600319011261027157600435611ab9816107d1565b611ac1612a3f565b6001600160a01b03168015611b1357600080546001600160a01b03198116831782556001600160a01b0316907f8be0079c531659141344cd1fd0a4f28419497f9722a3daafe3b4186f6b6457e09080a3005b631e4fbdf760e01b600052600060045260246000fd5b34610271576020366003190112610271576040611b47600435614bc2565b82516001600160a01b03909216825215156020820152f35b346102715760803660031901126102715760443560243560043560643542116104ae57611b96816000526002602052604060002090565b6003810154909290336001600160a01b039091160361049e57611bcc9361053a600092610325604051938492876020850161278e565b0381837f00000000000000000000000000000000000000000000000000000000000000006001600160a01b03165af192831561048857611c2193610b2891600091610465575060208082518301019101611d74565b611c56611c38826000526002602052604060002090565b60046000918281558260018201558260028201558260038201550155565b60408051838152602081018590527fa7ec78d0de9c0868ed53f940aa8e215f9941a44ad08631ca28ea721abd2ef6de918190810161044d565b60081115611c9957565b634e487b7160e01b600052602160045260246000fd5b906008821015611c995752565b909493926001600160801b0360809360a0840197611cdb856002611caf565b602085015216604083015260608201520152565b6001600160401b038111610e2c57601f01601f191660200190565b602081830312610271578051906001600160401b038211610271570181601f82011215610271578051611d3c81611cef565b92611d4a6040519485610e4c565b8184526020828401011161027157610d8f9160208085019101610d36565b6040513d6000823e3d90fd5b9190826040910312610271576020825192015190565b634e487b7160e01b600052601160045260246000fd5b906001600160801b03809116911603906001600160801b03821161143657565b600160ff1b81146114365760000390565b60c0810196959460a09491939092611dea856001611caf565b60208501526040840152606083015260808201520152565b908160209103126102715751610d8f81610260565b906001600160801b03809116911601906001600160801b03821161143657565b359062ffffff8216820361027157565b81601f8201121561027157803590611e5e82611cef565b92611e6c6040519485610e4c565b8284526020838301011161027157816000926020809301838601378301015290565b919060c0838203126102715760405190611ea782610e31565b81938035611eb4816107d1565b8352611ec2602082016107e2565b6020840152611ed360408201611e37565b6040840152611ee46060820161194f565b6060840152611ef56080820161194f565b608084015260a0810135916001600160401b0383116102715760a092611f1b9201611e47565b910152565b6001600160a01b03918216908216039190821161143657565b926101009295949195611f60610120860197611f56876005611caf565b6020870190610eed565b151560c085015260e08401526001600160a01b0316910152565b6000818152600260205260409020600301546001600160a01b0380841691161491908215611fa757505090565b60009081526003602090815260408083206001600160a01b0390941683529290522060ff9150541690565b600291820b910b0390627fffff198212627fffff83131761143657565b9060c882029180830460c8149015171561143657565b908160601b91808304600160601b149015171561143657565b90612710820291808304612710149015171561143657565b8181029291811591840414171561143657565b634e487b7160e01b600052601260045260246000fd5b8115612069570490565b612049565b612082906000526002602052604060002090565b60036120c061209a61209384610e9a565b60a0902090565b7f00000000000000000000000000000000000000000000000000000000000000006129b2565b505092905001546120d48160a01c60020b90565b906120df8260020b90565b8360020b9081129081156121a2575b5061219a5760b81c60020b906121048183611fd2565b60020b9283156121915761211b6121219282611fd2565b92611fd2565b8060020b8260020b1260001461218a57505b60020b6000811261218157905b600080821261217a57505b80156121735761215d61216292611fef565b61205f565b906064821161216d57565b60649150565b5050606490565b905061214b565b50600090612140565b9050612133565b50505050606490565b505050600090565b90506121ba6121b48360b81c60020b90565b60020b90565b12386120ee565b9190602060408401936121d5816003611caf565b0152565b9190602060408401936121d5816006611caf565b3590600882101561027157565b9081602091031261027157610d8f906121ed565b907f00000000000000000000000000000000000000000000000000000000000000006001600160a01b0316330361049e5761224b818301836121fa565b61225481611c8f565b801561231b5761226381611c8f565b600181146123115761227481611c8f565b600281146123075761228581611c8f565b600381146122fd5761229681611c8f565b600481146122f3576122a781611c8f565b600581146122e9576122b881611c8f565b600681146122df57806122cc600792611c8f565b146122d657600080fd5b610d8f916140ac565b50610d8f91613c6c565b50610d8f91613ad7565b50610d8f91613980565b50610d8f916137f1565b50610d8f916135fe565b50610d8f91613314565b50610d8f91612d40565b6001600160401b038111610e2c5760051b60200190565b9061234682612325565b6123536040519182610e4c565b8281528092612364601f1991612325565b019060005b82811061237557505050565b806060602080938501015201612369565b91908110156116ca5760051b81013590601e19813603018212156102715701908135916001600160401b038311610271576020018236038113610271579190565b908092918237016000815290565b3d15612400573d906123e682611cef565b916123f46040519384610e4c565b82523d6000602084013e565b606090565b80518210156116ca5760209160051b010190565b61242d906000526002602052604060002090565b906001600160801b0361244a60048401546001600160801b031690565b16801561254f57600361246261209a61209386610e9a565b50505093015461248d61247e61248361247e8460a01c60020b90565b6146c4565b9260b81c60020b90565b6001600160a01b0385811691908316908183116124c85750600095610d8f94936001600160a01b0393506124c19250611f20565b16906149ed565b92956001600160a01b0384169493919285811061250f575050906124f361250995966124f993611f20565b936149ed565b916001600160a01b031690614ac7565b90600090565b81935094612530610d8f9661252a612540946124c196611f20565b926149ed565b906001600160a01b031685614ac7565b956001600160a01b0392611f20565b50600091508190565b908160609103126102715780519160406020830151920151610d8f81610260565b90359060be1981360301821215610271570190565b35610d8f816107d1565b9035601e19823603018112156102715701602081359101916001600160401b03821161027157813603831361027157565b908060209392818452848401376000828201840152601f01601f1916010190565b906125f6826000611caf565b6001600160a01b03166020820152606060408201528135903683900360be19018212156102715761010061270260a06126d46126c187610d8f970160c060608801528035612643816107d1565b600180861b0316610120880152602081013561265e816107d1565b600180861b031661014088015262ffffff61267b60408301611e37565b1661016088015261269e606082013561269381611944565b60020b610180890152565b6126b86126ad6080830161194f565b60020b6101a0890152565b83810190612598565b60c06101c08801526101e08701916125c9565b9560208101356080860152604081013582860152606081013560c0860152608081013560e0860152016107e2565b6001600160a01b0316910152565b91908260409103126102715760208251920151610d8f81610260565b6040519061273982610e11565b60006080838281528260208201528260408201528260608201520152565b60c0810196959460a09491939092612770856007611caf565b602085015260020b604084015260020b606083015260808201520152565b608081019493926060926127a3836004611caf565b602083015260408201520152565b9190811561282f576001600160a01b03831661281d576000809350809281925af16127da6123d5565b50156127e257565b60405162461bcd60e51b8152602060048201526013602482015272115512081d1c985b9cd9995c8819985a5b1959606a1b6044820152606490fd5b6107ed926001600160a01b0316614dc7565b505050565b821561282f576001600160a01b038116612863575050341061285257565b631a84bc4160e21b60005260046000fd5b6040516323b872dd60e01b60208201526001600160a01b0390921660248301523060448301526064808301939093529181526107ed916128a4608483610e4c565b6001600160a01b0316615163565b908160209103126102715751610d8f816107d1565b6128cf61272c565b5060a0810151805190602082106129975761178e81602080610d8f956128f895010191016128b2565b825161298790612910906001600160a01b031661178e565b9361297d61293a604061292f61178e602086015160018060a01b031690565b93015162ffffff1690565b61297161294682614e07565b93612961612952610e6d565b6001600160a01b03909a168a52565b6001600160a01b03166020890152565b62ffffff166040870152565b60020b6060850152565b6001600160a01b03166080830152565b5050610d8f60006128f8565b90816020910312610271575190565b91906129bf602091614e4a565b604051631e2eaeaf60e01b8152600481019190915292839060249082906001600160a01b03165afa91821561048857600092612a1e575b506001600160a01b0382169160a081901c60020b9162ffffff60b883901c81169260d01c1690565b612a3891925060203d60201161142f576114218183610e4c565b90386129f6565b6000546001600160a01b03163303612a5357565b63118cdaa760e01b6000523360045260246000fd5b909160608284031261027157612a7d826121ed565b926020830135612a8c816107d1565b926040810135906001600160401b03821161027157019060c0828203126102715760405191612aba83610e31565b80356001600160401b0381116102715760a092612ad8918301611e8e565b8352602081013560208401526040810135604084015260608101356060840152608081013560808401520135612b0d816107d1565b60a082015290565b908160209103126102715751610d8f81611944565b90929160a090612b3e8360c0810196610eed565b600180831b0316910152565b9061016092612b5c83612b8a93610eed565b8051600290810b60a08501526020820151900b60c0840152604081015160e084015260600151610100830152565b61014061012082015260006101408201520190565b600f0b6f7fffffffffffffffffffffffffffffff1981146114365760000390565b60001981146114365760010190565b8151805182546001600160a01b0319166001600160a01b03919091161782556107ed92600491612d2391608091612c929060208101516001880180546001600160a01b0319166001600160a01b0392909216919091178155612c6b906040830151815462ffffff60a01b191660a09190911b62ffffff60a01b1617606084015160b81b62ffffff60b81b1662ffffff60b81b1991909116179055565b8301516002870180546001600160a01b0319166001600160a01b0392909216919091179055565b60208101516003860180546001600160a01b0319166001600160a01b03909216919091178155612d1590612cf0612ccd604085015160020b90565b828054909162ffffff60a01b1990911660a09190911b62ffffff60a01b16179055565b6060830151815460b89190911b62ffffff60b81b1662ffffff60b81b19909116179055565b01516001600160801b031690565b9101906001600160801b03166001600160801b0319825416179055565b612d4c91810190612a68565b915060018060a01b031690612d6181516128c7565b917f000000000000000000000000000000000000000000000000000000000000000092612d9160a08220856129b2565b5050506001600160a01b0381161561318c575b6001600160a01b03811661317a575b6000612dc761247e60608751015160020b90565b6040612e67612df6612de161247e60808b51015160020b90565b9560208a0196875190858c0196875193614edb565b988851612e37612e186080612e0f606085015160020b90565b93015160020b90565b612e2d612e23610e7c565b93849060020b9052565b60020b6020830152565b6001600160801b038b16848201528560608201528351958680948193632d35e7ed60e11b83528b60048401612b4a565b03926001600160a01b03165af191821561048857600092613148575b50600080918360801d80600f0b92808412938460001461310b5750506102e96102e9612eae92612b9f565b8651909390612ecc9085906001600160a01b031661500e565b61500e565b84600f0b906000821295866000146130cb5750506102e96102e9612eef92612b9f565b6020870151909590612f0b9087906001600160a01b031661500e565b82806130c1575b6130a75750838061309d575b613083575080613076575b61305757508061304a575b613027575090612fc8610d8f9392612fa060015494612f5a612f5587612bc0565b600155565b51612f96612f716080612e0f606085015160020b90565b91612f7a610e6d565b9485526001600160a01b038716602086015260020b6040850152565b60020b6060830152565b6001600160801b0386166080820152612fc3846000526002602052604060002090565b612bcf565b6040516001600160801b038516815282907f9ae0e187a8be558060c9d93c50eb329b8c990d5742b772271bd8f3ff29a1d8f590602090a3610325604051938492602084019092916001600160801b036020916040840195845216910152565b6080840151630a8f6c8d60e41b60005260049190915260245260446000fd5b6000fd5b5060808401518110612f34565b6060860151630a8f6c8d60e41b60005260049190915260245260446000fd5b5060608601518110612f29565b51630a8f6c8d60e41b600052600485905260245260446000fd5b5080518511612f1e565b51630a8f6c8d60e41b600052600484905260245260446000fd5b5080518411612f12565b9096916000126130dc575b50612f0b565b60208801516001600160801b039190911696506131059087908a906001600160a01b0316614f77565b386130d6565b90809592911361311c575b50612ecc565b87516001600160801b039190911694506131429085908a906001600160a01b0316614f77565b38613116565b61316b91925060403d604011613173575b6131638183610e4c565b810190611d74565b509038612e83565b503d613159565b6131878160a08420614ec7565b612db3565b5060208301516040840151908015158061323a575b1561322d576131b961178e9161215d6131be94612005565b614e70565b60405163313b65df60e11b8152602081806131dd858760048401612b2a565b038160006001600160a01b038b165af18015610488576131fe575b50612da4565b61321f9060203d602011613226575b6132178183610e4c565b810190612b15565b50386131f8565b503d61320d565b50600160601b90506131be565b508115156131a1565b91908260c091031261027157613258826121ed565b9160208101359160408201359160608101359160a0608083013592013590565b613301610d8f9360026101409460018060a01b038154168552600181015460018060a01b038116602087015262ffffff8160a01c16604087015260b81c820b6060860152015460018060a01b031660018060a01b0316608084015260a083019060608091805160020b8452602081015160020b6020850152604081015160408501520151910152565b8161012082015201602090600081520190565b90810161332091613243565b93613338919295506000526002602052604060002090565b90817f000000000000000000000000000000000000000000000000000000000000000061336482610e9a565b60a0902061337290826129b2565b50505094600383019586549861338b8a60a01c60020b90565b92613395846146c4565b9a60b81c60020b9a6133a68c6146c4565b906133b094614edb565b976133b9610e7c565b60029290920b825260020b60208201526001600160801b0388166040820152606081016000905260405180958192632d35e7ed60e11b835260048301916133ff92613278565b6001600160a01b039093169203815a604094600091f1928315610488576000936135a5575b50600080918460801d80600f0b92808412938460001461355f5750506102e96102e961344f92612b9f565b81549093906134689085906001600160a01b031661500e565b85600f0b96600088129687600014613507575050506134a590612ec76134956102e96102e960019a612b9f565b978892015460018060a01b031690565b806134fe575b6134de575050806134f5575b6134de575050604080516001600160801b039092166020830152610d8f9082908101610325565b630a8f6c8d60e41b60005260045260245260446000fd5b508181106134b7565b508181106134ab565b90919760001261351a575b5050506134a5565b600192909201546001600160801b03909216965061355791879190613551906001600160a01b03165b91546001600160a01b031690565b90614f77565b388080613512565b908095929113613570575b50613468565b82546001600160801b0391909116945061359f9085906001600160a01b031689546001600160a01b0316613551565b3861356a565b6135bf91935060403d604011613173576131638183610e4c565b509138613424565b908160a0910312610271576135db816121ed565b9160208201359160408101356135f081610260565b916080606083013592013590565b60406136136136a69261362b948101906135c7565b94929093509590956000526002602052604060002090565b946003860154906136816136616001600160801b0361365a6136508660a01c60020b90565b9560b81c60020b90565b9316611dc0565b9161367761366d610e7c565b94859060020b9052565b60020b6020840152565b8282015260006060820152815180958192632d35e7ed60e11b83528860048401613278565b038160007f00000000000000000000000000000000000000000000000000000000000000006001600160a01b03165af1928315610488576000936137b2575b508260801d600f0b60008082136000146137aa5750925b600f0b6000808213156137a25750935b83613787575b8480613763575b505080831061374a575080831061374a5750604080516020810192909252810191909152610d8f8160608101610325565b630a8f6c8d60e41b600052600483905260245260446000fd5b6001919091015461378091906001600160a01b03165b3090614f77565b3884613719565b805461379d9085906001600160a01b0316613779565b613712565b90509361370c565b9050926136fc565b6137cc91935060403d604011613173576131638183610e4c565b5091386136e5565b91908260409103126102715760206137eb836121ed565b92013590565b61380190613813928101906137d4565b90506000526002602052604060002090565b61385760406003830154613830612e186124838360a01c60020b90565b60008282015260006060820152815180938192632d35e7ed60e11b83528660048401613278565b038160007f00000000000000000000000000000000000000000000000000000000000000006001600160a01b03165af1801561048857610d8f91600091613937575b508060801d600f0b600080821360001461392f5750905b600f0b6000808213156139275750925b8161390c575b83806138eb575b50506040805160208101929092528101929092528160608101610325565b6001919091015461390591906001600160a01b0316613779565b38836138cd565b80546139229083906001600160a01b0316613779565b6138c6565b9050926138c0565b9050906138b0565b613950915060403d604011613173576131638183610e4c565b5038613899565b91908260809103126102715761396c826121ed565b916020810135916060604083013592013590565b6139936136a6916139a793810190613957565b925093906000526002602052604060002090565b92604060038501546139c96139bf8260a01c60020b90565b9160b81c60020b90565b6136816136616104386102e960048b01546001600160801b031690565b8091039161012083126102715760a06139fe836121ed565b93601f19011261027157604051613a1481610e11565b6020830135613a22816107d1565b81526040830135613a32816107d1565b6020820152613a4360608401611e37565b60408201526080830135613a5681611944565b606082015260a0830135613a69816107d1565b608082015291613a7b60c082016107c4565b91610d8f61010060e084013593016107e2565b9091613a9d8261014094610eed565b8051151560a0830152602081015160c0830152604001516001600160a01b031660e082015261012061010082018190526000908201520190565b6020613aec613b3392613b18948101906139e6565b919350613b04613afd979397610e8b565b9415158552565b838501526001600160a01b03166040830152565b60405180938192633cf3645360e21b83528660048401613a8e565b038160007f00000000000000000000000000000000000000000000000000000000000000006001600160a01b03165af1801561048857610d8f91600091613c40575b508060801d600f0b90600f0b9260008212600014613c1c578051613bab906001600160a01b0316613ba584611dc0565b9061500e565b6000841215613bea5760200151613bce906001600160a01b0316613ba585611dc0565b6040805160208101929092528101929092528160608101610325565b8360008113613bfb575b5050613bce565b60209190910151613c1591906001600160a01b0316613779565b3883613bf4565b6000821315613bab578051613c3b9083906001600160a01b0316613779565b613bab565b613c59915060203d60201161142f576114218183610e4c565b38613b75565b9190820391821161143657565b61380190613c7c928101906137d4565b60038101613d18815491613cc2613ca3613c998560a01c60020b90565b9460b81c60020b90565b613cb8613cae610e7c565b95869060020b9052565b60020b6020850152565b60006040840152600060608401527f000000000000000000000000000000000000000000000000000000000000000093604060018060a01b03861694815180958192632d35e7ed60e11b83528560048401613278565b03816000885af192831561048857600093614043575b508260801d600f0b600080821360001461403b5750925b600f0b6000808213156140335750945b83158015614018575b86158015613ffa575b81613ff2575b50613fc757613d8890613d8261209384610e9a565b906129b2565b50505093613da185613d9c61209385610e9a565b614ec7565b825494613ddd8786613db68960a01c60020b90565b93613dcd613dc3866146c4565b9a60b81c60020b90565b99613dd78b6146c4565b91614edb565b956001600160801b0387169081613e25575b50506040805160208101969096528501969096525050506001600160801b0390911660608201529050610d8f8160808101610325565b92604092613e6792613e416000989a979661367761366d610e7c565b848201528660608201528351968780948193632d35e7ed60e11b83528860048401613278565b03925af1801561048857610d8f9561032594600092613fa5575b50600080928060801d600081600f0b12613f74575b50600f0b60008112613f40575b5080871115613f3757613eb69087613c5f565b915b80891115613f2e57613eca9089613c5f565b915b80613f07575b5081613ee0575b8396613def565b613ef96135436001613eff95015460018060a01b031690565b906127b1565b388080613ed9565b8354613f2891906001600160a01b03165b83546001600160a01b0316613ef9565b38613ed2565b50600091613ecc565b50600091613eb8565b613f529193506102e96102e991612b9f565b6001840154909290613f6e9084906001600160a01b031661500e565b38613ea3565b613f869192506102e96102e991612b9f565b8454909190613f9f9083906001600160a01b031661500e565b38613e96565b613fbf91925060403d604011613173576131638183610e4c565b509038613e81565b505050505050604051610d8f8161032560208201906000604060608401938281528260208201520152565b905038613d6d565b60018401546140139089906001600160a01b0316613779565b613d67565b825461402e9086906001600160a01b0316613779565b613d5e565b905094613d55565b905092613d45565b61405d91935060403d604011613173576131638183610e4c565b509138613d2e565b91908260c09103126102715761407a826121ed565b91602081013591604082013561408f81611944565b91606081013561409e81611944565b9160a0608083013592013590565b6140bc9061418892810190614065565b9295945090926140d6816000526002602052604060002090565b600381018054946140f76140ed8760a01c60020b90565b9660b81c60020b90565b6141346141146104386102e960048801546001600160801b031690565b9161412a614120610e7c565b998a9060020b9052565b60020b6020890152565b6040870152600060608701527f000000000000000000000000000000000000000000000000000000000000000095604060018060a01b038816918151809b8192632d35e7ed60e11b83528860048401613278565b03816000855af19889156104885760009961450b575b506000966000998060801d600f0b600081136144ec575b50600f0b600081136144b2575b509160406142546001600160801b039c938b6142138e8d6120936142018d613d9c6141f660009f9e613d8261209385610e9a565b505050938492610e9a565b61420a8a6146c4565b613dd7866146c4565b9e8f61422d614220610e7c565b60028a900b815293613cb8565b16848201528760608201528351978880948193632d35e7ed60e11b83528c60048401613278565b03925af193841561048857600094614490575b506000966000948060801d600081600f0b1261445f575b50600f0b6000811261442b575b5080881091828015614422575b6143e457505050600154976142ac89612bc0565b60015582546001600160a01b0316916142c3610e6d565b926142cd87610e9a565b84526001600160a01b0316602084015260020b604083015260020b60608201526001600160801b038a166080820152614310886000526002602052604060002090565b9061431a91612bcf565b610d8f9761436c96611c3896808211156143da5761433791613c5f565b925b808211156143d05761434a91613c5f565b915b806143b5575b5081614394575b5050506000526002602052604060002090565b610325604051938492602084019092916001600160801b036020916040840195845216910152565b613ef961354360016143ad95015460018060a01b031690565b388080614359565b83546143ca91906001600160a01b0316613f18565b38614352565b505060009161434c565b5050600092614339565b61304693508886841561441a5750925b156144125750905b630a8f6c8d60e41b600052600452602452604490565b9050906143fc565b9050926143f4565b50808610614298565b61443d9195506102e96102e991612b9f565b60018601549094906144599086906001600160a01b031661500e565b3861428b565b6144719199506102e96102e991612b9f565b865490989061448a908a906001600160a01b031661500e565b3861427e565b6144aa91945060403d604011613173576131638183610e4c565b509238614267565b995091848894938a9c938c9d8e9d60018501546144d49060018060a01b031690565b90306144df92614f77565b50939c50919394506141c2565b8654909950614505908a906001600160a01b0316613779565b386141b5565b61452591995060403d604011613173576131638183610e4c565b50973861419e565b9190614569578051825460209092015163ffffffff60a01b60a09190911b166001600160c01b03199092166001600160a01b0390911617179055565b634e487b7160e01b600052600060045260246000fd5b60ff60019116019060ff821161143657565b907f2b7eab7e07c76303b2db788022767249e807d2e91aa20e3dab6fca188b062b399063ffffffff42169083600052600560205260ff6040600020541661466e61464b61464160ff6145ed896000526006602052604060002090565b54169361463c604051614601604082610e4c565b6001600160a01b038816815263ffffffff89166020820152614636836146318d6000526004602052604060002090565b6116ba565b9061452d565b61457f565b60ff600a91160690565b61465f876000526005602052604060002090565b9060ff1660ff19825416179055565b600a60ff82161061469e575b50604080516001600160a01b0392909216825263ffffffff929092166020820152a2565b6146aa6146be9161457f565b61465f866000526006602052604060002090565b3861467a565b60020b908160ff1d82810118620d89e881116149e05763ffffffff9192600182167001fffcb933bd6fad37aa2d162d1a59400102600160801b1891600281166149c4575b600481166149a8575b6008811661498c575b60108116614970575b60208116614954575b60408116614938575b6080811661491c575b6101008116614900575b61020081166148e4575b61040081166148c8575b61080081166148ac575b6110008116614890575b6120008116614874575b6140008116614858575b618000811661483c575b620100008116614820575b620200008116614805575b6204000081166147ea575b62080000166147d1575b6000126147c8575b0160201c90565b600019046147c1565b6b048a170391f7dc42444e8fa290910260801c906147b9565b6d2216e584f5fa1ea926041bedfe9890920260801c916147af565b916e5d6af8dedb81196699c329225ee6040260801c916147a4565b916f09aa508b5b7a84e1c677de54f3e99bc90260801c91614799565b916f31be135f97d08fd981231505542fcfa60260801c9161478e565b916f70d869a156d2a1b890bb3df62baf32f70260801c91614784565b916fa9f746462d870fdf8a65dc1f90e061e50260801c9161477a565b916fd097f3bdfd2022b8845ad8f792aa58250260801c91614770565b916fe7159475a2c29b7443b29c7fa6e889d90260801c91614766565b916ff3392b0822b70005940c7a398e4b70f30260801c9161475c565b916ff987a7253ac413176f2b074cf7815e540260801c91614752565b916ffcbe86c7900a88aedcffc83b479aa3a40260801c91614748565b916ffe5dee046a99a2a811c461f1969c30530260801c9161473e565b916fff2ea16466c96a3843ec78b326b528610260801c91614735565b916fff973b41fa98c081472e6896dfb254c00260801c9161472c565b916fffcb9843d60f6159c9db58835c9266440260801c91614723565b916fffe5caca7e10e4e61c3624eaa0941cd00260801c9161471a565b916ffff2e50f5f656932ef12357cf3c7fdcc0260801c91614711565b916ffff97272373d413259a46990580e213a0260801c91614708565b8261514c565b1561027157565b818102919060001982820991838084109303928084039384600160601b11156102715714614a2e57600160601b910990828211900360a01b910360601c1790565b50505060601c90565b90606082901b90600019600160601b8409928280851094039380850394614a5f8685116149e6565b14614ac0578190600160601b9009818060000316809204600281600302188082026002030280820260020302808202600203028082026002030280820260020302809102600203029360018380600003040190848311900302920304170290565b5091500490565b9181830291600019818509938380861095039480860395614ae98786116149e6565b14614b455790829109818060000316809204600281600302188082026002030280820260020302808202600203028082026002030280820260020302809102600203029360018380600003040190848311900302920304170290565b505091500490565b9190820180921161143657565b90604051604081018181106001600160401b03821117610e2c5760405291546001600160a01b038116835260a01c63ffffffff166020830152565b9063ffffffff8091169116039063ffffffff821161143657565b60ff6000199116019060ff821161143657565b614be0614bd9826000526006602052604060002090565b5460ff1690565b9060ff82169060028210614dbc57614c05614bd9826000526005602052604060002090565b4263ffffffff1690600a841015614da85750614c53614c4d6020614c42614c3c60005b614631886000526004602052604060002090565b50614b5a565b015163ffffffff1690565b82614b95565b63ffffffff614c77614c6e60075463ffffffff9060101c1690565b63ffffffff1690565b911610614d9c57600092839290835b60ff861682811015614d7157614d1c88614d1660ff948a88600196614cce614cc8614cc2614c3c86614631876000526004602052604060002090565b97614baf565b60ff1690565b03614d26575050614d1063ffffffff614d0761178e614cf98d5b602089015163ffffffff1690614b95565b96516001600160a01b031690565b94168094612036565b90614b4d565b97614b4d565b9601169493614c86565b614d0761178e614cf9614d6c614d5e63ffffffff95614631614d4d614641614d109a61457f565b916000526004602052604060002090565b505460a01c63ffffffff1690565b614ce8565b50945050505091508115614d9257614d8c9161178e9161205f565b90600190565b5050600090600090565b50505050600090600090565b614c4d6020614c42614c3c614c5394614c28565b505050600090600090565b60405163a9059cbb60e01b60208201526001600160a01b0390921660248301526044808301939093529181526107ed91614e02606483610e4c565b615163565b62ffffff1660648114614e44576101f48114614e3e57610bb88114614e385761271014614e3357603c90565b60c890565b50603c90565b50600a90565b50600190565b604051602081019182526006604082015260408152614e6a606082610e4c565b51902090565b9060006003831115614eba5750818060011c6001810180911161143657905b838210614e9a575050565b909250828015612069578082049081018091116114365760011c90614e8f565b91614ec157565b60019150565b906107ed91614ed682826151c5565b614591565b936001600160a01b0383811690831611614f6f575b6001600160a01b03858116959083168611614f11575050610d8f935061529c565b919490939192906001600160a01b0382161115614f63578291614f3891614f3e959461529c565b93615262565b6001600160801b0381166001600160801b03831610600014614f5e575090565b905090565b915050610d8f92615262565b909190614ef0565b90821561282f577f00000000000000000000000000000000000000000000000000000000000000006001600160a01b0316803b1561027157604051630b0d9c0960e01b81526001600160a01b03938416600482015291909216602482015260448101929092526000908290606490829084905af1801561048857614ff85750565b8061500560008093610e4c565b80031261027157565b8115615148576001600160a01b03811661508f5750604051630476982d60e21b815290602090829060049082907f00000000000000000000000000000000000000000000000000000000000000006001600160a01b03165af18015610488576150745750565b61508c9060203d60201161142f576114218183610e4c565b50565b7f00000000000000000000000000000000000000000000000000000000000000006001600160a01b0316803b1561027157604051632961046560e21b81526001600160a01b038316600482015260008160248183865af1938415610488578260209461510c9360009761512e575b506001600160a01b0316614dc7565b600460405180948193630476982d60e21b83525af18015610488576150745750565b8061513c8961514293610e4c565b806106e6565b386150fd565b5050565b6345c3193d60e11b60005260020b60045260246000fd5b906000602091828151910182855af115611d68576000513d6151b557506001600160a01b0381163b155b6151945750565b635274afe760e01b60009081526001600160a01b0391909116600452602490fd5b6001141561518d565b61ffff1690565b906007549160ff8360301c161561282f576151df90614bc2565b9190911561282f576001600160a01b03918216911681811115615245576152206151be6152188461215d6152138287613c5f565b61201e565b9461ffff1690565b831161522b57505050565b63e9b5646f60e01b60005260045260245260445260646000fd5b808203828111611436576151be6152188461215d6152209461201e565b610d8f926152919290916001600160a01b0380831690821611615296575b90036001600160a01b031690614a37565b6152e9565b90615280565b610d8f92615291929091906001600160a01b03808216908316116152e3575b6152d16001600160a01b038281169084166149ed565b9190036001600160a01b031691614ac7565b906152bb565b906001600160801b0382168092036152fd57565b6393dafdf160e01b60005260046000fdfea2646970667358221220cb2b3d53ec38d131ff449a28ddc87b01574f79caebf2015ef41a0ebbd9c11ea064736f6c634300081a0033",
  "linkReferences": {},
  "deployedLinkReferences": {}
}