{
  "_format": "hh-sol-artifact-1",
  "contractName": "UniswapV4AdapterProduction",
  "sourceName": "contracts/UniswapV4AdapterProduction.sol",
  "abi": [
    {
      "inputs": [
        {
          "internalType": "address",
          "name": "_poolManager",
          "type": "address"
        }
      ],
      "stateMutability": "nonpayable",
      "type": "constructor"
    },
    {
      "inputs": [],
      "name": "DeadlineExpired",
      "type": "error"
    },
    {
      "inputs": [],
      "name": "InsufficientETH",
      "type": "error"
    },
    {
      "inputs": [],
      "name": "InvalidPoolManager",
      "type": "error"
    },
    {
      "inputs": [],
      "name": "InvalidPosition",
      "type": "error"
    },
    {
      "inputs": [
        {
          "internalType": "address",
          "name": "owner",
          "type": "address"
        }
      ],
      "name": "OwnableInvalidOwner",
      "type": "error"
    },
    {
      "inputs": [
        {
          "internalType": "address",
          "name": "account",
          "type": "address"
        }
      ],
      "name": "OwnableUnauthorizedAccount",
      "type": "error"
    },
    {
      "inputs": [
        {
          "internalType": "uint256",
          "name": "spotPrice",
          "type": "uint256"
        },
        {
          "internalType": "uint256",
          "name": "twapPrice",
          "type": "uint256"
        },
        {
          "internalType": "uint256",
          "name": "deviationBps",
          "type": "uint256"
        }
      ],
      "name": "PriceDeviationTooHigh",
      "type": "error"
    },
    {
      "inputs": [
        {
          "internalType": "address",
          "name": "token",
          "type": "address"
        }
      ],
      "name": "SafeERC20FailedOperation",
      "type": "error"
    },
    {
      "inputs": [],
      "name": "SettleFailed",
      "type": "error"
    },
    {
      "inputs": [
        {
          "internalType": "uint256",
          "name": "amount",
          "type": "uint256"
        },
        {
          "internalType": "uint256",
          "name": "minAmount",
          "type": "uint256"
        }
      ],
      "name": "SlippageCheckFailed",
      "type": "error"
    },
    {
      "inputs": [],
      "name": "TakeFailed",
      "type": "error"
    },
    {
      "inputs": [],
      "name": "Unauthorized",
      "type": "error"
    },
    {
      "anonymous": false,
      "inputs": [
        {
          "indexed": true,
          "internalType": "uint256",
          "name": "id",
          "type": "uint256"
        },
        {
          "indexed": false,
          "internalType": "uint256",
          "name": "fee0",
          "type": "uint256"
        },
        {
          "indexed": false,
          "internalType": "uint256",
          "name": "fee1",
          "type": "uint256"
        },
        {
          "indexed": false,
          "internalType": "uint128",
          "name": "liquidityAdded",
          "type": "uint128"
        }
      ],
      "name": "AutoCompounded",
      "type": "event"
    },
    {
      "anonymous": false,
      "inputs": [
        {
          "indexed": true,
          "internalType": "uint256",
          "name": "id",
          "type": "uint256"
        },
        {
          "indexed": false,
          "internalType": "uint256",
          "name": "amount0",
          "type": "uint256"
        },
        {
          "indexed": false,
          "internalType": "uint256",
          "name": "amount1",
          "type": "uint256"
        }
      ],
      "name": "FeesCollected",
      "type": "event"
    },
    {
      "anonymous": false,
      "inputs": [
        {
          "indexed": true,
          "internalType": "uint256",
          "name": "id",
          "type": "uint256"
        },
        {
          "indexed": false,
          "internalType": "int256",
          "name": "delta",
          "type": "int256"
        }
      ],
      "name": "LiquidityChanged",
      "type": "event"
    },
    {
      "anonymous": false,
      "inputs": [
        {
          "indexed": true,
          "internalType": "uint256",
          "name": "positionId",
          "type": "uint256"
        },
        {
          "indexed": true,
          "internalType": "address",
          "name": "operator",
          "type": "address"
        },
        {
          "indexed": false,
          "internalType": "bool",
          "name": "approved",
          "type": "bool"
        }
      ],
      "name": "OperatorApproved",
      "type": "event"
    },
    {
      "anonymous": false,
      "inputs": [
        {
          "indexed": true,
          "internalType": "address",
          "name": "previousOwner",
          "type": "address"
        },
        {
          "indexed": true,
          "internalType": "address",
          "name": "newOwner",
          "type": "address"
        }
      ],
      "name": "OwnershipTransferred",
      "type": "event"
    },
    {
      "anonymous": false,
      "inputs": [
        {
          "indexed": true,
          "internalType": "uint256",
          "name": "id",
          "type": "uint256"
        },
        {
          "indexed": false,
          "internalType": "uint256",
          "name": "amount0",
          "type": "uint256"
        },
        {
          "indexed": false,
          "internalType": "uint256",
          "name": "amount1",
          "type": "uint256"
        }
      ],
      "name": "PositionBurned",
      "type": "event"
    },
    {
      "anonymous": false,
      "inputs": [
        {
          "indexed": true,
          "internalType": "uint256",
          "name": "id",
          "type": "uint256"
        },
        {
          "indexed": true,
          "internalType": "address",
          "name": "owner",
          "type": "address"
        },
        {
          "indexed": false,
          "internalType": "uint128",
          "name": "liquidity",
          "type": "uint128"
        }
      ],
      "name": "PositionCreated",
      "type": "event"
    },
    {
      "anonymous": false,
      "inputs": [
        {
          "indexed": true,
          "internalType": "bytes32",
          "name": "poolId",
          "type": "bytes32"
        },
        {
          "indexed": false,
          "internalType": "uint160",
          "name": "sqrtPriceX96",
          "type": "uint160"
        },
        {
          "indexed": false,
          "internalType": "uint32",
          "name": "timestamp",
          "type": "uint32"
        }
      ],
      "name": "PriceObservationRecorded",
      "type": "event"
    },
    {
      "anonymous": false,
      "inputs": [
        {
          "indexed": true,
          "internalType": "uint256",
          "name": "oldPositionId",
          "type": "uint256"
        },
        {
          "indexed": true,
          "internalType": "uint256",
          "name": "newPositionId",
          "type": "uint256"
        },
        {
          "indexed": false,
          "internalType": "int24",
          "name": "newTickLower",
          "type": "int24"
        },
        {
          "indexed": false,
          "internalType": "int24",
          "name": "newTickUpper",
          "type": "int24"
        },
        {
          "indexed": false,
          "internalType": "uint128",
          "name": "newLiquidity",
          "type": "uint128"
        }
      ],
      "name": "RangeMoved",
      "type": "event"
    },
    {
      "anonymous": false,
      "inputs": [
        {
          "indexed": true,
          "internalType": "address",
          "name": "pool",
          "type": "address"
        },
        {
          "indexed": false,
          "internalType": "bool",
          "name": "zeroForOne",
          "type": "bool"
        },
        {
          "indexed": false,
          "internalType": "int256",
          "name": "amount0",
          "type": "int256"
        },
        {
          "indexed": false,
          "internalType": "int256",
          "name": "amount1",
          "type": "int256"
        }
      ],
      "name": "SwapExecuted",
      "type": "event"
    },
    {
      "anonymous": false,
      "inputs": [
        {
          "indexed": false,
          "internalType": "uint16",
          "name": "maxDeviationBps",
          "type": "uint16"
        },
        {
          "indexed": false,
          "internalType": "uint32",
          "name": "minWindow",
          "type": "uint32"
        },
        {
          "indexed": false,
          "internalType": "bool",
          "name": "enabled",
          "type": "bool"
        }
      ],
      "name": "TWAPConfigUpdated",
      "type": "event"
    },
    {
      "inputs": [],
      "name": "MAX_OBSERVATIONS",
      "outputs": [
        {
          "internalType": "uint8",
          "name": "",
          "type": "uint8"
        }
      ],
      "stateMutability": "view",
      "type": "function"
    },
    {
      "inputs": [
        {
          "internalType": "uint256",
          "name": "",
          "type": "uint256"
        },
        {
          "internalType": "address",
          "name": "",
          "type": "address"
        }
      ],
      "name": "approvedOperators",
      "outputs": [
        {
          "internalType": "bool",
          "name": "",
          "type": "bool"
        }
      ],
      "stateMutability": "view",
      "type": "function"
    },
    {
      "inputs": [
        {
          "internalType": "uint256",
          "name": "tokenId",
          "type": "uint256"
        },
        {
          "internalType": "uint256",
          "name": "deadline",
          "type": "uint256"
        }
      ],
      "name": "autoCompound",
      "outputs": [
        {
          "internalType": "uint256",
          "name": "fee0",
          "type": "uint256"
        },
        {
          "internalType": "uint256",
          "name": "fee1",
          "type": "uint256"
        },
        {
          "internalType": "uint128",
          "name": "liquidityAdded",
          "type": "uint128"
        }
      ],
      "stateMutability": "nonpayable",
      "type": "function"
    },
    {
      "inputs": [
        {
          "internalType": "uint256",
          "name": "tokenId",
          "type": "uint256"
        },
        {
          "internalType": "uint256",
          "name": "amount0Min",
          "type": "uint256"
        },
        {
          "internalType": "uint256",
          "name": "amount1Min",
          "type": "uint256"
        },
        {
          "internalType": "uint256",
          "name": "deadline",
          "type": "uint256"
        }
      ],
      "name": "burnPosition",
      "outputs": [
        {
          "internalType": "uint256",
          "name": "amount0",
          "type": "uint256"
        },
        {
          "internalType": "uint256",
          "name": "amount1",
          "type": "uint256"
        }
      ],
      "stateMutability": "nonpayable",
      "type": "function"
    },
    {
      "inputs": [
        {
          "internalType": "uint256",
          "name": "tokenId",
          "type": "uint256"
        },
        {
          "internalType": "uint256",
          "name": "deadline",
          "type": "uint256"
        }
      ],
      "name": "collectFees",
      "outputs": [
        {
          "internalType": "uint256",
          "name": "amount0",
          "type": "uint256"
        },
        {
          "internalType": "uint256",
          "name": "amount1",
          "type": "uint256"
        }
      ],
      "stateMutability": "nonpayable",
      "type": "function"
    },
    {
      "inputs": [
        {
          "internalType": "uint256",
          "name": "tokenId",
          "type": "uint256"
        },
        {
          "internalType": "uint128",
          "name": "liq",
          "type": "uint128"
        },
        {
          "internalType": "uint256",
          "name": "amount0Min",
          "type": "uint256"
        },
        {
          "internalType": "uint256",
          "name": "amount1Min",
          "type": "uint256"
        },
        {
          "internalType": "uint256",
          "name": "deadline",
          "type": "uint256"
        }
      ],
      "name": "decreaseLiquidity",
      "outputs": [
        {
          "internalType": "uint256",
          "name": "amount0",
          "type": "uint256"
        },
        {
          "internalType": "uint256",
          "name": "amount1",
          "type": "uint256"
        }
      ],
      "stateMutability": "nonpayable",
      "type": "function"
    },
    {
      "inputs": [
        {
          "components": [
            {
              "internalType": "address",
              "name": "token0",
              "type": "address"
            },
            {
              "internalType": "address",
              "name": "token1",
              "type": "address"
            },
            {
              "internalType": "uint24",
              "name": "fee",
              "type": "uint24"
            },
            {
              "internalType": "int24",
              "name": "tickLower",
              "type": "int24"
            },
            {
              "internalType": "int24",
              "name": "tickUpper",
              "type": "int24"
            },
            {
              "internalType": "bytes",
              "name": "extraData",
              "type": "bytes"
            }
          ],
          "internalType": "struct IAdapter.PoolData",
          "name": "poolData",
          "type": "tuple"
        }
      ],
      "name": "getPoolInfo",
      "outputs": [
        {
          "internalType": "uint160",
          "name": "sqrtPriceX96",
          "type": "uint160"
        },
        {
          "internalType": "int24",
          "name": "tick",
          "type": "int24"
        },
        {
          "internalType": "uint24",
          "name": "protocolFee",
          "type": "uint24"
        },
        {
          "internalType": "uint24",
          "name": "lpFee",
          "type": "uint24"
        }
      ],
      "stateMutability": "view",
      "type": "function"
    },
    {
      "inputs": [
        {
          "components": [
            {
              "internalType": "address",
              "name": "token0",
              "type": "address"
            },
            {
              "internalType": "address",
              "name": "token1",
              "type": "address"
            },
            {
              "internalType": "uint24",
              "name": "fee",
              "type": "uint24"
            },
            {
              "internalType": "int24",
              "name": "tickLower",
              "type": "int24"
            },
            {
              "internalType": "int24",
              "name": "tickUpper",
              "type": "int24"
            },
            {
              "internalType": "bytes",
              "name": "extraData",
              "type": "bytes"
            }
          ],
          "internalType": "struct IAdapter.PoolData",
          "name": "poolData",
          "type": "tuple"
        }
      ],
      "name": "getPoolLiquidity",
      "outputs": [
        {
          "internalType": "uint128",
          "name": "liquidity",
          "type": "uint128"
        }
      ],
      "stateMutability": "view",
      "type": "function"
    },
    {
      "inputs": [
        {
          "internalType": "uint256",
          "name": "tokenId",
          "type": "uint256"
        }
      ],
      "name": "getPositionHealth",
      "outputs": [
        {
          "internalType": "uint256",
          "name": "health",
          "type": "uint256"
        }
      ],
      "stateMutability": "view",
      "type": "function"
    },
    {
      "inputs": [
        {
          "internalType": "uint256",
          "name": "tokenId",
          "type": "uint256"
        }
      ],
      "name": "getPositionInfo",
      "outputs": [
        {
          "internalType": "address",
          "name": "owner",
          "type": "address"
        },
        {
          "internalType": "address",
          "name": "token0",
          "type": "address"
        },
        {
          "internalType": "address",
          "name": "token1",
          "type": "address"
        },
        {
          "internalType": "int24",
          "name": "tickLower",
          "type": "int24"
        },
        {
          "internalType": "int24",
          "name": "tickUpper",
          "type": "int24"
        },
        {
          "internalType": "uint128",
          "name": "liquidity",
          "type": "uint128"
        }
      ],
      "stateMutability": "view",
      "type": "function"
    },
    {
      "inputs": [
        {
          "internalType": "uint256",
          "name": "tokenId",
          "type": "uint256"
        }
      ],
      "name": "getPositionTokens",
      "outputs": [
        {
          "internalType": "address",
          "name": "token0",
          "type": "address"
        },
        {
          "internalType": "address",
          "name": "token1",
          "type": "address"
        }
      ],
      "stateMutability": "view",
      "type": "function"
    },
    {
      "inputs": [
        {
          "internalType": "uint256",
          "name": "tokenId",
          "type": "uint256"
        }
      ],
      "name": "getPositionValue",
      "outputs": [
        {
          "internalType": "uint256",
          "name": "amount0",
          "type": "uint256"
        },
        {
          "internalType": "uint256",
          "name": "amount1",
          "type": "uint256"
        }
      ],
      "stateMutability": "view",
      "type": "function"
    },
    {
      "inputs": [
        {
          "internalType": "bytes32",
          "name": "poolId",
          "type": "bytes32"
        }
      ],
      "name": "getTWAP",
      "outputs": [
        {
          "internalType": "uint160",
          "name": "sqrtPriceX96",
          "type": "uint160"
        },
        {
          "internalType": "bool",
          "name": "isValid",
          "type": "bool"
        }
      ],
      "stateMutability": "view",
      "type": "function"
    },
    {
      "inputs": [
        {
          "internalType": "uint256",
          "name": "tokenId",
          "type": "uint256"
        },
        {
          "internalType": "uint256",
          "name": "amount0",
          "type": "uint256"
        },
        {
          "internalType": "uint256",
          "name": "amount1",
          "type": "uint256"
        },
        {
          "internalType": "uint256",
          "name": "amount0Min",
          "type": "uint256"
        },
        {
          "internalType": "uint256",
          "name": "amount1Min",
          "type": "uint256"
        },
        {
          "internalType": "uint256",
          "name": "deadline",
          "type": "uint256"
        }
      ],
      "name": "increaseLiquidity",
      "outputs": [
        {
          "internalType": "uint128",
          "name": "liquidity",
          "type": "uint128"
        }
      ],
      "stateMutability": "payable",
      "type": "function"
    },
    {
      "inputs": [
        {
          "internalType": "uint256",
          "name": "tokenId",
          "type": "uint256"
        },
        {
          "internalType": "address",
          "name": "caller",
          "type": "address"
        }
      ],
      "name": "isAuthorized",
      "outputs": [
        {
          "internalType": "bool",
          "name": "",
          "type": "bool"
        }
      ],
      "stateMutability": "view",
      "type": "function"
    },
    {
      "inputs": [
        {
          "internalType": "uint256",
          "name": "tokenId",
          "type": "uint256"
        }
      ],
      "name": "isPositionInRange",
      "outputs": [
        {
          "internalType": "bool",
          "name": "inRange",
          "type": "bool"
        }
      ],
      "stateMutability": "view",
      "type": "function"
    },
    {
      "inputs": [],
      "name": "maxPriceDeviationBps",
      "outputs": [
        {
          "internalType": "uint16",
          "name": "",
          "type": "uint16"
        }
      ],
      "stateMutability": "view",
      "type": "function"
    },
    {
      "inputs": [],
      "name": "minTWAPWindow",
      "outputs": [
        {
          "internalType": "uint32",
          "name": "",
          "type": "uint32"
        }
      ],
      "stateMutability": "view",
      "type": "function"
    },
    {
      "inputs": [
        {
          "internalType": "uint256",
          "name": "oldTokenId",
          "type": "uint256"
        },
        {
          "internalType": "int24",
          "name": "newTickLower",
          "type": "int24"
        },
        {
          "internalType": "int24",
          "name": "newTickUpper",
          "type": "int24"
        },
        {
          "internalType": "uint256",
          "name": "amount0Min",
          "type": "uint256"
        },
        {
          "internalType": "uint256",
          "name": "amount1Min",
          "type": "uint256"
        },
        {
          "internalType": "uint256",
          "name": "deadline",
          "type": "uint256"
        }
      ],
      "name": "moveRange",
      "outputs": [
        {
          "internalType": "uint256",
          "name": "newTokenId",
          "type": "uint256"
        },
        {
          "internalType": "uint128",
          "name": "liquidity",
          "type": "uint128"
        }
      ],
      "stateMutability": "nonpayable",
      "type": "function"
    },
    {
      "inputs": [
        {
          "internalType": "bytes[]",
          "name": "calls",
          "type": "bytes[]"
        }
      ],
      "name": "multicall",
      "outputs": [
        {
          "internalType": "bytes[]",
          "name": "results",
          "type": "bytes[]"
        }
      ],
      "stateMutability": "payable",
      "type": "function"
    },
    {
      "inputs": [
        {
          "internalType": "bytes32",
          "name": "",
          "type": "bytes32"
        }
      ],
      "name": "observationCount",
      "outputs": [
        {
          "internalType": "uint8",
          "name": "",
          "type": "uint8"
        }
      ],
      "stateMutability": "view",
      "type": "function"
    },
    {
      "inputs": [
        {
          "internalType": "bytes32",
          "name": "",
          "type": "bytes32"
        }
      ],
      "name": "observationIndex",
      "outputs": [
        {
          "internalType": "uint8",
          "name": "",
          "type": "uint8"
        }
      ],
      "stateMutability": "view",
      "type": "function"
    },
    {
      "inputs": [
        {
          "components": [
            {
              "components": [
                {
                  "internalType": "address",
                  "name": "token0",
                  "type": "address"
                },
                {
                  "internalType": "address",
                  "name": "token1",
                  "type": "address"
                },
                {
                  "internalType": "uint24",
                  "name": "fee",
                  "type": "uint24"
                },
                {
                  "internalType": "int24",
                  "name": "tickLower",
                  "type": "int24"
                },
                {
                  "internalType": "int24",
                  "name": "tickUpper",
                  "type": "int24"
                },
                {
                  "internalType": "bytes",
                  "name": "extraData",
                  "type": "bytes"
                }
              ],
              "internalType": "struct IAdapter.PoolData",
              "name": "pool",
              "type": "tuple"
            },
            {
              "internalType": "uint256",
              "name": "amount0Desired",
              "type": "uint256"
            },
            {
              "internalType": "uint256",
              "name": "amount1Desired",
              "type": "uint256"
            },
            {
              "internalType": "uint256",
              "name": "amount0Min",
              "type": "uint256"
            },
            {
              "internalType": "uint256",
              "name": "amount1Min",
              "type": "uint256"
            },
            {
              "internalType": "address",
              "name": "recipient",
              "type": "address"
            }
          ],
          "internalType": "struct IAdapter.LiquidityParams",
          "name": "params",
          "type": "tuple"
        },
        {
          "internalType": "uint256",
          "name": "deadline",
          "type": "uint256"
        }
      ],
      "name": "openPosition",
      "outputs": [
        {
          "internalType": "uint256",
          "name": "dexTokenId",
          "type": "uint256"
        },
        {
          "internalType": "uint128",
          "name": "liquidity",
          "type": "uint128"
        }
      ],
      "stateMutability": "payable",
      "type": "function"
    },
    {
      "inputs": [],
      "name": "owner",
      "outputs": [
        {
          "internalType": "address",
          "name": "",
          "type": "address"
        }
      ],
      "stateMutability": "view",
      "type": "function"
    },
    {
      "inputs": [],
      "name": "poolManager",
      "outputs": [
        {
          "internalType": "contract IPoolManager",
          "name": "",
          "type": "address"
        }
      ],
      "stateMutability": "view",
      "type": "function"
    },
    {
      "inputs": [
        {
          "internalType": "uint256",
          "name": "",
          "type": "uint256"
        }
      ],
      "name": "positions",
      "outputs": [
        {
          "components": [
            {
              "internalType": "Currency",
              "name": "currency0",
              "type": "address"
            },
            {
              "internalType": "Currency",
              "name": "currency1",
              "type": "address"
            },
            {
              "internalType": "uint24",
              "name": "fee",
              "type": "uint24"
            },
            {
              "internalType": "int24",
              "name": "tickSpacing",
              "type": "int24"
            },
            {
              "internalType": "contract IHooks",
              "name": "hooks",
              "type": "address"
            }
          ],
          "internalType": "struct PoolKey",
          "name": "key",
          "type": "tuple"
        },
        {
          "internalType": "address",
          "name": "owner",
          "type": "address"
        },
        {
          "internalType": "int24",
          "name": "tickLower",
          "type": "int24"
        },
        {
          "internalType": "int24",
          "name": "tickUpper",
          "type": "int24"
        },
        {
          "internalType": "uint128",
          "name": "liquidity",
          "type": "uint128"
        }
      ],
      "stateMutability": "view",
      "type": "function"
    },
    {
      "inputs": [
        {
          "internalType": "bytes32",
          "name": "",
          "type": "bytes32"
        },
        {
          "internalType": "uint256",
          "name": "",
          "type": "uint256"
        }
      ],
      "name": "priceObservations",
      "outputs": [
        {
          "internalType": "uint160",
          "name": "sqrtPriceX96",
          "type": "uint160"
        },
        {
          "internalType": "uint32",
          "name": "timestamp",
          "type": "uint32"
        }
      ],
      "stateMutability": "view",
      "type": "function"
    },
    {
      "inputs": [
        {
          "components": [
            {
              "internalType": "address",
              "name": "token0",
              "type": "address"
            },
            {
              "internalType": "address",
              "name": "token1",
              "type": "address"
            },
            {
              "internalType": "uint24",
              "name": "fee",
              "type": "uint24"
            },
            {
              "internalType": "int24",
              "name": "tickLower",
              "type": "int24"
            },
            {
              "internalType": "int24",
              "name": "tickUpper",
              "type": "int24"
            },
            {
              "internalType": "bytes",
              "name": "extraData",
              "type": "bytes"
            }
          ],
          "internalType": "struct IAdapter.PoolData",
          "name": "poolData",
          "type": "tuple"
        }
      ],
      "name": "recordPriceObservation",
      "outputs": [],
      "stateMutability": "nonpayable",
      "type": "function"
    },
    {
      "inputs": [],
      "name": "renounceOwnership",
      "outputs": [],
      "stateMutability": "nonpayable",
      "type": "function"
    },
    {
      "inputs": [
        {
          "internalType": "uint256",
          "name": "tokenId",
          "type": "uint256"
        },
        {
          "internalType": "address",
          "name": "operator",
          "type": "address"
        },
        {
          "internalType": "bool",
          "name": "approved",
          "type": "bool"
        }
      ],
      "name": "setOperatorApproval",
      "outputs": [],
      "stateMutability": "nonpayable",
      "type": "function"
    },
    {
      "inputs": [
        {
          "internalType": "uint16",
          "name": "_maxDeviationBps",
          "type": "uint16"
        },
        {
          "internalType": "uint32",
          "name": "_minWindow",
          "type": "uint32"
        },
        {
          "internalType": "bool",
          "name": "_enabled",
          "type": "bool"
        }
      ],
      "name": "setTWAPConfig",
      "outputs": [],
      "stateMutability": "nonpayable",
      "type": "function"
    },
    {
      "inputs": [
        {
          "components": [
            {
              "internalType": "address",
              "name": "token0",
              "type": "address"
            },
            {
              "internalType": "address",
              "name": "token1",
              "type": "address"
            },
            {
              "internalType": "uint24",
              "name": "fee",
              "type": "uint24"
            },
            {
              "internalType": "int24",
              "name": "tickLower",
              "type": "int24"
            },
            {
              "internalType": "int24",
              "name": "tickUpper",
              "type": "int24"
            },
            {
              "internalType": "bytes",
              "name": "extraData",
              "type": "bytes"
            }
          ],
          "internalType": "struct IAdapter.PoolData",
          "name": "poolData",
          "type": "tuple"
        },
        {
          "internalType": "bool",
          "name": "zeroForOne",
          "type": "bool"
        },
        {
          "internalType": "int256",
          "name": "amountSpecified",
          "type": "int256"
        },
        {
          "internalType": "uint160",
          "name": "sqrtPriceLimitX96",
          "type": "uint160"
        },
        {
          "internalType": "uint256",
          "name": "deadline",
          "type": "uint256"
        }
      ],
      "name": "swap",
      "outputs": [
        {
          "internalType": "int256",
          "name": "amount0",
          "type": "int256"
        },
        {
          "internalType": "int256",
          "name": "amount1",
          "type": "int256"
        }
      ],
      "stateMutability": "payable",
      "type": "function"
    },
    {
      "inputs": [
        {
          "internalType": "address",
          "name": "newOwner",
          "type": "address"
        }
      ],
      "name": "transferOwnership",
      "outputs": [],
      "stateMutability": "nonpayable",
      "type": "function"
    },
    {
      "inputs": [],
      "name": "twapValidationEnabled",
      "outputs": [
        {
          "internalType": "bool",
          "name": "",
          "type": "bool"
        }
      ],
      "stateMutability": "view",
      "type": "function"
    },
    {
      "inputs": [
        {
          "internalType": "bytes",
          "name": "data",
          "type": "bytes"
        }
      ],
      "name": "unlockCallback",
      "outputs": [
        {
          "internalType": "bytes",
          "name": "",
          "type": "bytes"
        }
      ],
      "stateMutability": "nonpayable",
      "type": "function"
    },
    {
      "stateMutability": "payable",
      "type": "receive"
    }
  ],
  "bytecode": "0x60a0346101a957601f61511238819003918201601f19168301916001600160401b038311848410176101ae578084926020946040528339810103126101a957516001600160a01b038116908190036101a95733156101935760008054336001600160a01b0319821681178355604051939290916001600160a01b0316907f8be0079c531659141344cd1fd0a4f28419497f9722a3daafe3b4186f6b6457e09080a3660100000000000063012c01f466ffffffffffffff1960075416171760075580156101825760805260018055614f4d90816101c5823960805181818161034201528181610549015281816108aa01528181610ac801528181610bc801528181611043015281816113710152818161151401528181611636015281816117a5015281816118ce01528181611ac501528181611f72015281816120e701528181612bfe0152818161308b01528181613315015281816134c6015281816137960152818161392f01528181613da301528181614baf01528181614c030152614cc70152f35b63bc12814760e01b60005260046000fd5b631e4fbdf760e01b600052600060045260246000fd5b600080fd5b634e487b7160e01b600052604160045260246000fdfe6080604052600436101561001b575b361561001957600080fd5b005b60003560e01c806303a3f2ab1461024b57806312d7b2c414610246578063151ab1aa146102415780632ed9666f1461023c5780633ca5252614610237578063519f5099146102325780635d39fe781461022d578063609c6d7f14610228578063647ca8ae146102235780636cae7bf71461021e5780636e075674146102195780636f12fb4d14610214578063715018a61461020f57806378b7c7a31461020a57806379baa1a214610205578063838ac6fd146102005780638da5cb5b146101fb57806391dd7346146101f657806399fbab88146101f1578063a3d1854f146101ec578063a5e9dcd8146101e7578063ac9650d8146101e2578063afa83e68146101dd578063b7f045d9146101d8578063b86a0aaa146101d3578063be7c60c2146101ce578063c9b0aafa146101c9578063d82b5378146101c4578063dc4c90d3146101bf578063dcfd4788146101ba578063e864f64d146101b5578063f2383786146101b0578063f2fde38b146101ab578063f67bffe1146101a65763fae3d4180361000e57611a53565b611a1d565b611990565b611855565b6116f7565b611690565b611620565b6114a9565b6113fc565b611329565b6112fb565b6112a5565b6111e1565b6110d1565b611013565b610fc6565b610f20565b610d82565b610cfd565b610cce565b610cac565b610c86565b610c2d565b610b91565b610b6a565b610a62565b610a3c565b610a08565b6107df565b6106fd565b6106e1565b6106a7565b610662565b6104af565b610266565b6001600160801b0381160361026157565b600080fd5b346102615760a03660031901126102615760043560243561028681610250565b60643591604435608435421161049e576102aa826000526002602052604060002090565b6003810154336001600160a01b039091160361048e5760048101916102e56102d984546001600160801b031690565b6001600160801b031690565b906001600160801b03861691821161047d5761033d966103236000926103156040519384928b8b60208601611bb0565b03601f198101835282610e3c565b604051809881926348c8949160e01b835260048301610d6e565b0381837f00000000000000000000000000000000000000000000000000000000000000006001600160a01b03165af1908115610478576104287f17353b57db63b5560cf61829be56cecd7ee820d06e59f02de8c518bd31ef5f909461043d946103f76103c261042d966103dd9c600091610455575b5060208082518301019101611c68565b9b84919b6103d88e96546001600160801b031690565b611c94565b6001600160801b03166001600160801b0319825416179055565b8054610414908a9033906001600160a01b0316612655565b612655565b6001015433906001600160a01b0316612655565b611cb4565b6040519081529081906020820190565b0390a2604080519182526020820192909252f35b0390f35b61047291503d806000833e61046a8183610e3c565b810190611bfe565b386103b2565b611c5c565b63673f032f60e11b60005260046000fd5b6282b42960e81b60005260046000fd5b631ab7da6b60e01b60005260046000fd5b60c03660031901126102615760243560843560043560643560443560a435421161049e576104e7836000526002602052604060002090565b6003810154909490336001600160a01b039091160361048e578561031561052a9260009561054499610645575b85610625575b6040519586948960208701611cc5565b604051809581926348c8949160e01b835260048301610d6e565b0381837f00000000000000000000000000000000000000000000000000000000000000006001600160a01b03165af192831561047857600461059f610451956105bb9360009161060a575b5060208082518301019101611cf6565b93016103dd846105b683546001600160801b031690565b611d0b565b6040516001600160801b03831681527f17353b57db63b5560cf61829be56cecd7ee820d06e59f02de8c518bd31ef5f9090602090a26040516001600160801b0390911681529081906020820190565b61061f91503d806000833e61046a8183610e3c565b3861058f565b600189015461064090879033906001600160a01b03166126d8565b61051a565b885461065d90859033906001600160a01b03166126d8565b610514565b3461026157602036600319011261026157600435600052600260205260408060002060018060a01b03815416906001808060a01b039101541682519182526020820152f35b34610261576020366003190112610261576004356000526006602052602060ff60406000205416604051908152f35b600091031261026157565b34610261576000366003190112610261576020604051600a8152f35b346102615760203660031901126102615760043560009081526002602081815260409283902060038101548154600183015460049093015486516001600160a01b0380851682529283169581019590955292169483019490945260a084811c840b606084015260b89490941c90920b60808201526001600160801b039091169181019190915260c090f35b908160c09103126102615790565b60243590811515820361026157565b60443590811515820361026157565b3590811515820361026157565b6001600160a01b0381160361026157565b35906107dd826107c1565b565b60a0366003190112610261576004356001600160401b0381116102615761080a903690600401610788565b610812610796565b906044359060643590610824826107c1565b608435421161049e576108a5916108466108416000933690611d82565b612796565b938583146109f55784516001600160a01b03165b8382126109da575b506001600160a01b0382161561099f575b61088b90610315604051938492898960208601611e2d565b604051809381926348c8949160e01b835260048301610d6e565b0381837f00000000000000000000000000000000000000000000000000000000000000006001600160a01b03165af18015610478576109187f2fd02811cd8076705fa320b0187fa94001eb60e494a2fafd9fa9f35cbb8f0e8991600093849161098b575060208082518301019101611c68565b94819481851461097c57602001516001600160a01b03165b81851461097657865b858113610964575b50506040805191151582526020820192909252908101859052806060810161043d565b61096f913390612655565b3880610941565b82610939565b516001600160a01b0316610930565b61047291503d8086833e61046a8183610e3c565b9050818583146109bc575061088b6401000276a45b919050610873565b5061088b73fffd8963efd1fc6a506488495d951d5263988d256109b4565b6109ef906109e783611cb4565b9033906126d8565b38610862565b60208501516001600160a01b031661085a565b34610261576040366003190112610261576020610a32602435600435610a2d826107c1565b611e6e565b6040519015158152f35b34610261576020366003190112610261576020610a5a600435611f44565b604051908152f35b3461026157604036600319011261026157600435602435421161049e57610a93816000526002602052604060002090565b6003810154336001600160a01b039091160361048e57610ac391600060405161052a816103158560208301612097565b0381837f00000000000000000000000000000000000000000000000000000000000000006001600160a01b03165af192831561047857610b3193610b1891600091610455575060208082518301019101611c68565b81936104148296933361040f845460018060a01b031690565b60408051838152602081018590527fa54e6c2fc0861aa9c991b26891d71059d517983b9e84b91020f42609c452eb9d918190810161043d565b3461026157600036600319011261026157602063ffffffff60075460101c16604051908152f35b3461026157602036600319011261026157600435600052600260205261045160406000206003610bec60a0610bc584610e8a565b207f0000000000000000000000000000000000000000000000000000000000000000612881565b505092905001549060020b8160a01c60020b8112159182610c1c575b505060405190151581529081906020820190565b60b81c60020b121590503880610c08565b3461026157600036600319011261026157610c4661290e565b600080546001600160a01b0319811682556001600160a01b03167f8be0079c531659141344cd1fd0a4f28419497f9722a3daafe3b4186f6b6457e08280a3005b3461026157600036600319011261026157602060ff60075460301c166040519015158152f35b3461026157600036600319011261026157602061ffff60075416604051908152f35b34610261576020366003190112610261576004356000526005602052602060ff60406000205416604051908152f35b34610261576000366003190112610261576000546040516001600160a01b039091168152602090f35b60005b838110610d395750506000910152565b8181015183820152602001610d29565b90602091610d6281518092818552858086019101610d26565b601f01601f1916010190565b906020610d7f928181520190610d49565b90565b34610261576020366003190112610261576004356001600160401b0381116102615736602382011215610261578060040135906001600160401b03821161026157366024838301011161026157610451916024610ddf92016120e4565b60405191829182610d6e565b634e487b7160e01b600052604160045260246000fd5b60a081019081106001600160401b03821117610e1c57604052565b610deb565b60c081019081106001600160401b03821117610e1c57604052565b90601f801991011681019081106001600160401b03821117610e1c57604052565b604051906107dd60a083610e3c565b604051906107dd608083610e3c565b604051906107dd606083610e3c565b90604051610e9781610e01565b82546001600160a01b0390811682526001840154808216602084015262ffffff60a082901c16604084015260b81c600290810b6060840152909301549092166080830152565b80516001600160a01b03908116835260208083015182169084015260408083015162ffffff169084015260608083015160020b9084015260809182015116910152565b346102615760203660031901126102615760043560005260026020526101206040600020610f4d81610e8a565b906001600160801b03600460038301549201541690610f6f6040518094610edd565b60018060a01b03811660a08401528060a01c60020b60c084015260b81c60020b60e0830152610100820152f35b602060031982011261026157600435906001600160401b03821161026157610d7f91600401610788565b3461026157608062ffffff80610fec60a0610bc561084136610fe736610f9c565b611d82565b9294916040519560018060a01b0316865260020b6020860152166040840152166060820152f35b346102615761001961103961084161102a36610f9c565b61103261290e565b3690611d82565b60a06110678183207f0000000000000000000000000000000000000000000000000000000000000000612881565b50505091206141f1565b602081016020825282518091526040820191602060408360051b8301019401926000915b8383106110a457505050505090565b90919293946020806110c2600193603f198682030187528951610d49565b97019301930191939290611095565b6020366003190112610261576004356001600160401b0381116102615736602382011215610261578060040135906001600160401b038211610261576024810190602436918460051b0101116102615761112a82612212565b9160005b81811061114357604051806104518682611071565b60008061115183858761225c565b906111616040518093819361229d565b0390305af461116e6122ab565b9015611194579060019161118282876122db565b5261118d81866122db565b500161112e565b8051156111a357805190602001fd5b60405162461bcd60e51b8152602060048201526016602482015275135d5b1d1a58d85b1b0e8818d85b1b0819985a5b195960521b6044820152606490fd5b3461026157606036600319011261026157602435600435611201826107c1565b6112096107a5565b6000828152600260205260409020600301549092906001600160a01b0316330361048e5760008281526003602090815260408083206001600160a01b038516845290915290207fc6781b1a6a4632f560084983248b487381decef7bffb8b0705a6109281c3fffd916112a091805460ff191660ff9615159687161790556040519485526001600160a01b0316939081906020820190565b0390a3005b3461026157604036600319011261026157602060ff6112ef6024356004356112cc826107c1565b6000526003845260406000209060018060a01b0316600052602052604060002090565b54166040519015158152f35b34610261576020366003190112610261576113176004356122ef565b60408051928352602083019190915290f35b346102615761134960a061134361084136610fe736610f9c565b20614aaa565b600381018091116113f757604051631e2eaeaf60e01b815260048101919091526020816024817f00000000000000000000000000000000000000000000000000000000000000006001600160a01b03165afa8015610478576001600160801b03916000916113c8575b5060405191166001600160801b03168152602090f35b6113ea915060203d6020116113f0575b6113e28183610e3c565b810190612872565b386113b2565b503d6113d8565b611c7e565b346102615760603660031901126102615760043561ffff8116809103610261576024359063ffffffff821690818303610261577fd0c582b11979bb9ba0412264e2ee29ac554e14eab1db1a0e89a544ee82f2c7d29260609261145c6107a5565b61146461290e565b6007549015159265ffffffff00008566ff0000000000008660301b169366ffffffffffffff1916179160101b16171760075560405192835260208301526040820152a1005b3461026157604036600319011261026157600435602435421161049e576114d76114d33383611e6e565b1590565b61048e5761150f9060006040516114f58161031585602083016120af565b604051809481926348c8949160e01b835260048301610d6e565b0381837f00000000000000000000000000000000000000000000000000000000000000006001600160a01b03165af1918215610478576104519261156591600091611605575b506020808251830101910161242e565b909391926115986004611582836000526002602052604060002090565b016103dd846105b683546001600160801b031690565b60408051858152602081018790526001600160801b038416918101919091527feadad33ac6e683cbe4edc4c90bb397154dcdbaf6110d66bcb2a777e5e82b328390606090a2604051938493849160409194936001600160801b039160608501968552602085015216910152565b61161a91503d806000833e61046a8183610e3c565b38611555565b34610261576000366003190112610261576040517f00000000000000000000000000000000000000000000000000000000000000006001600160a01b03168152602090f35b634e487b7160e01b600052603260045260246000fd5b600a82101561168b570190600090565b611665565b34610261576040366003190112610261576004356024359060005260046020526040600020600a82101561026157610451916116cb9161167b565b5054604080516001600160a01b038316815260a09290921c63ffffffff16602083015290918291820190565b6040366003190112610261576004356001600160401b03811161026157611722903690600401610788565b602435421161049e57600061031561088b8361176861175b61174f61174a846117a09961244f565b612464565b6001600160a01b031690565b60208301359033906126d8565b61179061178361174f602061177d858061244f565b01612464565b60408301359033906126d8565b60405192839133602084016124c0565b0381837f00000000000000000000000000000000000000000000000000000000000000006001600160a01b03165af18015610478576117f19160009161180c575b50602080825183010191016125df565b604080519283526001600160801b0391909116602083015290f35b61182191503d806000833e61046a8183610e3c565b386117e1565b602435908160020b820361026157565b604435908160020b820361026157565b35908160020b820361026157565b346102615760c036600319011261026157600435611871611827565b9061187a611837565b916084359160643560a435421161049e576118986114d33384611e6e565b61048e578460020b8360020b121561047d576118c99361052a6000926103156040519384928a8989602087016125fb565b0381837f00000000000000000000000000000000000000000000000000000000000000006001600160a01b03165af1928315610478577fab06ba321fc46d2d366f95e9cd4954232f79b4bec2e44cf230ed55a7057388809361193c9160009161180c5750602080825183010191016125df565b948194919361197387604051938493849160409194936001600160801b0391606085019660020b855260020b602085015216910152565b0390a3604080519182526001600160801b03929092166020820152f35b34610261576020366003190112610261576004356119ad816107c1565b6119b561290e565b6001600160a01b03168015611a0757600080546001600160a01b03198116831782556001600160a01b0316907f8be0079c531659141344cd1fd0a4f28419497f9722a3daafe3b4186f6b6457e09080a3005b631e4fbdf760e01b600052600060045260246000fd5b34610261576020366003190112610261576040611a3b600435614822565b82516001600160a01b03909216825215156020820152f35b3461026157608036600319011261026157604435602435600435606435421161049e57611a8a816000526002602052604060002090565b6003810154909290336001600160a01b039091160361048e57611ac09361052a6000926103156040519384928760208501612632565b0381837f00000000000000000000000000000000000000000000000000000000000000006001600160a01b03165af192831561047857611b1593610b1891600091610455575060208082518301019101611c68565b611b4a611b2c826000526002602052604060002090565b60046000918281558260018201558260028201558260038201550155565b60408051838152602081018590527fa7ec78d0de9c0868ed53f940aa8e215f9941a44ad08631ca28ea721abd2ef6de918190810161043d565b60081115611b8d57565b634e487b7160e01b600052602160045260246000fd5b906008821015611b8d5752565b909493926001600160801b0360809360a0840197611bcf856002611ba3565b602085015216604083015260608201520152565b6001600160401b038111610e1c57601f01601f191660200190565b602081830312610261578051906001600160401b038211610261570181601f82011215610261578051611c3081611be3565b92611c3e6040519485610e3c565b8184526020828401011161026157610d7f9160208085019101610d26565b6040513d6000823e3d90fd5b9190826040910312610261576020825192015190565b634e487b7160e01b600052601160045260246000fd5b906001600160801b03809116911603906001600160801b0382116113f757565b600160ff1b81146113f75760000390565b60c0810196959460a09491939092611cde856001611ba3565b60208501526040840152606083015260808201520152565b908160209103126102615751610d7f81610250565b906001600160801b03809116911601906001600160801b0382116113f757565b359062ffffff8216820361026157565b81601f8201121561026157803590611d5282611be3565b92611d606040519485610e3c565b8284526020838301011161026157816000926020809301838601378301015290565b919060c0838203126102615760405190611d9b82610e21565b81938035611da8816107c1565b8352611db6602082016107d2565b6020840152611dc760408201611d2b565b6040840152611dd860608201611847565b6060840152611de960808201611847565b608084015260a0810135916001600160401b0383116102615760a092611e0f9201611d3b565b910152565b6001600160a01b0391821690821603919082116113f757565b926101009295949195611e54610120860197611e4a876005611ba3565b6020870190610edd565b151560c085015260e08401526001600160a01b0316910152565b6000818152600260205260409020600301546001600160a01b0380841691161491908215611e9b57505090565b60009081526003602090815260408083206001600160a01b0390941683529290522060ff9150541690565b600291820b910b0390627fffff198212627fffff8313176113f757565b9060c882029180830460c814901517156113f757565b9061271082029180830461271014901517156113f757565b818102929181159184041417156113f757565b8115611f2e570490565b634e487b7160e01b600052601260045260246000fd5b611f58906000526002602052604060002090565b6003611f96611f70611f6984610e8a565b60a0902090565b7f0000000000000000000000000000000000000000000000000000000000000000612881565b50509290500154611faa8160a01c60020b90565b90611fb58260020b90565b8360020b908112908115612078575b506120705760b81c60020b90611fda8183611ec6565b60020b92831561206757611ff1611ff79282611ec6565b92611ec6565b8060020b8260020b1260001461206057505b60020b6000811261205757905b600080821261205057505b80156120495761203361203892611ee3565b611f24565b906064821161204357565b60649150565b5050606490565b9050612021565b50600090612016565b9050612009565b50505050606490565b505050600090565b905061209061208a8360b81c60020b90565b60020b90565b1238611fc4565b9190602060408401936120ab816003611ba3565b0152565b9190602060408401936120ab816006611ba3565b3590600882101561026157565b9081602091031261026157610d7f906120c3565b907f00000000000000000000000000000000000000000000000000000000000000006001600160a01b0316330361048e57612121818301836120d0565b61212a81611b83565b80156121f15761213981611b83565b600181146121e75761214a81611b83565b600281146121dd5761215b81611b83565b600381146121d35761216c81611b83565b600481146121c95761217d81611b83565b600581146121bf5761218e81611b83565b600681146121b557806121a2600792611b83565b146121ac57600080fd5b610d7f91613d0d565b50610d7f916138c9565b50610d7f91613734565b50610d7f916135e9565b50610d7f9161345a565b50610d7f91613267565b50610d7f9161304f565b50610d7f91612bda565b6001600160401b038111610e1c5760051b60200190565b9061221c826121fb565b6122296040519182610e3c565b828152809261223a601f19916121fb565b019060005b82811061224b57505050565b80606060208093850101520161223f565b919081101561168b5760051b81013590601e19813603018212156102615701908135916001600160401b038311610261576020018236038113610261579190565b908092918237016000815290565b3d156122d6573d906122bc82611be3565b916122ca6040519384610e3c565b82523d6000602084013e565b606090565b805182101561168b5760209160051b010190565b612303906000526002602052604060002090565b906001600160801b0361232060048401546001600160801b031690565b168015612425576003612338611f70611f6986610e8a565b5050509301546123636123546123596123548460a01c60020b90565b614324565b9260b81c60020b90565b6001600160a01b03858116919083169081831161239e5750600095610d7f94936001600160a01b0393506123979250611e14565b169061464d565b92956001600160a01b038416949391928581106123e5575050906123c96123df95966123cf93611e14565b9361464d565b916001600160a01b031690614727565b90600090565b81935094612406610d7f966124006124169461239796611e14565b9261464d565b906001600160a01b031685614727565b956001600160a01b0392611e14565b50600091508190565b908160609103126102615780519160406020830151920151610d7f81610250565b90359060be1981360301821215610261570190565b35610d7f816107c1565b9035601e19823603018112156102615701602081359101916001600160401b03821161026157813603831361026157565b908060209392818452848401376000828201840152601f01601f1916010190565b906124cc826000611ba3565b6001600160a01b03166020820152606060408201528135903683900360be1901821215610261576101006125d160a06125a361259087610d7f970160c060608801528035612519816107c1565b600180861b03166101208801526020810135612534816107c1565b600180861b031661014088015262ffffff61255160408301611d2b565b1661016088015261256460608201611847565b60020b61018088015261258761257c60808301611847565b60020b6101a0890152565b8381019061246e565b60c06101c08801526101e087019161249f565b9560208101356080860152604081013582860152606081013560c0860152608081013560e0860152016107d2565b6001600160a01b0316910152565b91908260409103126102615760208251920151610d7f81610250565b60c0810196959460a09491939092612614856007611ba3565b602085015260020b604084015260020b606083015260808201520152565b60808101949392606092612647836004611ba3565b602083015260408201520152565b919081156126d3576001600160a01b0383166126c1576000809350809281925af161267e6122ab565b501561268657565b60405162461bcd60e51b8152602060048201526013602482015272115512081d1c985b9cd9995c8819985a5b1959606a1b6044820152606490fd5b6107dd926001600160a01b0316614a27565b505050565b82156126d3576001600160a01b03811661270757505034106126f657565b631a84bc4160e21b60005260046000fd5b6040516323b872dd60e01b60208201526001600160a01b0390921660248301523060448301526064808301939093529181526107dd91612748608483610e3c565b6001600160a01b0316614d6c565b6040519061276382610e01565b60006080838281528260208201528260408201528260608201520152565b908160209103126102615751610d7f816107c1565b61279e612756565b5060a0810151805190602082106128665761174f81602080610d7f956127c79501019101612781565b8251612856906127df906001600160a01b031661174f565b9361284c61280960406127fe61174f602086015160018060a01b031690565b93015162ffffff1690565b61284061281582614a67565b93612830612821610e5d565b6001600160a01b03909a168a52565b6001600160a01b03166020890152565b62ffffff166040870152565b60020b6060850152565b6001600160a01b03166080830152565b5050610d7f60006127c7565b90816020910312610261575190565b919061288e602091614aaa565b604051631e2eaeaf60e01b8152600481019190915292839060249082906001600160a01b03165afa918215610478576000926128ed575b506001600160a01b0382169160a081901c60020b9162ffffff60b883901c81169260d01c1690565b61290791925060203d6020116113f0576113e28183610e3c565b90386128c5565b6000546001600160a01b0316330361292257565b63118cdaa760e01b6000523360045260246000fd5b90916060828403126102615761294c826120c3565b92602083013561295b816107c1565b926040810135906001600160401b03821161026157019060c082820312610261576040519161298983610e21565b80356001600160401b0381116102615760a0926129a7918301611d82565b83526020810135602084015260408101356040840152606081013560608401526080810135608084015201356129dc816107c1565b60a082015290565b90610160926129f683612a2493610edd565b8051600290810b60a08501526020820151900b60c0840152604081015160e084015260600151610100830152565b61014061012082015260006101408201520190565b600f0b6f7fffffffffffffffffffffffffffffff1981146113f75760000390565b60001981146113f75760010190565b8151805182546001600160a01b0319166001600160a01b03919091161782556107dd92600491612bbd91608091612b2c9060208101516001880180546001600160a01b0319166001600160a01b0392909216919091178155612b05906040830151815462ffffff60a01b191660a09190911b62ffffff60a01b1617606084015160b81b62ffffff60b81b1662ffffff60b81b1991909116179055565b8301516002870180546001600160a01b0319166001600160a01b0392909216919091179055565b60208101516003860180546001600160a01b0319166001600160a01b03909216919091178155612baf90612b8a612b67604085015160020b90565b828054909162ffffff60a01b1990911660a09190911b62ffffff60a01b16179055565b6060830151815460b89190911b62ffffff60b81b1662ffffff60b81b19909116179055565b01516001600160801b031690565b9101906001600160801b03166001600160801b0319825416179055565b612be691810190612937565b915060018060a01b031690612bfb8151612796565b917f000000000000000000000000000000000000000000000000000000000000000092612c2b60a0822085612881565b5050506001600160a01b03811615612f73575b6000906001600160a01b038116612f61575b612c6261235460608751015160020b90565b6040612d02612c91612c7c61235460808b51015160020b90565b9460208a0195865190858c0196875193614ae4565b988851612cd2612cb36080612caa606085015160020b90565b93015160020b90565b612cc8612cbe610e6c565b93849060020b9052565b60020b6020830152565b6001600160801b038b16848201528660608201528351968780948193632d35e7ed60e11b83528b600484016129e4565b03926001600160a01b03165af192831561047857600093612f2f575b506000916000938060801d600081600f0b12612efe575b50600f0b60008112612ec5575b505180831191828015612ebb575b612e7e57505050606085015190818110612e63575050608084015190818110612e6357505090612e04610d7f9392612ddc60015494612d96612d9187612a5a565b600155565b51612dd2612dad6080612caa606085015160020b90565b91612db6610e5d565b9485526001600160a01b038716602086015260020b6040850152565b60020b6060830152565b6001600160801b0386166080820152612dff846000526002602052604060002090565b612a69565b6040516001600160801b038516815282907f9ae0e187a8be558060c9d93c50eb329b8c990d5742b772271bd8f3ff29a1d8f590602090a3610315604051938492602084019092916001600160801b036020916040840195845216910152565b630a8f6c8d60e41b60005260045260245260446000fd5b6000fd5b612e7a93858415612eb35750925b15612eaa5750905b630a8f6c8d60e41b600052600452602452604490565b90505190612e94565b905092612e8c565b5080518511612d50565b612ed79194506102d96102d991612a39565b6020850151909390612ef89085906001600160a01b0316614b80565b614b80565b38612d42565b612f109194506102d96102d991612a39565b8551909390612f299085906001600160a01b0316614b80565b38612d35565b612f5291935060403d604011612f5a575b612f4a8183610e3c565b810190611c68565b509138612d1e565b503d612f40565b612f6e8160a08520614ad0565b612c50565b50600160601b612c3e565b91908260c091031261026157612f93826120c3565b9160208101359160408201359160608101359160a0608083013592013590565b61303c610d7f9360026101409460018060a01b038154168552600181015460018060a01b038116602087015262ffffff8160a01c16604087015260b81c820b6060860152015460018060a01b031660018060a01b0316608084015260a083019060608091805160020b8452602081015160020b6020850152604081015160408501520151910152565b8161012082015201602090600081520190565b60006131376130826130696040946130f596810190612f7e565b9894509592949091946000526002602052604060002090565b936131076130fb7f0000000000000000000000000000000000000000000000000000000000000000936130c06130ba611f698a610e8a565b86612881565b505050936003890154946130d78660a01c60020b90565b956130ee6130e488614324565b9160b81c60020b90565b9e8f614324565b91614ae4565b99612cc8612cbe610e6c565b6001600160801b038916848201528660608201528351968780948193632d35e7ed60e11b83528860048401612fb3565b03926001600160a01b03165af19283156104785760009361320e575b506000906000938060801d600081600f0b126131dd575b50600f0b600081126131ac575b5050818110612e63575050818110612e63575050604080516001600160801b039092166020830152610d7f9082908101610315565b6001945090612ef36131c66102d96102d96131d695612a39565b958692015460018060a01b031690565b3880613177565b6131ef9193506102d96102d991612a39565b81549092906132089084906001600160a01b0316614b80565b3861316a565b61322891935060403d604011612f5a57612f4a8183610e3c565b509138613153565b908160a091031261026157613244816120c3565b91602082013591604081013561325981610250565b916080606083013592013590565b604061327c61330f9261329494810190613230565b94929093509590956000526002602052604060002090565b946003860154906132ea6132ca6001600160801b036132c36132b98660a01c60020b90565b9560b81c60020b90565b9316611cb4565b916132e06132d6610e6c565b94859060020b9052565b60020b6020840152565b8282015260006060820152815180958192632d35e7ed60e11b83528860048401612fb3565b038160007f00000000000000000000000000000000000000000000000000000000000000006001600160a01b03165af19283156104785760009361341b575b508260801d600f0b60008082136000146134135750925b600f0b60008082131561340b5750935b836133f0575b84806133cc575b50508083106133b357508083106133b35750604080516020810192909252810191909152610d7f8160608101610315565b630a8f6c8d60e41b600052600483905260245260446000fd5b600191909101546133e991906001600160a01b03165b3090614cbe565b3884613382565b80546134069085906001600160a01b03166133e2565b61337b565b905093613375565b905092613365565b61343591935060403d604011612f5a57612f4a8183610e3c565b50913861334e565b9190826040910312610261576020613454836120c3565b92013590565b61346a9061347c9281019061343d565b90506000526002602052604060002090565b6134c060406003830154613499612cb36123598360a01c60020b90565b60008282015260006060820152815180938192632d35e7ed60e11b83528660048401612fb3565b038160007f00000000000000000000000000000000000000000000000000000000000000006001600160a01b03165af1801561047857610d7f916000916135a0575b508060801d600f0b60008082136000146135985750905b600f0b6000808213156135905750925b81613575575b8380613554575b50506040805160208101929092528101929092528160608101610315565b6001919091015461356e91906001600160a01b03166133e2565b3883613536565b805461358b9083906001600160a01b03166133e2565b61352f565b905092613529565b905090613519565b6135b9915060403d604011612f5a57612f4a8183610e3c565b5038613502565b9190826080910312610261576135d5826120c3565b916020810135916060604083013592013590565b6135fc61330f91613610938101906135c0565b925093906000526002602052604060002090565b92604060038501546136286130e48260a01c60020b90565b6132ea6132ca6104286102d960048b01546001600160801b031690565b8091039161012083126102615760a061365d836120c3565b93601f1901126102615760405161367381610e01565b6020830135613681816107c1565b81526040830135613691816107c1565b60208201526136a260608401611d2b565b60408201526136b360808401611847565b606082015260a08301356136c6816107c1565b6080820152916136d860c082016107b4565b91610d7f61010060e084013593016107d2565b90916136fa8261014094610edd565b8051151560a0830152602081015160c0830152604001516001600160a01b031660e082015261012061010082018190526000908201520190565b60206137496137909261377594810190613645565b91935061376161375a979397610e7b565b9415158552565b838501526001600160a01b03166040830152565b60405180938192633cf3645360e21b835286600484016136eb565b038160007f00000000000000000000000000000000000000000000000000000000000000006001600160a01b03165af1801561047857610d7f9160009161389d575b508060801d600f0b90600f0b9260008212600014613879578051613808906001600160a01b031661380284611cb4565b90614b80565b6000841215613847576020015161382b906001600160a01b031661380285611cb4565b6040805160208101929092528101929092528160608101610315565b8360008113613858575b505061382b565b6020919091015161387291906001600160a01b03166133e2565b3883613851565b60008213156138085780516138989083906001600160a01b03166133e2565b613808565b6138b6915060203d6020116113f0576113e28183610e3c565b386137d2565b919082039182116113f757565b61346a906138d99281019061343d565b6003810161397581549161391f6139006138f68560a01c60020b90565b9460b81c60020b90565b61391561390b610e6c565b95869060020b9052565b60020b6020850152565b60006040840152600060608401527f000000000000000000000000000000000000000000000000000000000000000093604060018060a01b03861694815180958192632d35e7ed60e11b83528560048401612fb3565b03816000885af192831561047857600093613ca8575b508260801d600f0b6000808213600014613ca05750925b600f0b600080821315613c985750945b83158015613c7d575b86158015613c5f575b81613c57575b50613c2c576139e5906139df611f6984610e8a565b90612881565b505050936139fe856139f9611f6985610e8a565b614ad0565b825494613a348786613a138960a01c60020b90565b93613a2a613a2086614324565b9a60b81c60020b90565b996130f58b614324565b956001600160801b0387169081613a7c575b50506040805160208101969096528501969096525050506001600160801b0390911660608201529050610d7f8160808101610315565b92604092613abe92613a986000989a97966132e06132d6610e6c565b848201528660608201528351968780948193632d35e7ed60e11b83528860048401612fb3565b03925af1801561047857610d7f9561031594600092613c0a575b50600080928060801d600081600f0b12613bd9575b50600f0b60008112613ba5575b5080871115613b9c57613b0d90876138bc565b915b80891115613b9357613b2190896138bc565b915b80613b6c575b5081613b37575b8396613a46565b613b5e613b506001613b6495015460018060a01b031690565b91546001600160a01b031690565b90612655565b388080613b30565b8354613b8d91906001600160a01b03165b83546001600160a01b0316613b5e565b38613b29565b50600091613b23565b50600091613b0f565b613bb79193506102d96102d991612a39565b6001840154909290613bd39084906001600160a01b0316614b80565b38613afa565b613beb9192506102d96102d991612a39565b8454909190613c049083906001600160a01b0316614b80565b38613aed565b613c2491925060403d604011612f5a57612f4a8183610e3c565b509038613ad8565b505050505050604051610d7f8161031560208201906000604060608401938281528260208201520152565b9050386139ca565b6001840154613c789089906001600160a01b03166133e2565b6139c4565b8254613c939086906001600160a01b03166133e2565b6139bb565b9050946139b2565b9050926139a2565b613cc291935060403d604011612f5a57612f4a8183610e3c565b50913861398b565b91908260c091031261026157613cdf826120c3565b91602081013591613cf260408301611847565b91613cff60608201611847565b9160a0608083013592013590565b613d1d90613de992810190613cca565b929594509092613d37816000526002602052604060002090565b60038101805494613d58613d4e8760a01c60020b90565b9660b81c60020b90565b613d95613d756104286102d960048801546001600160801b031690565b91613d8b613d81610e6c565b998a9060020b9052565b60020b6020890152565b6040870152600060608701527f000000000000000000000000000000000000000000000000000000000000000095604060018060a01b038816918151809b8192632d35e7ed60e11b83528860048401612fb3565b03816000855af19889156104785760009961416b575b506000966000998060801d600f0b6000811361414c575b50600f0b60008113614112575b50916040613eb56001600160801b039c938b613e748e8d611f69613e628d6139f9613e5760009f9e6139df611f6985610e8a565b505050938492610e8a565b613e6b8a614324565b6130f586614324565b9e8f613e8e613e81610e6c565b60028a900b815293613915565b16848201528760608201528351978880948193632d35e7ed60e11b83528c60048401612fb3565b03925af1938415610478576000946140f0575b506000966000948060801d600081600f0b126140bf575b50600f0b6000811261408b575b5080881091828015614082575b6140455750505060015497613f0d89612a5a565b60015582546001600160a01b031691613f24610e5d565b92613f2e87610e8a565b84526001600160a01b0316602084015260020b604083015260020b60608201526001600160801b038a166080820152613f71886000526002602052604060002090565b90613f7b91612a69565b610d7f97613fcd96611b2c968082111561403b57613f98916138bc565b925b8082111561403157613fab916138bc565b915b80614016575b5081613ff5575b5050506000526002602052604060002090565b610315604051938492602084019092916001600160801b036020916040840195845216910152565b613b5e613b50600161400e95015460018060a01b031690565b388080613fba565b835461402b91906001600160a01b0316613b7d565b38613fb3565b5050600091613fad565b5050600092613f9a565b612e7a93508886841561407a5750925b15614072575090630a8f6c8d60e41b600052600452602452604490565b905090612e94565b905092614055565b50808610613ef9565b61409d9195506102d96102d991612a39565b60018601549094906140b99086906001600160a01b0316614b80565b38613eec565b6140d19199506102d96102d991612a39565b86549098906140ea908a906001600160a01b0316614b80565b38613edf565b61410a91945060403d604011612f5a57612f4a8183610e3c565b509238613ec8565b995091848894938a9c938c9d8e9d60018501546141349060018060a01b031690565b903061413f92614cbe565b50939c5091939450613e23565b8654909950614165908a906001600160a01b03166133e2565b38613e16565b61418591995060403d604011612f5a57612f4a8183610e3c565b509738613dff565b91906141c9578051825460209092015163ffffffff60a01b60a09190911b166001600160c01b03199092166001600160a01b0390911617179055565b634e487b7160e01b600052600060045260246000fd5b60ff60019116019060ff82116113f757565b907f2b7eab7e07c76303b2db788022767249e807d2e91aa20e3dab6fca188b062b399063ffffffff42169083600052600560205260ff604060002054166142ce6142ab6142a160ff61424d896000526006602052604060002090565b54169361429c604051614261604082610e3c565b6001600160a01b038816815263ffffffff89166020820152614296836142918d6000526004602052604060002090565b61167b565b9061418d565b6141df565b60ff600a91160690565b6142bf876000526005602052604060002090565b9060ff1660ff19825416179055565b600a60ff8216106142fe575b50604080516001600160a01b0392909216825263ffffffff929092166020820152a2565b61430a61431e916141df565b6142bf866000526006602052604060002090565b386142da565b60020b908160ff1d82810118620d89e881116146405763ffffffff9192600182167001fffcb933bd6fad37aa2d162d1a59400102600160801b189160028116614624575b60048116614608575b600881166145ec575b601081166145d0575b602081166145b4575b60408116614598575b6080811661457c575b6101008116614560575b6102008116614544575b6104008116614528575b610800811661450c575b61100081166144f0575b61200081166144d4575b61400081166144b8575b618000811661449c575b620100008116614480575b620200008116614465575b62040000811661444a575b6208000016614431575b600012614428575b0160201c90565b60001904614421565b6b048a170391f7dc42444e8fa290910260801c90614419565b6d2216e584f5fa1ea926041bedfe9890920260801c9161440f565b916e5d6af8dedb81196699c329225ee6040260801c91614404565b916f09aa508b5b7a84e1c677de54f3e99bc90260801c916143f9565b916f31be135f97d08fd981231505542fcfa60260801c916143ee565b916f70d869a156d2a1b890bb3df62baf32f70260801c916143e4565b916fa9f746462d870fdf8a65dc1f90e061e50260801c916143da565b916fd097f3bdfd2022b8845ad8f792aa58250260801c916143d0565b916fe7159475a2c29b7443b29c7fa6e889d90260801c916143c6565b916ff3392b0822b70005940c7a398e4b70f30260801c916143bc565b916ff987a7253ac413176f2b074cf7815e540260801c916143b2565b916ffcbe86c7900a88aedcffc83b479aa3a40260801c916143a8565b916ffe5dee046a99a2a811c461f1969c30530260801c9161439e565b916fff2ea16466c96a3843ec78b326b528610260801c91614395565b916fff973b41fa98c081472e6896dfb254c00260801c9161438c565b916fffcb9843d60f6159c9db58835c9266440260801c91614383565b916fffe5caca7e10e4e61c3624eaa0941cd00260801c9161437a565b916ffff2e50f5f656932ef12357cf3c7fdcc0260801c91614371565b916ffff97272373d413259a46990580e213a0260801c91614368565b82614d55565b1561026157565b818102919060001982820991838084109303928084039384600160601b1115610261571461468e57600160601b910990828211900360a01b910360601c1790565b50505060601c90565b90606082901b90600019600160601b84099282808510940393808503946146bf868511614646565b14614720578190600160601b9009818060000316809204600281600302188082026002030280820260020302808202600203028082026002030280820260020302809102600203029360018380600003040190848311900302920304170290565b5091500490565b9181830291600019818509938380861095039480860395614749878611614646565b146147a55790829109818060000316809204600281600302188082026002030280820260020302808202600203028082026002030280820260020302809102600203029360018380600003040190848311900302920304170290565b505091500490565b919082018092116113f757565b90604051604081018181106001600160401b03821117610e1c5760405291546001600160a01b038116835260a01c63ffffffff166020830152565b9063ffffffff8091169116039063ffffffff82116113f757565b60ff6000199116019060ff82116113f757565b614840614839826000526006602052604060002090565b5460ff1690565b9060ff82169060028210614a1c57614865614839826000526005602052604060002090565b4263ffffffff1690600a841015614a0857506148b36148ad60206148a261489c60005b614291886000526004602052604060002090565b506147ba565b015163ffffffff1690565b826147f5565b63ffffffff6148d76148ce60075463ffffffff9060101c1690565b63ffffffff1690565b9116106149fc57600092839290835b60ff8616828110156149d15761497c8861497660ff948a8860019661492e61492861492261489c86614291876000526004602052604060002090565b9761480f565b60ff1690565b0361498657505061497063ffffffff61496761174f6149598d5b602089015163ffffffff16906147f5565b96516001600160a01b031690565b94168094611f11565b906147ad565b976147ad565b96011694936148e6565b61496761174f6149596149cc6149be63ffffffff956142916149ad6142a16149709a6141df565b916000526004602052604060002090565b505460a01c63ffffffff1690565b614948565b509450505050915081156149f2576149ec9161174f91611f24565b90600190565b5050600090600090565b50505050600090600090565b6148ad60206148a261489c6148b394614888565b505050600090600090565b60405163a9059cbb60e01b60208201526001600160a01b0390921660248301526044808301939093529181526107dd91614a62606483610e3c565b614d6c565b62ffffff1660648114614aa4576101f48114614a9e57610bb88114614a985761271014614a9357603c90565b60c890565b50603c90565b50600a90565b50600190565b604051602081019182526006604082015260408152614aca606082610e3c565b51902090565b906107dd91614adf8282614dce565b6141f1565b936001600160a01b0383811690831611614b78575b6001600160a01b03858116959083168611614b1a575050610d7f9350614ea5565b919490939192906001600160a01b0382161115614b6c578291614b4191614b479594614ea5565b93614e6b565b6001600160801b0381166001600160801b03831610600014614b67575090565b905090565b915050610d7f92614e6b565b909190614af9565b8115614cba576001600160a01b038116614c015750604051630476982d60e21b815290602090829060049082907f00000000000000000000000000000000000000000000000000000000000000006001600160a01b03165af1801561047857614be65750565b614bfe9060203d6020116113f0576113e28183610e3c565b50565b7f00000000000000000000000000000000000000000000000000000000000000006001600160a01b0316803b1561026157604051632961046560e21b81526001600160a01b038316600482015260008160248183865af19384156104785782602094614c7e93600097614ca0575b506001600160a01b0316614a27565b600460405180948193630476982d60e21b83525af1801561047857614be65750565b80614cae89614cb493610e3c565b806106d6565b38614c6f565b5050565b9082156126d3577f00000000000000000000000000000000000000000000000000000000000000006001600160a01b0316803b1561026157604051630b0d9c0960e01b81526001600160a01b03938416600482015291909216602482015260448101929092526000908290606490829084905af1801561047857614d3f5750565b80614d4c60008093610e3c565b80031261026157565b6345c3193d60e11b60005260020b60045260246000fd5b906000602091828151910182855af115611c5c576000513d614dbe57506001600160a01b0381163b155b614d9d5750565b635274afe760e01b60009081526001600160a01b0391909116600452602490fd5b60011415614d96565b61ffff1690565b906007549160ff8360301c16156126d357614de890614822565b919091156126d3576001600160a01b03918216911681811115614e4e57614e29614dc7614e2184612033614e1c82876138bc565b611ef9565b9461ffff1690565b8311614e3457505050565b63e9b5646f60e01b60005260045260245260445260646000fd5b8082038281116113f757614dc7614e2184612033614e2994611ef9565b610d7f92614e9a9290916001600160a01b0380831690821611614e9f575b90036001600160a01b031690614697565b614ef2565b90614e89565b610d7f92614e9a929091906001600160a01b0380821690831611614eec575b614eda6001600160a01b0382811690841661464d565b9190036001600160a01b031691614727565b90614ec4565b906001600160801b038216809203614f0657565b6393dafdf160e01b60005260046000fdfea2646970667358221220868b2eb9efbcca10d46d23839631014ad612cc97263fef38e420af515c77be7264736f6c634300081a0033",
  "linkReferences": {},
  "deployedLinkReferences": {}
}